:020000041000EA
:1000000000B5324B212058609868022188439860DF
:10001000D860186158612E4B002199600221596106
:100020000121F02299502B49196001219960352056
:1000300000F044F80222904214D00621196600F024
:1000400034F8196E01211966002018661A6600F04E
:100050002CF8196E196E196E052000F02FF8012189
:100060000842F9D1002199601B49196000215960AB
:100070001A491B48016001219960EB211966A021F2
:10008000196600F012F800219960164914480160C1
:100090000121996001BC002800D000471248134993
:1000A000086003C880F30888084703B5996A0420EC
:1000B0000142FBD001200142F8D103BD02B5186610
:1000C0001866FFF7F2FF186E186E02BD00000240BE
:1000D000000000180000070000035F00212200005C
:1000E000F4000018222000A00001001008ED00E03C
:1000F00000000000000000000000000074B24E7A12
:1001000000200420F7010010CB010010CD010010E9
:10011000C9010010C9010010C9010010C901001077
:10012000C9010010C9010010C9010010CF01001061
:10013000C9010010C9010010D1010010D301001045
:10014000C1010010C1010010C1010010C101001067
:10015000C1010010C1010010C1010010C101001057
:10016000C1010010C1010010C1010010C101001047
:10017000C1010010C1010010C1010010C101001037
:10018000C1010010C1010010C1010010C101001027
:10019000C1010010C1010010C1010010C101001017
:1001A000C1010010C1010010C1010010C101001007
:1001B000C1010010C1010010C1010010C1010010F7
:1001C000EFF30580103800BE00BE00BE00BE00BECA
:1001D00000BE00BEF2EB8871544B0010744B00104F
:1001E0003802001090A31AE71E481F49086006C88D
:1001F00081F3088810471D480068002801D019487D
:10020000F3E70DA40ECC002902D000F012F8F9E7B4
:100210001749184A002000E001C19142FCD116495B
:100220008847164988471649884700BEFDE701C937
:1002300001C29A42FBD37047744B0010C0000020EB
:1002400050110020045C0010000004200000042075
:10025000045C0010001004200010042000000000C6
:10026000704700000000000008ED00E0000000D032
:1002700050110020502000204D1A001021030010C2
:10028000451A0010F8B5C0460448054B10B5834226
:1002900003D0044B002B00D0984710BD5011002014
:1002A000501100200000000006480749091A891073
:1002B000CB0F591810B5491003D0044B002B00D0B8
:1002C000984710BD50110020501100200000000080
:1002D00010B5074C2378002B09D1FFF7D5FF054B4C
:1002E000002B02D0044800E000BF0123237010BDA2
:1002F000D81200200000000044470010054B10B544
:10030000002B03D00449054800E000BFFFF7CCFFF5
:1003100010BDC04600000000DC1200204447001061
:1003200070B501F09FFCD024002000F04FF80123AD
:1003300024066362062000F049F84023012063622E
:1003400000F044F802230022A3620121012000F002
:1003500023F8022000F03AF804230121A3620220CE
:10036000002200F019F80225210041200424094B45
:100370001B685A68154207D158614A681442F8D17F
:1003800098615A681542F7D04A681442F1D19861D1
:10039000F7E7C046801000200B4B80009C4660446D
:1003A00000290ED100230431002A00D11900802237
:1003B00003685201594094460C2360440B4003608B
:1003C00070470C210823EFE704C001400123D0222D
:1003D00083404021120693629361094A83009A1870
:1003E0001268C0005140C0220A4006498C4663444E
:1003F0001A60054B9C460523604443607047C04625
:1004000004C0014004D00140004001408023DB05CE
:100410001868000F7047C0460FB400B5084883B095
:1004200001F070FC049B002B07D005A91800019176
:1004300001F0EEFA034801F065FC012001F000FB39
:100440004447001054470010F8B5EFF3108772B618
:100450000D4E3368002BFCD0BFF35F8F0725CB0810
:10046000C01801230D40AB401D000478254007D182
:1004700023430370BFF35F8F356087F31088F8BDA7
:100480001000FFF7C9FFC0462C0100D0F8B5CE46DA
:1004900047468C4680B5EFF3108872B6214D2C6824
:1004A000002CFCD0BFF35F8F9A422CD80721012586
:1004B00011408D40D4080419267835421FD00721F9
:1004C0008946063909E04D460F001540AF40D40873
:1004D000041926783D00374211D001329342F2D2FE
:1004E00001204042BFF35F8F00220E4B1A6088F359
:1004F000108800280FDB0CBC90469946F8BD3543A8
:1005000025701000EEE7BFF35F8F00232B6088F3A8
:100510001088012040426346002BECD00898FFF77A
:100520007BFFC0462C0100D0044A1078431CDBB28C
:10053000172B00D9102313707047C0468410002079
:1005400000B5054B83B00100009318221F23034818
:10055000FFF79CFF03B000BD58470010D4180020DF
:100560000021044B044ABFF35F8F02C39342FAD1C8
:100570007047C046000100D0800100D0054B064AFC
:100580001360064A136053609360D3601361536134
:10059000936170478080808000E400E004E400E024
:1005A0001F2318401E3B8340002905D0C021044A68
:1005B0004900535013607047802201498B50FAE77D
:1005C00000E100E001228240034B1B681340581EEB
:1005D0008341D8B27047C04600E100E00123834068
:1005E000014A13607047C04600E200E0064B10303D
:1005F0009B688000C358054A00209B1A2F229A420C
:100600004041C0B27047C04600ED00E088100020B5
:1006100070B50D00EFF3108672B60F4A1368002B09
:10062000FCD0BFF35F8F0D4B10309B6884001B59CB
:100630000B4A934203D09D4201D000F09DFF074B2F
:100640009B681D51BFF35F8FBFF35F8F0022024B8A
:100650001A6086F3108870BD240100D000ED00E020
:10066000C1010010F8B557464546DE464E468A465B
:10067000E0B590460700EFF3108972B65F4A136841
:10068000002BFCD0BFF35F8F00205D4B18569B46BC
:10069000002800DAA2E05A4644005A4D2418A4006B
:1006A0002E19B37910371370574BBA009B689346D5
:1006B00099584B1B2F2B41D801230A009A43D37919
:1006C0009446434514D90627D7571300002F06DA5E
:1006D0008DE00627DF571A00002F00DA87E07B0045
:1006E000DB199B00EB18DF794745F2D8002A51D17E
:1006F000464A63465B1B5B415A43120D444BA11CA7
:100700003380444B6918043B5B1A1B0542495B0D5F
:100710000B43738063460434043B2D195D1B434631
:100720002D05F3716D0D53462943B180B27101213E
:100730006246B360394B3143136018E0384B99423D
:1007400052D1334B02343380324B2D19043B5D1BA5
:100750002D05314B6D0D1D43324B0121B380FF231D
:10076000B3714346F37153467580B36031435A46C3
:10077000254B9B689950BFF35F8FBFF35F8F0022BB
:100780001E4B1A6089F310883CBC90469946A246DD
:10079000AB46F8BD0627D757131D9C46002F2BDB11
:1007A00004342D19E024938824025B051B1563444F
:1007B0005B1B1B055B0D23436546341F641B24052F
:1007C000154D640D2C4394809071B3804346F371B2
:1007D0005346124AB7713260B360C8E700F0CCFEEE
:1007E0005B460020185656E700F0C6FEA9E71A1D22
:1007F00094461A000C4BDFE70B4BDDE7240100D0D9
:10080000891D00208810002000ED00E0AAAA000049
:1008100000A1FFFFB810002000E0FFFF0148804763
:10082000C101001001BDFFFF01BD0000F0B50124B2
:100830000443EFF30581EFF3108672B6214A136883
:10084000002BFCD0BFF35F8F1F4B204A0500ED1A31
:100850006D416A43120D1E4D8900AF6852B27F5838
:10086000A7421CD00621595691421CD0122159563C
:10087000914222D01E215956914220D02A21595608
:100880000324914210D0134B19781A708171BFF371
:100890005F8F00220B4B1A6086F31088F0BDAB68A7
:1008A0000D4C5C50EFE700246100091989005B18CA
:1008B000FF21997109499980E5E70124F4E70224B1
:1008C000F2E7C046240100D088100020AAAA000048
:1008D00000ED00E0891D0020C101001001BDFFFFF7
:1008E00000B5074B83B001000093002205230548A3
:1008F000FFF7CCFD002801DB1F23181A03B000BD51
:10090000744700108D1D0020024B9C4661448900F5
:100910000160704740000034F0B5FF23C646164D15
:10092000164F00B52C009846BD420ED320E0FFF7CD
:10093000FBFD01002800FFF7E7FF4346A380BFF35C
:100940005F8F34003500BE4212D22600236808367D
:10095000002BECD1FFF7E8FD01002800FFF7D4FFE2
:1009600043462371BFF35F8F34003500BE42ECD3A2
:1009700004BC9046F0BDC046481100205011002034
:1009800010B50400FFF7D0FD01002000FFF7BCFF09
:10099000FF232371BFF35F8F10BDC04610B5040065
:1009A0000120FFF7CDFD044B9C4660448000206091
:1009B000BFF35F8F10BDC04640000034034B9C4620
:1009C000614489000160BFF35F8F704740000034CD
:1009D0000A4B1968EFF3108072B60A68002AFCD03F
:1009E000BFF35F8F1B68BFF35F8F00221A6080F335
:1009F000108840BF002000217047C046681D0020BD
:100A0000F0B5DE4657464E464546E0B585B0EFF3B5
:100A10000583032213409A0011000392BA4A5258E8
:100A2000904601229A409246B84B1A605346B84805
:100A30004363434608229B5E9946002B3EDA4346B9
:100A40009B881BB2002B00DBA3E043469B79002B65
:100A500000D0FEE043460820185E002824DB424612
:100A60005269430094461B18DB0063449C68DD68B0
:100A7000631C00D1E7E0A648039B84466344826A76
:100A800019001B69A61A9B1A9E4215D35246036A87
:100A90001A4211D09E4800F02FFB241A8D41002DE0
:100AA00002DCC3D1002CC1D040BF05B03CBC904695
:100AB0009946A246AB46F0BD0C61EBE7424652694F
:100AC0005B0093464B44DB009B445B469E68DF68BB
:100AD00000F012FB801BB9410029B0DB002F00DAC7
:100AE000ECE05A465B4654691B698A4A934200D13E
:100AF000DFE041465A460820085E52880004210083
:100B00001043984704000D0023002B4300D1D5E08B
:100B1000002D00DBEEE0361BAF4134003D005B46AC
:100B20009C60DD600021595E002900DA87E74346BA
:100B30005B6922009C462B0048004018C0006044BE
:100B40008668C768921BBB41002B00DA77E74346F3
:100B5000664619810200009401950CE07B00DB19C8
:100B6000DB00F318009801999C68DD68001BA9411F
:100B7000002904DB1A000023D75E002FEEDA5B4663
:100B80001F804B46138043469B881BB2002B00DA24
:100B90005BE743461A69EFF3108172B61368002BC6
:100BA000FCD0BFF35F8F43469B8842461BB29C46F6
:100BB00001235B4293801369BFF35F8F00221A60A9
:100BC00081F310886346002B00DA3EE743465F69F5
:100BD00008234344994663465E006644F600B346E4
:100BE000BB445B469868D968434608229A5E0090E9
:100BF0000191002A2BDB53009B18DB00FB189C683B
:100C0000DD68001BA94100290CDA20E053009B1885
:100C1000DB00FB18009801999C68DD68001BA94166
:100C2000002904DB1E000023F25E002AEEDA634690
:100C300033805B4600215B5E9C465B461A806346C0
:100C4000002BC8DA01E76B1C00D014E722E74E4600
:100C5000EDE70023424693714346464608229A5EDA
:100C60000836531C00D11FE7434647465D6994464A
:100C700003E01E002200631C18D053009B18DB0009
:100C8000EB1800215C5E598809B20029F1DA0120D5
:100C90004042C1179860D9606245EBD034803989F1
:100CA000944619803A812200631CE6D1B84660461A
:100CB000D3E6200023699847002821D15B464246AD
:100CC0001B8813811269EFF3108372B61168002933
:100CD000FCD0BFF35F8F4246594652880A80424695
:100CE000494651801269BFF35F8F0021116083F381
:100CF0001088A4E6064800F0FFF924184D410EE7DD
:100D00006568246800E7C0464C1D00203C70054023
:100D100000400540010A001070B52E4C2569002DD9
:100D200004D00A212C48FFF7EFFD70BD2B4E0321A4
:100D3000300000F0D7F9E660FFF7F6FB284B0322FE
:100D40009C46D02322701B061B6801216370254B33
:100D50006044A3600F2380002061022063806369E8
:100D60004942A18019800231198647311D835852AA
:100D700018315A5275325C399952183201319952F0
:100D8000183201319952183201319952083518320E
:100D90009D5202311832995218320131995218324B
:100DA0000131995218320131995218320131995258
:100DB0001832013199520C4B0C49DC60013035621C
:100DC000FFF726FC01210320FFF7EAFB084B1D601B
:100DD000A7E7C046D0100020681D00200040054055
:100DE00040000034FFFF10004C1D0020010A0010DD
:100DF0003860054000487047D0100020F8B51F004B
:100E000008AB1B7804001600002B07D100F07EF918
:100E100032003B00121A8B41002B4BDB2269EFF3AF
:100E2000108072B61368002BFCD0BFF35F8F0223D3
:100E3000E15E63694A009C465218D2006244002970
:100E400001DB138863802369BFF35F8F00251D607A
:100E500080F3108800292FDB069B9660D760136112
:100E6000079B5361538801335B045B0C1D1E1ED02E
:100E70000804284353802569EFF3108672B62B6867
:100E8000002BFCD0BFF35F8FA3881380A180236960
:100E9000BFF35F8F00221A6086F310880849237819
:100EA00001328C469A40E36863441A60F8BD01251C
:100EB0000123DDE70020F9E701204042F6E7C046C4
:100EC0003C200000F0B501000469EFF3108672B613
:100ED00020680028FCD0BFF35F8F02200D5E4869B8
:100EE0006C0084466419E4006444002D01DB208812
:100EF00048800869BFF35F8F0027076086F310887A
:100F0000002D2DDBA260E36063880598013320612A
:100F10005B0406985B0C60611A1E1ED02804104307
:100F200063800A69EFF3108672B61368002BFCD059
:100F3000BFF35F8F8B8823808D800B69BFF35F8F3A
:100F400000221A6086F310880B7801329A40CB6831
:100F500005498C4663441A60F0BD01220123DDE798
:100F600001204042F8E7C0463C20000030B54389EC
:100F70000A14934232DD53009B184269DB00944609
:100F800005696344EFF3108472B62A68002AFCD026
:100F9000BFF35F8F5A8889B292B2914208D0036939
:100FA000BFF35F8F00221A6084F31088002030BDE9
:100FB000802109020A435A80012302698371BFF329
:100FC0005F8F0021116084F31088054902788C46F8
:100FD0009340C268012062441360E8E70020E6E71E
:100FE0003C20000040787047F0B5D6464F46464654
:100FF000C0B5040082B00D00EFF305878946002FCD
:101000000ED0354900204B6AAB4203D38A6A0130C7
:10101000A24246D302B01CBC90469946A246F0BDFF
:101020002E4B9846DB689A46434650461E7800F0A1
:1010300063F853460436B600F35822001E1A2B00FC
:10104000121A8B419F4202DC30D196422ED900F019
:101050005DF822002B00121A8B41002B31DB00239C
:1010600001931F4B2200009340462B00FFF72AFFFD
:10107000002826DD184B5A6A4A4504D39B6AA342CE
:1010800002D24A4500D120BF01004046FFF76EFF63
:10109000114A0020536A4B45BCD3926A0130A242E8
:1010A000B8D25B1B581E8341D8B2B3E720BF0A4AAF
:1010B0000020536A4B45ADD3926A0130A242A9D2B7
:1010C000EFE7054A0020536A4B45A3D3926A0120FB
:1010D000A2429FD2E5E7C04600400540D010002064
:1010E000D109001010B5024A0248FFF7ADF910BD52
:1010F00090470010D81800200200416A00E0190053
:10110000906A536A9942FAD17047C046044A516ABC
:1011100000E01900906A536A8B42FAD17047C046CA
:1011200000400540F8B54E464546DE465746E0B518
:10113000884605000A991800170000F049FB0A9B31
:101140006C001E023F4B64199C46A4006444636813
:1011500081469E4200D966602B1FDBB29A46C023AF
:1011600052469B01E318012A37D9802212011A60E6
:10117000354BAD0059599B46002924D05B46586930
:1011800000F026FB431C5800C0180338FDD223682A
:101190007F017B40E0271F40802352465B01E3181C
:1011A0001F60012A2ED9802380229B01E31812019F
:1011B0001A605B464A4666605A513CBC9046994666
:1011C000A246AB46F8BD23687F017B40E0271F4065
:1011D00080235B01E3181F60E5E74246012A1ED029
:1011E000802212011A60184BAD0059599B46002904
:1011F000C4D123687F017B40E0271F4080235B012F
:10120000E3181F6042462168514003220A401A60D9
:10121000012342469340A2681342FCD0C3E7023246
:101220001A60023AA3681A42FCD023687F017B400F
:10123000E0271F408023044A5B01E3181F609346A8
:10124000AD00DFE700800040DC180020F0B54F461D
:101250004646D646C0B51F00444B44009C46241861
:10126000A400644463680E001500FF2B02D880239D
:101270005B006360031FDBB29946C0234A469B01B3
:10128000E318012A3BD9802212011A60384B9A4692
:1012900083009846534642469958002925D0534624
:1012A000586900F095FA431C5800C0180338FDD265
:1012B00023686D016B40E0251D4080234A465B0199
:1012C000E3181D60012A31D9802380229B01E31895
:1012D00012011A6080235B004246636053469F50B0
:1012E0001CBC90469946A246F0BD23686D016B4038
:1012F000E0251D4080235B01E3181D60E4E7012E1B
:101300001FD0802212011A60194B9A46830098461A
:101310005346424699580029C1D123686D016B405C
:10132000E0251D4080235B01E3181D600322216836
:1013300071400A401A600123B340A2681342FCD0F6
:10134000C2E703221A60023AA3681A42FCD023685B
:101350006D016B40E0251D408023054A5B01E318C9
:10136000924682001D609046E0E7C0460080004043
:10137000DC180020014B8000C0587047DC180020AA
:10138000F8B50400204817001E000D0000F020FAF8
:101390000100380000F01CFA069A330412031343CC
:1013A0002268002A1FDB194A194EA21851424A41ED
:1013B000802149018C4652420A40164962440A6023
:1013C00015490A60170031688F43FBD1134A256025
:1013D000A1182122A0600A602268002AFCDAE360DA
:1013E00008230B60F8BD3F2221680A40AA42DAD1E7
:1013F000A2681205120D8242D5D1EE21E268C9021F
:101400000A409A42CFD1EDE7001BB7000040FDBF74
:1014100008C0004000E0004000F000400430000040
:1014200010B580241B4BE4051C6000282BD0012341
:10143000194C1843194BDC61194C44401C62596229
:1014400098628021134BC905196016481649086037
:10145000E021C9041960002A04D18022134B12062E
:101460001A6010BD53019B1A9B009A18104B120171
:101470009A420BD80F4B1A60084B5A6080220B4BD4
:10148000D2051A60EDE7054BD861DAE7094A136027
:101490001A00F1E700B00540D3C007B00080054056
:1014A0002D3FF84FFCFF01000820014000A005403F
:1014B000FFFFFF003C1D00208023024A9B000B43DE
:1014C000D362704700800540142310B501001888CE
:1014D00004331B88984710BD162310B501001888E7
:1014E00002331B88984710BDF0B5C64600B50029E9
:1014F00016D01423040001259846182789004618A1
:101500004346216818883B88984701C4431E984188
:1015100040420540A642F3D1280004BC9046F0BDED
:101520000125F9E7142370B50400188804331B88DB
:101530000D000549984703000020002C01DB013015
:10154000A04029009847C04655420000AA23064AF9
:101550001B0113608D235B00D3600449044B1960A9
:101560005368002BFCDA70470040024000B0FA00DC
:10157000006002407047C04610B50148FEF74CFFBE
:10158000B447001070B5074B074C9C4209D2013B91
:101590001D1BAD080135AD002D1908CC9847AC4294
:1015A000FBD170BD3C47001000470010054B064AB8
:1015B00006491A60064A074B1A6010000B689843E8
:1015C000FBD1704700E00040BFCDFBFE08C00040EB
:1015D000FE7F3C0000F00040044BDB6C002B03D18D
:1015E0008022034BD2021A607047C046000011509F
:1015F0004C201150044A054B1A60054A1368DB0160
:101600008033FBD17047C046FFFFFF0100F0004070
:1016100008C000404022034B9A675A671A67DA668F
:101620007047C04600F0014010B5FEF799FF10BDAD
:1016300070B52849284C294D641AA6103200302E66
:1016400000D930229200280000F0D4F92F2E3BD888
:1016500030202F212B195B07214A801BDB0F891BB0
:10166000052916D9002B32D0B1006A50741CC01A5B
:10167000F3189B004108EB18C900C9181A605A609A
:1016800008338B42FAD1012301009943661888423E
:101690001AD0B300EA50731C302B15D09B00EA50CF
:1016A000B31C302B10D09B00EA50F31C302B0BD016
:1016B0009B00EA50331D302B06D09B000536EA50C4
:1016C000302E01D0B300EA50064B9D6070BD34004F
:1016D000CDE7C04600010010C0010010000000204E
:1016E000C101001000ED00E0002310B5294C82B0CC
:1016F000A367FFF72BFF0122274B1A60636C012BB6
:10170000FCD10322254B1A60224A936B012BFCD19A
:1017100001330093224A043301212248FFF730FEAF
:101720000523214A009301212048FFF729FE204B81
:10173000002202210420FFF789FD1E4B0022012117
:101740000520FFF783FD1C4B002200210720FFF737
:101750007DFD194B002200210820FFF777FD802333
:10176000DB0000930022144B00210920FFF7DAFC74
:10177000104B002200210620FFF768FD0420FFF730
:10178000F9FD0E4900F024F801000020FFF794FE57
:1017900002B010BD008000403CB0004030B00040BE
:1017A000002F685900800240008C864700C002402C
:1017B000001BB70040597307006CDC0240420F0069
:1017C00001480421014B1847F0100020E9140010D3
:1017D000114A936F9B0813D210665166002905D0F9
:1017E000FFE7FFE7FFE7516F106F704704B5002870
:1017F00001D00020C04302F03BFF002104BDC046E1
:10180000F0B5146E556E576F166FFFF7E5FF14664F
:10181000556657671667F0BD000000D0132370B5FA
:101820001D78012D19D014DD2848FFF755FE06005C
:101830002748FFF751FE274C80223100200000F09E
:10184000D9F8022D06D02448FFF73EFE234B18603E
:1018500070BD204C224AA264F5E71E4C204AA30822
:101860005B421D402FD02B0022602020A900611870
:10187000451B0A604A608A60CA600A614A618A61DF
:10188000CA610A624A628A62CA620A634A638A63F6
:10189000CA630A644A648A64CA640A654A658A65D6
:1018A000CA650A664A668A66CA660A674A676D0832
:1018B000102D03D18A67CA67A264C4E71E339B0058
:1018C000E250A264BFE70023CFE7C04653440000C4
:1018D00053460000901D00204C330000641D002082
:1018E000E518001007B5604601880A0A0230DF2AB1
:1018F000FAD1C9B2820804D3028840880004104398
:1019000000E00068014A5050039007BD901D002080
:1019100051434343C9188C46110C83B24B4310B456
:10192000040C614392B280B2504362431C041B0C0E
:10193000001910BC59411304120CC01851416144E4
:1019400070470000132310B51C781348FFF7C4FD3F
:10195000012C0BD004DD01008022104800F04AF871
:101960000F48FFF7B1FD0F4B186010BD0B4C010085
:101970005422200000F03EF80B4B6365A365E3653D
:1019800023666366A366E36623676367A367E3670B
:101990002362E361E4E7C04653460000901E002046
:1019A0004C330000641D0020AD19001007B56046DF
:1019B00001880A0A0230DF2AFAD1C9B2820804D3A8
:1019C000028840880004104300E00068014A50503B
:1019D000039007BD901E002001480421014B1847C9
:1019E00000110020E9140010014B1B68184700008B
:1019F00000110020014B5B68184700000011002017
:101A000010B5002800D110BD00F030F9FBE7C0464A
:101A100010B5094A84B01468002C09D00122009145
:101A20000300524203A90548A047012004B010BD9D
:101A300000F068F90020F9E7381D0020011A0010B5
:101A400000BEFDE710B5FFF7FBFFC04670B5FFF71E
:101A500099FD074C074B9C4209D2013B1D1BAD0869
:101A60000135AD002D1908CC9847AC42FBD170BDB3
:101A70003C47001044470010030010B508001B68E5
:101A80001100984710BDC046F8B54746CE4680B510
:101A9000437D80460C001500002B43D0002A34DD26
:101AA0000A78037D00200A2A33D0012D1ED0204B56
:101AB0000121671E994602E03100B54216D0635CF1
:101AC0007A5C4E1C0A2BF7D10D2AF5D043461B68D1
:101AD000884204DA091A2018984743461B680221F5
:101AE0004846984730003100B542E8D1854204DDD0
:101AF0004346291A1B68201898476419013C23782B
:101B00000D3B5A425341424613750CBC90469946D0
:101B1000F8BD002BC9D14346054802211B689847F0
:101B20000120C2E70368110020009847EDE7C04696
:101B300054480010F0B5DE4657464E464546E0B5DF
:101B400085B017001C0006000D00FFF7DFFA002328
:101B5000314A12184B41002B59DB304908008846A6
:101B600002F09EFD01906B1C03D1300002F030FDAD
:101B70000500002C26D12A4B9A462A4B1C68002CC3
:101B800015D0002F21D1284F02E02469002C0ED05F
:101B90002368002BF9D03B68002B01D0A342F4D17D
:101BA00020002A003100D0472469002CF0D1019B8D
:101BB000002B28D1280005B03CBC90469946A2468F
:101BC000AB46F0BD194B9A46D7E7174B9B4602AB85
:101BD000DF1D0A23994602E02469002CE7D0236820
:101BE000002BF9D05B461B68002B01D0A342F3D138
:101BF0002A0031002000D0474B4601223900200046
:101C00003B70D047E8E7404602F022FDD2E70122D0
:101C1000074B5242A1E7C04640420F004811002046
:101C2000791A00102C19002034190020891A00108C
:101C3000FFFFFF7F0A4A1368002B05D10CE01A0052
:101C40001B691032002B07D09842F8D1002902D12D
:101C500003691360016170470029FCD01060FAE746
:101C60002C19002010B500F093FA10BDF0B5CE4647
:101C7000474680B583B06B46DE1D05003070FFF728
:101C800045FA00231A4A12184B41002B2CDB194F3E
:101C9000380002F005FD184B80461C68002C16D059
:101CA000164B994602E02469002C10D02368002BC3
:101CB000F9D04B461B68002B01D0A342F3D1200082
:101CC00001223100FFF7E0FE2469002CEED14346EB
:101CD000002B05D1280003B00CBC90469946F0BDFE
:101CE000380002F0B5FCF5E70122054B5242CEE781
:101CF00040420F00481100202C1900203419002008
:101D0000FFFFFF7F70B5040002F062FC01230100B9
:101D1000050001222000FFF70DFF084B1C68002C76
:101D200006D06368002B05D098472469002CF8D1B1
:101D3000280070BD2469002CF3D1F9E72C1900208C
:101D40007047C0460022014B1A7070478A1D002060
:101D50004B790020FF2B0BD18B79002B08D1CB794D
:101D6000012B05D1082A03D98A78024B09301A7051
:101D70007047C0468A1D00200120704710B5012918
:101D800009D115495379107909781B0203430020C2
:101D9000994202D010BD0120FCE75378012B08D0F6
:101DA000022BF7D1002064220021FFF739FB01202C
:101DB000F0E7D178937809021943CB0507D54A0A91
:101DC00090B201231A407E331940FFF7ABFB01208C
:101DD0004A0A4042F5E7C0468A1D00200048704785
:101DE0007848001010B501231400012909D1527858
:101DF0000023012A05D16279217912020A43072AB8
:101E000001D0180010BDA633024A210001F086FA65
:101E10000300F6E79C480010012303700048704758
:101E2000584800104A780B7812021A438B7810B584
:101E30001B041A43CB781B0613439622D20093420D
:101E400000D010BD0022012011004042FFF76AFBC4
:101E5000024B1860024B19607047C046CC18002036
:101E6000D0180020154B70B51A68002A22D0EFF365
:101E7000108172B610680028FCD0BFF35F8F00227B
:101E80000F48596002701B68BFF35F8F1A6081F3BF
:101E90001088002400250B4E3078FEF793FB0028B5
:101EA00004D1002400252900200070BD3078FEF701
:101EB00095FBF8E7FA240025A400ECE7441D002078
:101EC0008C1D00208B1D002010B5024B1878FEF7EA
:101ED00085FB10BD8B1D002070B5050000200E0095
:101EE00001F00CFB002835D0002001F01DFB00287C
:101EF00030D0FFF70BF90023184A12184B41002B82
:101F000024DB174C200002F0CBFB002822D000205D
:101F100001F0F4FA00280BD10120002140420325F2
:101F200000F016FD6D42200002F092FB280070BD0B
:101F3000002001F0F9FA0028EED02900320000203C
:101F400001F0FEFA051EEED1033DECE70122054B40
:101F50005242D6E703256D42E8E7C04640420F00F3
:101F60006C1D0020FFFFFF7F10B5FFF7CFF80023A7
:101F70000E4A12184B41002B13DB0D4C200002F0CF
:101F80008FFB00280CD001200021404200F0E0FC33
:101F9000002001F01FFB0028F5D1200002F058FBC3
:101FA00010BD0122034B5242E7E7C04640420F00FA
:101FB0006C1D0020FFFFFF7FF0B5D6464F4646461A
:101FC000C0B507000E00FFF7A1F80023394A121828
:101FD0004B41002B5EDB38490800884602F060FB6D
:101FE000002804D11CBC90469946A246F0BD0020B2
:101FF00001F084FA002851D00024002E35DD2F4B4B
:1020000099469A4615E0002851D10120002140420E
:1020100000F09EFC002001F0DDFA002001F06EFAD5
:10202000002822D0002001F033FB002821D0A64256
:102030001BDD0020351B01F02BFB8542E3DC2A0071
:102040003919002001F002FB050001200021404267
:1020500000F07EFC002001F0BDFAFFF757F84B4678
:10206000641918605960A642E3DC404602F0F0FAB9
:10207000B8E7FFF74BF800230D005146104A84469D
:102080000868496812184B419D42EED8CFD194455B
:10209000CDD9EAE701220B4B52429CE700200021F8
:1020A000064B18605960404602F0D2FA9AE70500E4
:1020B000C5E7C04640420F006C1D0020D012002032
:1020C00020A10700FFFFFF7F30B52A4C85B000211B
:1020D000200002F0D5FA00281CD1274B1A68002AEC
:1020E00016D0EFF3108172B610680028FCD0BFF351
:1020F0005F8F01242148596002781B68D2B20470B6
:10210000BFF35F8F0020186081F31088002A17D07A
:1021100005B030BD01200021404200F019FC002034
:1021200001F002FA0500200002F092FA002DEFD033
:10213000134B1B68002BEBD0124A10689847E7E757
:10214000FEF758FE0400FEF7E1FFFA22002392009A
:1021500012184B41002B09DB012102910021019152
:10216000094920000091FEF749FED1E70122074B03
:102170005242F1E76C1D0020441D00208C1D002000
:10218000CC180020D0180020651E0010FFFFFF7F34
:10219000D02310B51B0684B01C68FEF72BFEFEF79B
:1021A00021FFA04202D0002004B010BD294B002125
:1021B00000201B7801F0E0FD27480368002B41D088
:1021C0000120FEF78DFBFF23244C25492070184089
:1021D000FEF71EFA20780121FEF7E2F90520FEF74E
:1021E00005FA002821D1082200211E48FFF7FCFB38
:1021F000FEF700FE0400FEF789FFFA22002392009A
:1022000012184B41002B20DB01210291002101918A
:10221000154920000091FEF7F1FD0028C3DB1348AB
:102220000121FFF707FD0120BEE70120FEF788F935
:1022300001000C48FEF7C2FB00220D490520FEF705
:1022400011FAECE7FEF79CFBBAE70122094B524278
:10225000DAE7C046704B00106C1D00208B1D00207B
:10226000C9200010441D0020651E00101011002020
:10227000C91E0010FFFFFF7F00487047E4490010AF
:10228000004870479049001070B504001648037864
:10229000002B20D0002C18D0052C23D8134B144829
:1022A000A400E558811C002304E001330A800231B8
:1022B000132B14D0EA5CDCB2002AF6D1C02301341F
:1022C00064009B001C43048070BDC1240848094B76
:1022D000A4004380F7E7112100F016F8DAE7CA24DA
:1022E000A400F0E70020EFE7741D0020F84900107B
:1022F000041900200904000010B5024800F0EAF8B3
:1023000010BDC0465C1D0020013930B5002900D148
:10231000B8E06F4B1A781211D5B22C003034092A6C
:1023200000DDB2E00470012900D1CEE00F221C785C
:10233000224014003034092A00D9A8E04470022950
:1023400000D1C2E05A781211D5B22C003034092ADB
:1023500000DD9FE08470032900D1B6E00F225C7895
:10236000224014003034092A00D995E0C4700429B1
:1023700000D1AAE09A781211D5B22C003034092A83
:1023800000DD8CE00471052900D19EE00F229C78CD
:10239000224014003034092A00D982E04471062911
:1023A00000D192E0DA781211D5B22C003034092A2B
:1023B00000DD79E08471072900D186E00F22DC7806
:1023C000224014003034092A00D96FE0C471082972
:1023D00000D17AE01A791211D5B22C003034092AD2
:1023E00067DC0472092900D16FE00F221C792240BA
:1023F00014003034092A5ED844720A2965D05A790B
:102400001211D5B22C003034092A57DC84720B2902
:102410005BD00F225C79224014003034092A4FD857
:10242000C4720C2951D09A791211D5B22C003034D3
:10243000092A00DD073404730D2946D00F229C7948
:10244000224014003034092A01D937321400447371
:102450000E293AD0DA791211D5B22C003034092A7B
:1024600000DD073484730F292FD0DA790F2313404E
:102470001A003732092B01D830331A00C2731029E1
:1024800023D010300023037030BD07344AE73732C1
:10249000140053E707345DE73732140066E707346A
:1024A00070E73732140079E7073483E737321400D6
:1024B0008CE7073495E7373214009DE70734A5E72A
:1024C00037321400C4720C29ADD14018DAE7C04687
:1024D0005C1D002010B588B004000D220021684664
:1024E000FFF782FA0D22002104A8FFF77DFA4B23A3
:1024F0006A4604A9137068460D2202F0A1F815215E
:10250000082269442000FFF775FA08B010BDC046E4
:10251000F8B500F03BF90C23194DFF22AB671949C0
:102520000520FEF79FF8184C402200212000FFF7FD
:102530005BFA4027002301262121144A6670278375
:10254000A260136063545F31618445396354104A5B
:1025500010496360E2602787A1620B606362E262F8
:1025600002F07EF880239B052E64EB6490230A4AD8
:102570000120EA508022094B5202DA64F8BDC046BD
:10258000000011505105002038190020840010501F
:10259000000110508000105010D001000020115098
:1025A00010B501210520FDF7FBFF10BD10B500227D
:1025B0000021024800F00AF910BDC0465819002059
:1025C000044B1970002904D080219023024A89020B
:1025D000D1507047861D0020002011500B785B06FB
:1025E00002D14B78052B00D070478A78014B1A60D6
:1025F000FAE7C04600001150F0B5C646C87800B5ED
:102600008007800FC3B29C46012B60D08F780A7977
:102610004B797F213940FC091B024E001343304D9A
:1026200032195201AA189770012767405770002786
:102630005B055B0DD7701383D076CA00012C2FD0B9
:102640002848804688014244281882601760002983
:1026500035D0254AC9009046414441603F223F336E
:1026600093436246022A34D0204937190A687F0111
:10267000D3180B601E49EF19FA608B422BD834191E
:1026800064012D19EB7E1B499B064A4013438022AF
:102690000120120613436A68136004BC9046F0BD23
:1026A0001548804688014244281882621760002934
:1026B00005D0104AC900904641444162CEE700234C
:1026C00064012D196B600D4B0120EB60E5E70020E4
:1026D000E3E75B00C8E7FEF74FFFFA68CFE7C046C5
:1026E000381900208400105004001050401D0020B4
:1026F000FF0F1050000010508000105000011050CB
:1027000010B501F0ADFF10BD7F2020B515000840C9
:102710004000C90940180449400140181A00290026
:1027200000F054F8012020BD381900207F2310B597
:102730000B40C909002B03D102220748521A8266B6
:10274000802258004018054B4001C018120100219A
:1027500001F0C6FF10BDC0460020115038190020FE
:102760007F2310B50B4000D110BDC9095800401897
:10277000044B4001181800230022C370024901F0E5
:10278000AFFFF1E738190020FFF7FFFF80220A4B67
:10279000520410B51A60094B09491A6010000B6801
:1027A0009843FBD18022002152010648FFF71CF913
:1027B0000922054B5A6710BD00E0004000F00040C0
:1027C00008C00040000010500000115070B5837E1A
:1027D00004000D001600002B19D100232100E38214
:1027E0000133A682A3762561A01C1B3101F068FF8E
:1027F000002804D080219023084A8902D15020006B
:1028000001F076FF002805D00123237770BD01F089
:102810005FFFE2E7200001F04BFFF7E700201150D7
:102820007047C0467047C046002070470020704780
:102830007047C0467047C0467047C0467047C046A4
:10284000024B5878431E9841C0B27047A414002030
:10285000024B18784007C00F7047C046A4140020F0
:10286000F0B5D6464F464646C0B52E4E8246337822
:1028700089460124FF2B43D1002940D00021542256
:102880002948FFF7B1F80022284C294B20001A7084
:10289000FEF776F8274B1C60274C20001430FEF71B
:1028A0007DF8200001F050FE244B254D1C60254B87
:1028B000002B04D02800FFF7AFFA234B1860234900
:1028C0002A780024002388461F4F10E03A686301ED
:1028D00094466344002B12D05B68002B0FD09847BE
:1028E0002A780134E4B2511C2300A1420EDBA2423B
:1028F000ECD89B1A5B0143445B68002BEFD10024AA
:1029000020001CBC90469946A246F0BD534649465D
:1029100050463370FFF7FCFD041EF0D05046FFF721
:102920003FFEEDE744110020A41400209C14002079
:10293000871D0020F814002028110020FC1400201E
:10294000851D0020191E0010F4120020144B0010E9
:10295000F0B5DE4657464E464546E0B5CC4B8BB00B
:102960001B78FF2B00D146E1CA4B07AC9B46CA4BF4
:102970009A465B461D686A69EFF3108172B6136868
:10298000002BFCD0BFF35F8FA9612800210001F06C
:102990001BFC6A69AB69BFF35F8F0021116083F391
:1029A0001088002800D126E16378082BE1D8524630
:1029B0009B00D3589F466368002BDAD0A0689847E5
:1029C000D7E77F232179B54D0B405800CA092D1850
:1029D000AD182A00012630321079B04310711079F9
:1029E0000336B0431071002B00D10DE1AC4A2B7DB2
:1029F0001278934200D3FBE0AA4A5B011268D31815
:102A0000002B00D1F7E09D6962792078A368A84780
:102A1000AFE7A54A1378002B00D1ECE01378013B17
:102A2000DBB213701378002BA3D101229B4B012141
:102A30001B789A481343994A984D13703423D25CFB
:102A400027788A43C254C25C04208243EA5401338B
:102A5000EA5C8A43EA54EA5C8243EA54002000F0CC
:102A6000C1FC602223791A40602A00D1FBE0402A91
:102A700000D101E1DB06DB0ED9B2012900D125E14D
:102A80005BB2002B00D115E1022900D0EBE07023EE
:102A9000217A0B4200D0E6E07F25CB0999460D4014
:102AA0007E4B6D005B194B441E7D7D4B1B789E4217
:102AB00000D242E1581CB04200DA24E2F61A7B4B05
:102AC00076019E19002A00D121E2706900F08AFC8B
:102AD000736908AA012138009847D5E06F4D2B781B
:102AE000DB0700D445E7FFF7A9FE42E76B4BDB7835
:102AF000DB0700D43DE76068FFF794FE39E7674DD8
:102B00002B78DB0700D434E728780007C00FFFF7E5
:102B100093FE2EE76549624D8946624927782A78F7
:102B200000230026884610E042461268730194464E
:102B30006344002B66D0DB68380098472A7801365A
:102B4000F6B2511C33008E423CDCB242ECD89B1AE8
:102B50005B014B44EFE75549514D89465149277870
:102B60002A7800230026884610E042461268730146
:102B700094466344002B20D0DB68380098472A78BD
:102B80000136F6B2511C33008E4205DCB242ECD85D
:102B90009B1A5B014B44EFE7404D54220021280073
:102BA000FEF722FF1022FF21281DFEF71DFF28003F
:102BB00020221430FF21FEF717FF00F009FCFFF779
:102BC00039FED6E6354D542200212800FEF70CFFD1
:102BD0001022FF21281DFEF707FF280020221430B5
:102BE000FF21FEF701FF00F0F3FB2379AB70C0E695
:102BF000501C98420EDA0BB03CBC90469946A24657
:102C0000AB46F0BD254DEEE762792078A36800F071
:102C1000FDFBAEE69B1A254A5B01D318F3E6019B48
:102C20000490012B00D1D1E1019B002B00D1DBE10D
:102C3000B1781A4A0B0052181279FF2A10D10022DB
:102C400016480132844663441F71019BD2B29A42F6
:102C500000D3C9E15318DBB2C0180079FF28EFD0C8
:102C600000230E4A537020780021FFF75FFD207883
:102C70008021FFF75BFD7CE60D4800F0B3FB08AA5E
:102C800001213800FFF7AEF8002800D071E6EAE72E
:102C900044110020FC1400206C4A0010A4140020F1
:102CA000851D0020F4120020871D0020144B001009
:102CB000E51D0010202A00D109E1002AD3D1637953
:102CC000092BD0D8D44A9B00D3589F46237A0F2B88
:102CD000C9D8D24A9446D24A63441B7912789342A7
:102CE00024D3511C9942BEDB9B1ACE4D5B01ED18DB
:102CF000686900F077FB6B6908AA012138009847E2
:102D0000002800D035E6602523791D40ABD16379DA
:102D10000A3B012BA7D800F065FB63790A2B00D191
:102D20004BE108A9380000F0E1FA22E6BE4A5B0157
:102D30001568ED18002D96D0DAE7BB4B76011B68BD
:102D40009E19002A00D1E2E0002E8CD0BDE6B34BE4
:102D5000A6795B789E42E4D0B04B5B78002B00D024
:102D60006FE1AE4B5E70002E00D167E1701EC0B205
:102D7000FFF786FA002800D172E743780593022B0B
:102D800000D06DE701251026C27953112B4019019F
:102D9000A24B92111B782A40B3430B4320215201CE
:102DA0008B4313439D4A137009239846C378827856
:102DB0001B021343C31880440393984500D328E1B2
:102DC000994B46469946B8460122737801920B2BDF
:102DD00004D1F37801933378F6187378042B00D07C
:102DE0003EE7039B00279B1B9BB204938C4B1D78F3
:102DF000002302931AE04A4612687B01D518002D81
:102E000000D12DE7049A310040462B6998470828E5
:102E100003D9049B834200D301E7814B01371D781E
:102E2000FFB26B1C02979F4200DD19E7BD42E2D85A
:102E3000029B5D1B7B4B6D019C466544E2E7774B33
:102E400006AA5B780232137008A90123380000F04B
:102E500065FA8EE5E088030AC0B20F2B00D902E7BD
:102E600072499A008A58974608A800F0C1FAA179D9
:102E70003800FFF79BFB0222684B1B781343674A1D
:102E8000137076E5E388012B00D0ECE60822634B53
:102E90001B789343614A137043E702205F4B197814
:102EA00006AB9A1C8B068908DB0F01400B4313808D
:102EB00008A90223380000F031FA5AE5E388012B13
:102EC00000D0D0E60822554B1B781343E2E7237A63
:102ED0000F2B00D9C7E6514A9446514A63441B79E7
:102EE0001278934251D2504A5B011568ED18002DBB
:102EF00000D1B8E6686900F075FA6B6908AA01218B
:102F000038009847C0E60026002A00D0ABE6637977
:102F10009846012B04D0002B2DD0032B00D0A2E625
:102F2000E388002B12D1424B18784346012B35D051
:102F3000FFF7FCFB0221394B5B194B4430331A7904
:102F40000A4301211A711A790A431A71002E00D11D
:102F50000FE5706900F046FA736908AA012138008C
:102F60009847002000F03EFA35232C4AD35CDB075B
:102F700000D5FEE4D5E6294B06AA5B194B44303355
:102F80001B7902329B07DB0F91E7511C994200DA53
:102F900069E69B1A234D5B01ED18ABE7FFF7E0FBF9
:102FA00002211E4B5B194B4430331A798A43414648
:102FB0001A711A798A431A71C8E706AB9A1C08A9D4
:102FC00001233800157000F0A9F9D2E4194B2A69E1
:102FD0009A4200D1B6E0114AB378944663441A7914
:102FE000FF2A00D03CE61F71049D3B002A003100FF
:102FF000114800F061FFAC46094B029A1B78664409
:1030000001339A4200DD2BE6039BB34200D9DBE695
:103010004746FFF70DFC84E6904A0010A4140020F8
:10302000851D0020144B0010F4120020B84A001037
:103030004411002089370010B8140020FFF7FAFB74
:103040006FE600213800FFF7BBFA3800FFF758FBA6
:103050003E4B3F4D9B783F49019388460023290012
:103060002A7889461D0011E0424612686B01944699
:103070006344002B22D0DB68380098474B461A780F
:103080000135EDB2511C2B008D4207DC9542EBD38C
:103090009B1A314A5B0194466344ECE754220021B9
:1030A0002A48FEF7A1FC294B1022FF21181DFEF72C
:1030B0009BFC2022FF212948FEF796FC234B019A16
:1030C0009A704EE6FEF78AFE021E00D1CBE5C37869
:1030D00081781B020B43380008A900F01FF9D3E5E3
:1030E000FFF7A2FB021E00D1BDE5137808A9380046
:1030F00000F014F9C8E5022B19D0FFF797FB002860
:1031000000D1B0E5C37882781B02134308A90200FE
:10311000380000F003F9B7E5FFF7AEF8021E00D162
:10312000A1E5122308A9380000F0F8F8ACE5FFF794
:10313000A7F80028E6D196E52189FFF7A5F8021E39
:10314000D3D190E5059B019372E5C046A4140020FD
:10315000851D0020F4120020144B0010B81400202C
:10316000F8B557464E46DE4645460C00E0B516001B
:103170001F00002A4BD04B78052B08D1CB789B073A
:103180009B0FBB4203D170228B781A4206D00020DD
:103190003CBC90469946A246AB46F8BD1D4B002567
:1031A0009B461B7899461C4B9A467023984602E032
:1031B0005B461B78994653462000997800F042FE02
:1031C0000028E4D021004846FFF716FA0028DED098
:1031D000A378DA09012A13D00A9A013513702378EB
:1031E000E418B54213DA6378052BD0D1E3789B0756
:1031F0009B0FBB42CBD14246A3781A42C7D1D7E737
:103200000B9A013513702378E418B542EBDB0120EB
:10321000BEE7C04644110020A4140020702270B5FF
:103220008B780C001A4201D0002070BD064B2000A4
:103230001D78064B997800F005FE0028F4D0210097
:103240002800FFF7D9F9F0E744110020A41400206A
:103250007F20074B0840C9091A680B0010B53433AA
:103260004000C018034B1100181800F0A9FD10BD54
:10327000F8140020A41400207F20074B0840C9093F
:103280001A680B0010B534334000C018034B11000E
:10329000181800F0BBFD10BDF8140020A414002085
:1032A00070B57F240C4060000E4CCD0924186419C1
:1032B000303425790020ED0700D570BD0126257931
:1032C0000948354300782571FFF71EFA0028F4D12C
:1032D000012223799343237123790332934323718A
:1032E000EBE7C046A41400204411002070B50A4C3E
:1032F0000600082220000D00FEF77CFB0021695625
:103300000023C943C90F3000E360C9010022A36054
:10331000FFF7C6FF70BDC04684140020F0B5C64656
:103320009046294C082200B5060020000D001F0021
:10333000FEF760FB4346A3600023E381EB79AA79A3
:103340001B0213431A1CBB4200D93A1C97B2A2813C
:10335000002B12D0002F1DD04346002B31D03B1C38
:10336000402F1DD89FB223787F2B1ED80021174AEB
:103370003B003000FFF794FF09E00021695600236D
:10338000C943C90FC90100223000FFF789FF04BCFF
:103390009046F0BD23787F2B10D980210022E7E7EB
:1033A00040239FB223787F2BE0D9084C3A00414656
:1033B0002000FEF71FFB80212200D9E70021002218
:1033C000D6E70020E3E7C046841400204414002020
:1033D00010B5142200210248FEF706FB10BDC046BE
:1033E00084140020014B18617047C04684140020EB
:1033F00010B5054C010008222000FEF7FBFA00235F
:10340000A360E36010BDC04684140020F8B5394CB9
:103410001D0023780600DA09C9098A4210D000206D
:10342000002D00D0F8BD21003000FFF7D7F8236948
:10343000002B41D022000321300098470120F1E702
:10344000A0687F2B06D8002838D02A002A49FEF72A
:10345000D1FAA068E289E388521992B24019E28158
:10346000A060934214D03F2D12D9A589A91A0F1C30
:1034700089B240292ED82378BFB27F2B2CD80021C7
:10348000AA4235D01C4A3B003000FFF709FFC9E7CC
:103490002369002B05D02200022130009847002824
:1034A0000ED0002161560023C943C90FC901002273
:1034B0003000FFF7F5FEB5E70120B3E70020B1E7E4
:1034C00000213000FFF732F930008021FFF72EF99C
:1034D0000120A7E74027CEE78021AA4208D0064C6A
:1034E00001003A002000FEF785FA80212200CAE799
:1034F0000022C8E7841400204414002010B5040002
:10350000FFF79EF9002801D1002010BDFFF7A0F9B8
:103510000028F9D1C830444302480019037901203A
:103520001840F2E77C130020C823584310B5034B22
:103530001030C01800F018FE10BDC0467C130020EB
:10354000F0B5C824C64644431E4F1F4B103400B587
:1035500006003C199A4200D91C4A92B2200000F0A1
:1035600085FE8046FFF76CF9002803D1404604BC75
:103570009046F0BDFFF76CF90028F7D1C8257543D8
:103580007D19EB78002BF1D0200000F009FE3F28D8
:10359000ECD9E9780020FFF75BFE0028E6D0200098
:1035A00000F0FEFD3F2808D9094AF601B218E97873
:1035B00040230020FFF774FED8E7E9780020FFF7EA
:1035C0005BFED3E77C130020FEFF0000FFFF00003E
:1035D000F8120020F8B50400FFF732F9002801D1F5
:1035E0000020F8BDFFF734F90028F9D1C82565435C
:1035F0002E00144F2436F619300000F0B5FD0028D7
:10360000EED07D19A9780020FFF722FE0028E7D030
:10361000E401403427000C4C40223F1939003000AF
:1036200000F024FEA978041E08D003003A00002010
:10363000FFF736FE0028D3D02000D2E70020FFF7A6
:103640001BFECDE77C130020F812002070B5C824C3
:1036500044430C4B2434E4180B4B05009A4200D928
:103660000A4A92B2200000F0BFFE0600200000F0DF
:103670007BFD3F2801D8300070BD2800FFF7AAFF6E
:10368000F9E7C0467C130020FEFF0000FFFF0000AA
:10369000C823584310B5034B2430C01800F080FDF8
:1036A00010BDC0467C130020F0B50025184C83B037
:1036B000C82200212000FEF797F9164B21001D704B
:1036C000FF236371E1235B02A360200008233831EC
:1036D000A37340220095073B103000F007FD270040
:1036E0000123210020002600783100934022B837C2
:1036F000243000F0FBFCC0363800FDF741F9300003
:10370000FDF73EF9E56127622663656303B0F0BD0E
:103710007C13002078130020074B1A6A196B002ACB
:1037200002D00022DA611A62002902D000221A6354
:103730005A6301207047C0467C13002070B50F4CBF
:10374000052200212000FEF74FF90D4D2B78DA07F6
:1037500007D50C4C9B070CD50121200000F014FF6D
:1037600070BD2000103000F0EFFE2B78054C9B0759
:10377000F2D4200000F0E8FEEEE7C0467C13002003
:1037800078130020A0130020F0B5C64600B54B7991
:1037900082B00600022B02D18B79022B05D00025C6
:1037A000280002B004BC9046F0BD344FBB78002B1B
:1037B000F5D18B7809253B700C780C196378242B94
:1037C0000BD1082A02D80FE0AA420DD32378E418BF
:1037D000ED186378ADB2242BF6D0052B28D0042B3E
:1037E00002D163790A2B31D0FFF72AF80028D7D00D
:1037F000FFF72EF80028D3D1FB78002BD0D03C0067
:103800001034200000F0CCFC3F28C9D9F978002002
:10381000FFF71EFD0028C3D0200000F0C1FCF9789E
:103820003F2826D94023164A0020FFF739FDB7E785
:1038300021003000FFF7F2FC0028B0D0A3787B70A5
:103840002378ED18E418ADB26378C8E72378210037
:1038500098460C4B4144019301330093022202230A
:103860003000FFF77DFC002899D00E354544ADB2FD
:10387000BAE70020FFF700FD92E7C0467C13002066
:10388000F81200207E130020F8B56023140012788F
:1038900013400022202B07D12E4D637927792E78F3
:1038A0001B023B439E4201D01000F8BD6378212BE0
:1038B00036D009D9222B17D0232BF5D1012944D09A
:1038C000032936D00122EFE7202BEDD1012929D0A1
:1038D0000329F7D1204B002BF4D029000020083118
:1038E000FEF7A0FA0122DFE701292ED00329E9D152
:1038F0000126A178E478280024020C4331002C71C1
:10390000A143243000F040FE144B002BDAD03100EC
:10391000620832402140002000E000BF0122C3E7DE
:103920000129CFD10E4A07232100FFF7F7FC01221E
:10393000BAE70C4B002BC5D0E178A37809021943F4
:10394000002000E000BF0122AEE72100FFF7CEFC1F
:103950000122A9E77C130020251E001000000000B2
:103960008413002000000000F0B545465746DE46AF
:103970004E46E0B55F4C1F00E37883B080460D00F3
:103980008B4263D15C4BBAB29B4610239A46A24449
:103990005946504600F028FD584B002B1AD0637949
:1039A000FF2B17D0002F15D0B9465E46D94401949D
:1039B00003E001364E450DD0637932789A42F8D152
:1039C000504600F0E5FB0028F3D1019B597900E057
:1039D00000BFEEE74A4B002B05D04A4800F0D8FB69
:1039E000002800D17BE0FEF72BFF002856D1A378FA
:1039F0009D4208D00124200003B03CBC904699466B
:103A0000A246AB46F0BD404B002B02D0002000E0A8
:103A100000BFFEF715FF00281DD13C4C200000F030
:103A2000A3FB0028E6D1002FE4D0BB06E2D1243C62
:103A3000A1784046FFF70CFC2500041EDAD0A978D7
:103A4000002300224046FFF72BFCD4E7A3788B42EB
:103A5000D9D00024CFE7FEF7FBFE2C4C0028DDD1A7
:103A6000200000F081FB0028D8D02500243DA97853
:103A70000020FFF7EDFB0028D0D0254E402231007A
:103A8000200000F0F3FBA97800282BD003003200BF
:103A90000020FFF705FC0028ACD1BFE7FEF7D8FEF9
:103AA0000028A4D1E378002BA1D0260010363000E6
:103AB00000F076FB3F289AD9E1780020FFF7C8FB99
:103AC000002894D0300000F06BFBE1783F280DD93E
:103AD00040235A460020FFF7E3FBA37888E700E085
:103AE00000BF80E70020FFF7C7FB97E70020FFF744
:103AF000C3FB7CE77C130020F812002000000000CC
:103B0000000000008C13002000000000A013002023
:103B1000381300209322F0B5134C85B09200002199
:103B20002000FDF761FF23002000802640270F4D75
:103B30004D337600FF3329300295009303970196A9
:103B4000002300220021FF3000F0D0F94035201D75
:103B50002834039702950196009400230122002146
:103B600000F0C4F905B0F0BD80150020001500205C
:103B700010B5054C200000F0EDF920002538FF3885
:103B800000F0E8F9012010BDA816002070B5084C1F
:103B90000025200031302570FF3000F0D5FC2000DA
:103BA0000C3000F0D1FC2A23FF33E554657170BD61
:103BB00080150020F8B54E464546DE465746E0B52E
:103BC0004B7981468846FF2B25D12A23414FFF336D
:103BD0000C78FE5C7B794444A5181E431BD18B787E
:103BE0003B700B79002B12D098235B009A46253B43
:103BF000FF3B9B46BA44BB446378052B05D111E0DB
:103C00002378E4186378052B0CD0A542F8D84346F6
:103C1000E41AA0B200E000203CBC90469946A246BF
:103C2000AB46F8BDA542F2D921004846FFF7F6FAA7
:103C30000028F0D0A3780136F6B2DB09012B2AD098
:103C4000504600F081FC2A23A278FF33FA546379AE
:103C500022791B021343204A5B05944694215B0D95
:103C600063445A425341022049007A5C5B0082431C
:103C700013437B5451464846083900F0CBF90028DD
:103C8000C9D02378E41843461B79B342B4D84346DD
:103C9000E41AA0B2C0E7584600F056FC5A46A37892
:103CA0000C3A5371637921791B020B430A495B0576
:103CB0008C465B0D634459424B41022011795B00F5
:103CC00081430B43594613710839002000F070F905
:103CD000D7E7C0468015002000FEFFFFF8B51D00A5
:103CE0002A2306001E48FF33C35C8B421CD19A2353
:103CF0005B00C35A002B0ED11A4B002B04D0AAB282
:103D00001949002000E000BF1849300000F082F996
:103D100001242000F8BD96235B00C1583130AAB2BF
:103D2000FF3000F061FBE7E743798B4201D00024CC
:103D3000EFE70F4B002B04D02904090C002000E012
:103D400000BF0C4F3000390000F032F90124002888
:103D5000DFD12A003900300000F0FEF8D9E7C04674
:103D6000801500200000000000150020A81600208B
:103D7000000000008415002000B5030083B0002976
:103D800010D00020012B07D80A78002A04D00B4855
:103D9000C2540120012A01D003B000BD1800FEF773
:103DA0005FFDF9E7012301A90B800020FEF758FD14
:103DB0000028F1D00122014B1A70EDE79814002081
:103DC00070B504780500E4070E00E40F16D10378FF
:103DD0005B0701D5200070BD01213000494200F091
:103DE00057FC2C78E407E40F0AD12B785B0708D442
:103DF00004222B78012413432B7002E00024E9E70E
:103E00000024300000F024FCE4E7C04670B50E004A
:103E1000012105004942300000F03AFC2C7864078B
:103E2000E40F012C04D0300000F012FC200070BD23
:103E30002B78DB0704D404222B7893432B70F2E712
:103E40000024F0E7437902791B0213435B055A0D06
:103E5000C3789B079B0F022B0DD014D80020012B99
:103E600008D102394B425941114B9C466144914261
:103E70004041C0B27047022912D000204023934233
:103E80004041C0B2F6E702394B425941F0230020CD
:103E900049429B001940403191424041C0B2E9E79C
:103EA000044B9C46624450425041C0B2E2E7C046D7
:103EB000FF03000000FEFFFF8A1870B5914207D291
:103EC0007F264C78052C04D00C7809198A42F8D842
:103ED00070BD34008D782C4064000419ED096355E1
:103EE0000C7809198A42ECD8F2E7C046F0B5C6460C
:103EF00000B582B0904608AA20CA040016880BAA12
:103F0000012017880A0021780240814320001143D4
:103F100021700093083001233200290000F0E6F8F8
:103F2000002D01D0002E07D101200A9B678063601D
:103F300002B004BC9046F0BD25001C352800FCF7FB
:103F40001FFD42460023002A01D02B00002563619B
:103F5000A561E9E701207047F8B5E02307000800F4
:103F60000C785B00A407E4171C4008300D00160015
:103F70003F3400F0F9F8002807D1002E05D0344274
:103F800003D101242B781C4201D00020F8BD6978B0
:103F90003800FFF75DF90028F7D02B781C42F4D1E8
:103FA0006978002300223800FFF77AF9EEE7C0466F
:103FB000F8B50D000835070028000C0000F0D4F813
:103FC000002803D0012623781E4201D00020F8BD2E
:103FD00061783800FFF73CF90028F7D028006288A4
:103FE000616800F043F92378051E0BD01E42EDD125
:103FF0000300626861783800FFF752F90028E5D0C5
:104000002800E4E71E42E1D161783800FFF734F977
:10401000DCE7C046F8B5CE46474680B58A8906003B
:104020000C000B78002A07D101251D4240D000204A
:104030000CBC90469946F8BD9B0734D440235B42A4
:104040009946402527000837380000F0A9F8A84213
:10405000EDD30122237890461A42E8D161783000EE
:10406000FFF7F6F80028E2D0380000F099F823783E
:104070004246854231D81A42D9D14B46184063880E
:10408000051C80B2984200D91D1CADB26178002297
:10409000002D00D062682B003000FFF701F90028E6
:1040A000C5D02800C4E780250F4BAD009946C9E76D
:1040B0004978FFF7CDF80028B9D023781D42B6D152
:1040C000638861780022002B00D062683000FFF71F
:1040D000E7F80028ABD06088AAE71A42A7D1617838
:1040E0003000FFF7C9F8A2E700FEFFFFF0B5C646B3
:1040F00000B51D0006AB1E7880230400884617001B
:104100001B029A422ED8C068002803D001214942E0
:1041100000F0BEFA2069002803D00121494200F0D6
:10412000B7FA43462360E3886D04DB0B6D0CDB03B9
:104130002B43E3805B04F6015B0E3343E371002302
:10414000E0686381A7802381002801D000F080FA15
:1041500020690124002801D000F07AFA200004BC74
:104160009046F0BD0024F9E7038942899BB292B2E0
:104170008188934207D39B1A9BB2081C994200D9AD
:10418000181C80B270474800821A9B189BB2F4E753
:1041900003894089181A43425841C0B27047C0464B
:1041A000038942899BB292B28188934207D39B1ABA
:1041B0009BB20020994201D9CB1A98B270474800AF
:1041C000821A9B189BB2F4E770B5040000690D00D9
:1041D000002803D00121494200F05AFA2089618960
:1041E00080B289B2A388884230D25A00521A82180B
:1041F00092B2002A2ED0934208D2984231D3C11AEB
:1042000089B261818B4203D8C91A89B28B42FBD92A
:104210002368E2889C465204520C514328006144B2
:10422000FDF7E8FB6189A38889B24A1C92B2012597
:10423000914212D900225B00D21A92B220696281A7
:10424000002801D000F004FA280070BD421A92B292
:10425000002AD0D10025628992B25B009A42EDDB40
:10426000EAE7C01881B26181CCE7C046F0B54646A6
:104270004F46D646C0B506000069884691460028DC
:1042800003D00121494200F003FA338974899BB2BB
:10429000A4B2B788A3424CD27D002D1B5D19ADB2EC
:1042A000002D4AD0AF4205D2BB4254D2DB199CB29A
:1042B0003D0074814B46A9454BD89DB2A74203D817
:1042C000E41BA4B2A742FBD9F288381B5204530C5A
:1042D00019009946336861439C4680B26144A84204
:1042E00031D24B46584383B21A0040469A46FDF7F6
:1042F00081FB4B464046EF1BE4195C435044A2B29D
:104300003168FDF777FB7289B78892B253199BB277
:1043100079009A4213D95B1A9BB2306973810028E5
:1043200001D000F095F928001CBC90469946A246A1
:10433000F0BD1D1BADB2002DB4D173899BB27900C5
:104340008B42EADBE7E74A4640466A43FDF752FB09
:10435000D9E72B1CB1E7DC1BA4B2A9E7F8B5040030
:10436000C0680E00002803D00121494200F090F9F6
:1043700025892289618992B289B2ADB2A3888A4225
:104380002CD3521A92B2934209D8E779FF0906D189
:10439000E068002801D000F05BF93800F8BD280083
:1043A0009D4203D3C01A80B29842FBD22368E288B0
:1043B0009C465204520C504331006044FDF71AFBF6
:1043C000A2886B1C9BB252009D4204D99B1A9BB2DF
:1043D00023810127DCE79342FADBF7E75800411A13
:1043E000521892B2CFE7C046F0B5DE464546574672
:1043F0004E46E0B58B4683B00500141E6CD0C068F5
:10440000002803D00121494200F042F92F89EA79BE
:104410006B89BFB29BB2AE88D20941D19F4265D2AF
:104420007200D31AFB189BB200229046B34231D2DD
:10443000F31A1A1C9BB2A34200D9221C93B29846CD
:10444000E9884346FB189BB2490499464B0C9A46AF
:104450003C00BE4203D8A41BA4B2B442FBD25046D7
:104460002B6860439C46311B89B26044414549D367
:104470005246434659465A43FDF7BCFAAB885B00A7
:10448000B94501D3994503DB4A46D31A9BB29946F5
:104490004B462B81E868002820D000F0D9F81DE0B9
:1044A000E9884A04520C9246B44222D29F423ED33B
:1044B000FA1A92B2710012198A4208DB9A1992B262
:1044C000171BBFB29146BB4239D97F1ABFB2E3195D
:1044D0009BB29946A046BBE700239846404603B0EE
:1044E0003CBC90469946A246AB46F0BDFB1A9BB237
:1044F0009AE75046A21B50438344002E1CD1002350
:104500009846C7E7534659438BB21A005946019360
:10451000FDF770FA42465146921BA2184A43019B8E
:1045200092B25B4419002868FDF764FAA6E77100AF
:10453000CA1ABA1892B2BEE71F00B04681E7A04679
:10454000B94200DD84E7C0E710B50400C068002868
:1045500003D00121494200F09BF82069002803D0D4
:104560000121494200F094F80023E068638123812F
:10457000002801D000F06CF82069002801D000F07C
:1045800067F8012010BDC04670B50400C0680D007A
:10459000002803D00121494200F07AF82069002860
:1045A00003D00121494200F073F87F21E379ED0146
:1045B0001940E0682943E171002801D000F048F873
:1045C0002069002801D000F043F8012070BDC046EA
:1045D00010B5830727D00378002B26D003000321D2
:1045E00002E01A78002A1CD001330B42F9D1196875
:1045F0000F4A104C8A188A4322420FD1043319689B
:104600000B4A8A188A43224208D104331968084A9F
:104610008A188A432242F1D000E001331A78002A36
:10462000FBD1181A10BD0300E1E70020FAE7C046ED
:10463000FFFEFEFE80808080F8B5C04600000000CE
:1046400001B40248844601BC604700BF3903002022
:1046500001B40248844601BC604700BF4902002003
:1046600001B40248844601BC604700BFFD0300203E
:1046700001B40248844601BC604700BFF90F002026
:1046800001B40248844601BC604700BFC10000205D
:1046900001B40248844601BC604700BFB901002054
:1046A00001B40248844601BC604700BF09010020F4
:1046B00001B40248844601BC604700BF590D002088
:1046C00001B40248844601BC604700BF9D0C002035
:1046D00001B40248844601BC604700BFFD0C0020C5
:1046E00001B40248844601BC604700BF090D0020A8
:1046F00001B40248844601BC604700BFC50C0020DD
:10470000AD150010D9150010C1170010D9190010EF
:104710001D18001045190010E9160010F5150010BD
:104720001516001029160010190900103116001076
:10473000190D0010751500107D050010F9220010EC
:04474000FD02001066
:104744000A2A2A2A2050414E4943202A2A2A0A00AA
:104754000A0000004E6F207370696E6C6F636B7398
:104764002061726520617661696C61626C6500002C
:104774004E6F2075736572204952517320617265C2
:1047840020617661696C61626C65000048617264E5
:104794007761726520616C61726D20256420616CA3
:1047A400726561647920636C61696D656400000001
:1047B400486172642061737365727400050052501D
:1047C400DE65F468045C0010060052505422A29D79
:1047D4004848001006005250861C03023C48001052
:1047E40006005250BBFF3CB634480010060052503D
:1047F400ABB360532C48001006005250E182887F0E
:104804001C48001006005250D3F0754214480010A2
:1048140052656C6561736500626F6F74325F7732E5
:104824003571303830000000322E322E3000000056
:104834007069636F00000000427574746F6E5344B6
:104844004B0000004F637420323320323032350085
:104854000D0A000000000000411D001000000000CF
:10486400451D0010511D00107D1D0010791D001004
:1048740000000000050F2100011C100500DF60DDB1
:10488400D88945C74C9CD2659D9E648A9F000003CD
:1048940006A60001000000000A0000000000030654
:1048A400A6000800020002009C00140003005749FF
:1048B4004E5553420000000000000000000080003C
:1048C40004000100280044006500760069006300CC
:1048D400650049006E0074006500720066006100A6
:1048E40063006500470055004900440000004E0085
:1048F4007B00620063003700330039003800630036
:1049040031002D0037003300630064002D003400B3
:104914006300620037002D0039003800620038005F
:104924002D00390031003300610038006600630057
:10493400610037006200660036007D000000000060
:104944000600525053B4F4A150490010555342206C
:10495400737464696E202F207374646F757400001F
:1049640052617370626572727920506900000000B0
:104974005069636F00000000426F61726420434419
:10498400430000005265736574000000090254007E
:10499400030100807D080B000202020000090400EC
:1049A4000001020200040524002001052401000185
:1049B40004240206052406000107058103080010EB
:1049C40009040100020A0000000705020240000079
:1049D400070582024000000904020000FF000105EF
:1049E40012011002EF0201408A2E0A0000010102A6
:1049F4000301000000000000644900107449001025
:104A0400741D00207C49001088490010556E6861AF
:104A14006E646C65642049525120307825780A0010
:104A2400657020253032582077617320616C72657F
:104A340061647920617661696C61626C6500000073
:104A440043616E277420636F6E74696E7565207898
:104A5400666572206F6E20696E6163746976652085
:104A6400657020253032580072290010142B001074
:104A7400562B0010EC2A0010FE2A0010DC2A00102D
:104A8400122A0010C2290010B62900109A2E001014
:104A9400842E0010662C0010BC2E0010662C001012
:104AA400682E0010542E0010662C00103E2E0010AC
:104AB4004E2D0010662C001018310010F630001036
:104AC40038310010662C0010662C0010E030001005
:104AD400F6300010662C0010662C0010662C0010B6
:104AE400662C0010662C0010662C0010662C00103A
:104AF400C4300010300E0020300E0020860E00203E
:104B0400A60E0020200E0020BA0F00207A0E0020EE
:104B140000000000A9360010193700103D370010BE
:104B2400893700108938001069390010000000002E
:104B340000000000153B0010713B00108D3B00107D
:104B4400B53B0010E51D0010DD3C00100000000026
:104B5400C0470010CC470010D8470010E4470010AD
:104B6400F0470010FC4700100848001044490010AA
:104B7400030010B50068EFF3108472B60268002ACF
:104B8400FCD0BFF35F8F04229A56002A0BDB002966
:104B94000FD000200A601B68BFF35F8F00221A60E9
:104BA40084F3108810BDD0221206126801201A71F5
:104BB400F1E70020EFE7C046F0B5C6461F0000B598
:104BC400040016000368EFF3108272B61968002916
:104BD400FCD0BFF35F8F0423E356002B36DB216840
:104BE400BFF35F8F0020086082F31088D022002575
:104BF400120655579D4203D1002004BC9046F0BDD7
:104C0400002398460CE02268BFF35F8F4146116091
:104C140083F310883000390000F07AFF0028EBD1CC
:104C24002268EFF3108372B611680029FCD0BFF339
:104C34005F8F22797F2AE6D925712268BFF35F8FBF
:104C44000021116083F310880120D6E7D0231B06CE
:104C54001B6823712368BFF35F8F0021196082F3FF
:104C640010880120C9E7C046F0B5C64600B50F005C
:104C7400060000F025FFFA2204000D009200002334
:104C84003800002100F014FF24184D41002D2CDBC6
:104C9400D0231B061B68002798460BE03268BFF33D
:104CA4005F8F176083F310882000290000F030FF25
:104CB400002818D13268EFF3108372B61168002906
:104CC400FCD0BFF35F8F32797F2AE7D94246327135
:104CD4003268BFF35F8F0021116083F310880120D5
:104CE40004BC9046F0BD0020FAE70124014D644263
:104CF400CEE7C046FFFFFF7F0268EFF3108172B674
:104D04001368002BFCD0BFF35F8FFF23037103688C
:104D1400BFF35F8F00221A6081F3108840BF704791
:104D240010B5084C2378002B0AD180230648074984
:104D34005B051A68C25004338B42FAD101232370F5
:104D440010BDC046881D0020CC17001000010010C3
:104D540010B5024B0133984710BDC046CC17002054
:104D6400074B5B680360074B5A6842609A6882602D
:104D7400DA68C2601A695B69026143617047C046C0
:104D840000000240040002400268074B5A60426877
:104D9400064B5A6082689A60C268DA6002691A61D6
:104DA40042695A617047C046000002400400024054
:104DB400054B1A6880239B005340C0229200134085
:104DC400024A13607047C0460C8001400C900140B9
:104DD400034B1A68C0239B009343024A1360704735
:104DE4000C8001400C900140F0B5D6464F46464633
:104DF4001423C0B51827984686B081460D0018883C
:104E040027493B8814009847434682462549188819
:104E14003B88984743462449060018883B889847AE
:104E24008046FFF77DFF6846FFF79AFFD047B047FB
:104E3400FFF7BEFF002C24D0C02022004005082626
:104E4400163F11E04B461B78013C036601239C4648
:104E5400E144002905D0002A03D0036E013A2B70E7
:104E64000135130023430CD03100836A19401F42DB
:104E7400EFD0002CEDD0131B0D2BE3D90029EAD180
:104E8400F2E7FFF7A5FFC047FFF762FF6846FFF7A9
:104E94007BFF06B01CBC90469946A246F0BDC046B6
:104EA40049460000455800004643000000231C4AC0
:104EB40010B59360D3601B4A00219360D3601A4AF3
:104EC4001A489360D3601A4A9360D360194A936076
:104ED400D360194A9360D360184A9360D360184A28
:104EE4009360D360174A9360D360174A9360D3608A
:104EF400164A9360D360164A9360D360154A936050
:104F0400D360154A9360D360144A9360D360F0224F
:104F1400920000F0F5FD124B124A1A6010BDC04613
:104F24000000105008001050100010507819002094
:104F3400180010502000105028001050300010505D
:104F440038001050400010504800105050001050CD
:104F5400580010506000105068001050700010503D
:104F6400401D002080011050F0B54F46D6464646FD
:104F7400C0B5204B84B09F6D002F23D01E4B00245E
:104F84009A46012399461D4B0126984604E00134B4
:104F94007600E4B2202C15D03E42F8D053469E65EC
:104FA4004B4665086D00A343ED186D014544280088
:104FB40000F060FC00280BD10134B743E4B2760062
:104FC400002FE7D104B01CBC90469946A246F0BD20
:104FD400EB8AE02101A883600023AA78C90001803C
:104FE40001210271437100F065FC280000F0DEFB32
:104FF400E2E7C0460000115000301150381900207B
:105004009823F0B58025C54AAD02D65885B0354001
:105014001024002D73D0C24BC24C9A6AC24B002597
:105024001A603B23E35C022B00D11BE17B23E35C8E
:10503400022B00D127E1BB23E35C022B00D134E136
:10504400FB23E35C022B00D141E13C23FF33E35C0F
:10505400022B00D14DE17C23FF33E35C022B00D112
:1050640082E1BC23FF33E35C022B00D191E1FC23FA
:10507400FF33E35C022B00D1A0E1AC4BE35C022BD9
:1050840000D1B0E1AA4BE35C022B00D1BFE1A94BF4
:10509400E35C022B00D1CEE1A74BE35C022B00D1F1
:1050A400DDE1A64BE35C022B00D1ECE1A44BE35C15
:1050B400022B00D1BCE0A34BE35C022B00D107E23E
:1050C400A14BE35C022B00D119E2002D08D19F4BC8
:1050D4001B78002B04D180219D4A90338902D15042
:1050E400C0228E4B01A89B6C92005B055B0D028075
:1050F40001218025436000F0DDFB964CAD02F306F0
:1051040000D591E080235B021E4232D0854C1D43C2
:10511400A37E002B15D000F0E3FC012800D9CEE1DA
:10512400C02200219201200000F046FB200000F084
:105134003DFB00F0D5FC012803D90222844B5A66BA
:105144001A6601273A23E770E35C002B22D123235C
:105154000122E254C02301A8DB007F4A038002AB92
:1051640012CA12C3012100F0A5FB8022784B9202DF
:105174001A6580235B011E4224D18023DB011E4279
:1051840036D180231B021E4241D1B54200D0D0E16A
:1051940005B0F0BD00F0A4FC012800D987E1C022CD
:1051A4006E4F92010021380000F006FB380000F039
:1051B400FDFA00F095FC0128C9D90122644B5A6616
:1051C4001A66C4E700241D43544B1C60FFF76EFEAF
:1051D400802301A85B0003800121047100F06AFBB5
:1051E40080225B4B12031A658023DB011E42C8D068
:1051F4001D43802301A8DB000380012100F05AFB3A
:105204001022534B1A6580231B021E42BDD01D433E
:10521400A02301A8DB000380012100F04BFB8022C6
:105224004B4B12011A65B0E7FFF79EFE250069E7B4
:105234004B4BE75C002F00D13DE70233E25C002AD0
:1052440000D06EE13F4BE35C022B00D13FE13E4BCB
:10525400E35C022B00D043E7424BE35C002B00D11C
:105264003EE751E13833E55C002D00D1DEE6023340
:10527400E25C002A00D1D9E600222000E25420306A
:1052840000F0C2FAD2E67833E35C002B00D1D2E618
:105294007C22A15C1D00002900D1CCE60023200063
:1052A400A354603000F0B0FAC5E6B833E35C002BD9
:1052B40000D1C5E6BC22A15C1D00002900D1BFE6D7
:1052C40000232000A354A03000F09EFAB8E6F8337F
:1052D400E35C002B00D1B8E6FC22A15C1D00002990
:1052E40000D1B2E600232000A354E03000F08CFA91
:1052F400ABE63933FF33E35C002B00D1ABE69E22EF
:105304005200A15C1D00002900D1A4E62000002366
:105314002130A354FF3000F077FA9CE600001150CE
:105324000040054038190020301900203B020000DD
:105334007B020000BB020000FB0200003B030000F4
:105344007B030000BB030000FB030000861D00205C
:1053540000301150100002000000105058190020B5
:105364007A030000FA0300007933FF33E35C002B77
:1053740000D176E6BE225200A15C1D00002900D1B6
:105384006FE6200000236130A354FF3000F03CFAA4
:1053940067E6B933FF33E35C002B00D167E6DE2216
:1053A4005200A15C1D00002900D160E6200000230A
:1053B400A130A354FF3000F027FA58E6F933FF3345
:1053C400E35C002B00D158E6FE225200A15C1D00D4
:1053D400002900D151E620000023E130A354FF301E
:1053E40000F012FA49E6554BE35C002B00D149E684
:1053F4008F229200A15C1D00002900D142E6002307
:10540400A35488239B00E01800F0FEF93AE64C4BC5
:10541400E35C002B00D13AE69F229200A15C1D00C0
:10542400002900D133E60023A35498239B00E018FD
:1054340000F0EAF92BE6434BE35C002B00D12BE6AA
:10544400AF229200A15C1D00002900D124E60023B4
:10545400A354A8239B00E01800F0D6F91CE63A4BAD
:10546400E35C002B00D11CE6BF229200A15C1D006E
:10547400002900D115E60023A354B8239B00E018AB
:1054840000F0C2F90DE6314BE35C002B00D10DE6D0
:10549400CF229200A15C1D00002900D106E6002362
:1054A400A354C8239B00E01800F0AEF9FEE50122E6
:1054B400274B28491F664B6E1A42FCD06FE6022226
:1054C400234B24491A664B6E1A42FCD028E63D0051
:1054D400214BE35C002B00D1F2E5EF239B00E25C5F
:1054E400002A00D1B3E60022E2541C3BE01800F08D
:1054F4008BF91A4BE35C022B00D0F1E5ACE6184BB8
:10550400E35C002B00D1E0E5FF239B00E25C002A72
:1055140000D1E5E50022E2541C3BE01800F074F9E8
:10552400DEE50022E254D8239B00E01800F06CF979
:1055340088E629000B48714000F0CAFA3A020000DC
:105544007A020000BA020000FA0200003A030000E6
:105554000020115000001150BA030000FB030000AA
:10556400FA030000104A0010F0B5D6464F464646EE
:105574000300C0B51C8B808A8A46221C844200D951
:10558400021C802692B2801ADD7884B2F6009C82D6
:105594001643002D02D09026B601164301277D4004
:1055A400DD705D783000002D47D15146D8688901FF
:1055B40089468446511ECC441F698846002A37D048
:1055C4004C462900043400198742694108006146A9
:1055D4003C1DA1426D4105430820404580414042A5
:1055E400284238D060463843810734D1151FAD08AE
:1055F400691C89460020002461463D5801340D5041
:105604000430A145F8D849468D0061464C194146FD
:105614007F19481BAA4209D03D782570002805D07F
:105624007D786570012801D0B878A0701F699C8AC4
:105634008020BA1800021A613043002C02D1802362
:10564400DB0118435346002B00D000041CBC9046D9
:105654009946A246F0BD002061463C5C0C540130E2
:105664008242F9D1E2E7C0468368F0B506001868C3
:10567400002900D0000C73788005800D002B08D120
:10568400F38AC318F382338B834201D90023B38294
:10569400F0BDF3688901441E32695D18A4460028F0
:1056A40032D00431591800231C008A425C41210085
:1056B400141DA5425B4114000B4303212C432140DC
:1056C4004C426141194225D06346082B22D900235C
:1056D4000021041FA4080134EF580131D7500433CA
:1056E4008C42F9D86346A4002D1912191F1BA0423D
:1056F40009D02B781370002F05D06B785370012FCD
:1057040001D0AB7893703269F38A1218C318F3820C
:105714003261B8E70023E95CD15401339842FAD1ED
:105724003269F1E710B50400836800211B68FFF7B4
:105734009BFF63681B685B0002D5238B834200D008
:1057440010BD01212000FFF78FFFF9E7084B1A6C09
:105754000023920703D40278D209012A01D0180049
:1057640070470B78023B58424341DBB2F7E7C0462F
:1057740000001150010010B51B310230FFF7E6FFA5
:1057840000280CD00649074B8C46074A9B6A1268CE
:1057940063449B1A0020C6229A424041C0B210BD05
:1057A400E0FCFFFF00400540301900200023837611
:1057B400436103617047C04610B58368002901D076
:1057C4001C682140002A12D08024E40011432242A4
:1057D4000DD01A6822420CD1084A0A401A60084ABD
:1057E400126C920703D40C23033BFDD28368196027
:1057F40010BD8178034800F06BF9C046FFFBFFFF42
:1058040000001150244A0010436870B5002180251F
:105814001E680400FFF7A8FE134B6D011B6C0543C3
:105824009B070FD5A3785B060FD0104B1E40802337
:105834009B05334362680021136020002A00FFF7B0
:10584400BBFF70BDA378DB09EFD0A38A002BECD09B
:1058540001212000FFF788FEA023054ADB05324022
:1058640005431343E6E7C04600001150FFFFFFAFB6
:10587400FFFFFFDF70B5857E0400002D13D0FFF716
:1058840051FFA38A002B01D1280070BD2000FFF72F
:1058940071FF051E03D0012300252377F4E72000C0
:1058A400FFF7B2FFF0E78178014800F011F9C04634
:1058B400444A0010F0B5CE46474680B5437885B0DB
:1058C40005000E00062B0BD8704A9B00D3589F4648
:1058D4006F4B1A78D2071DD504211A780A431A701F
:1058E4006C4B1C686269EFF3108172B61368002B6D
:1058F400FCD0BFF35F8FA1612000290000F0F8F80D
:105904006269A369BFF35F8F0021116083F310887C
:10591400002804D105B00CBC90469946F0BD6978C6
:105924002878320000F0FCF8F4E75B4A137801337E
:10593400DBB21370D4E70121554B1A788A431A70ED
:105944001A7801318A431A7000225A701A78023187
:105954008A431A70C4E75149514F894651493A78EC
:105964000024002388460CE04146096863018C4604
:105974006344002B0AD10134E4B2511C2300A14238
:1059840011DBA242F0D89B1A5B014B44DB69002B6C
:10599400F1D06968287898473A780134E4B2511C08
:1059A4002300A142EDDA3A4F3B785B072BD5042262
:1059B4003B78002193433B706B460632981D00F000
:1059C4009FF82B7801AC237005236370314B1B685F
:1059D40098465A69EFF3108172B61368002BFCD015
:1059E400BFF35F8F434640469961210000F080F881
:1059F40043465A699B69BFF35F8F0021116083F3AB
:105A0400108800283BD1FB78DB0700D482E76B4683
:105A14000A220021981D00F073F82B7801AC237042
:105A2400032363706B6863601A4B1D686A69EFF344
:105A3400108172B61368002BFCD0BFF35F8FA9618D
:105A44002800210000F054F86A69AB69BFF35F8F46
:105A54000021116083F31088002800D15AE761788F
:105A64002078320000F05CF854E7094B1A78D2072A
:105A740000D44FE704211A788A431A7030E761781A
:105A84002078320000F04CF8BDE7C046F84A001018
:105A9400A4140020FC140020871D0020144B0010C7
:105AA400851D0020F41200207047C046000000004D
:105AB40001B40248844601BC604700BF11190010BC
:105AC40001B40248844601BC604700BF0D110010B8
