:020000041000EA
:1000000000B5324B212058609868022188439860DF
:10001000D860186158612E4B002199600221596106
:100020000121F02299502B49196001219960352056
:1000300000F044F80222904214D00621196600F024
:1000400034F8196E01211966002018661A6600F04E
:100050002CF8196E196E196E052000F02FF8012189
:100060000842F9D1002199601B49196000215960AB
:100070001A491B48016001219960EB211966A021F2
:10008000196600F012F800219960164914480160C1
:100090000121996001BC002800D000471248134993
:1000A000086003C880F30888084703B5996A0420EC
:1000B0000142FBD001200142F8D103BD02B5186610
:1000C0001866FFF7F2FF186E186E02BD00000240BE
:1000D000000000180000070000035F00212200005C
:1000E000F4000018222000A00001001008ED00E03C
:1000F00000000000000000000000000074B24E7A12
:1001000000200420F7010010C3010010C5010010F9
:10011000C1010010C1010010C1010010C101001097
:10012000C1010010C1010010C1010010C701001081
:10013000C1010010C1010010C9010010CB01001065
:10014000CD010010CD010010CD010010CD01001037
:10015000CD010010CD010010CD010010CD01001027
:10016000CD010010CD010010CD010010CD01001017
:10017000CD010010CD010010CD010010CD01001007
:10018000CD010010CD010010CD010010CD010010F7
:10019000CD010010CD010010CD010010CD010010E7
:1001A000CD010010CD010010CD010010CD010010D7
:1001B000CD010010CD010010CD010010CD010010C7
:1001C00000BE00BE00BE00BE00BE00BE00F04BF888
:1001D000103800BEF2EB88714853001068530010CD
:1001E0003402001090A31AE700202149086006C8D5
:1001F00081F3088810471F48006800282FD10DA4FC
:100200000ECC002902D000F012F8F9E71A491B4A77
:10021000002000E001C19142FCD1194988471949E9
:1002200088471949884700BEFDE701C901C29A42C3
:10023000FBD3704768530010C000002070040020FA
:100240001857001000000420000004201857001068
:1002500000100420001004200000000070470B482C
:1002600001F0D6FE0047EFF30580C0B270470000F2
:1002700008ED00E0000000D070040020F81100201C
:10028000551A001061030010491B0010575600005A
:1002900006005250ABB3605320510010060052507C
:1002A000861C030230510010060052505422A29DB9
:1002B0004851001005005250DE65F46818570010D0
:1002C000F8B5C0460448054B10B5834203D0044B33
:1002D000002B00D0984710BD70040020700400204F
:1002E0000000000006480749091A8910CB0F591869
:1002F00010B5491003D0044B002B00D0984710BD17
:1003000070040020700400200000000010B5074CAD
:100310002378002B09D1FFF7D5FF054B002B02D026
:10032000044800E000BF0123237010BD78050020C1
:100330000000000068500010054B10B5002B03D0E2
:100340000449054800E000BFFFF7CCFF10BDC046E0
:10035000000000007C050020685000100000000034
:1003600002F0F8F8002000F05FF80020012100F012
:1003700051F8022000F058F80220002100F04AF85D
:10038000032000F051F80320002100F043F8022080
:1003900000F02AF8002811D0032000F025F80028EA
:1003A00017D0F4E7184A02239B00D218184B1360A9
:1003B000154A03239B00D218154B1360002001231C
:1003C00083400F4A53610120012383400C4A53614B
:1003D0007047002001238340094A936101200123D3
:1003E0008340074A9361704701238340044A516860
:1003F0000B40C340181C7047C046C046C046C046AC
:10040000000000D00040014000C00140002000007A
:10041000000100000123D02283401206002901D0F0
:10042000536270479362FCE70123D0228340120697
:1004300093629361094A8300944640226344196899
:10044000C0004A40C021114080225201134319606C
:10045000034B9C46052360444360704704C0014041
:1004600000400140F8B5EFF3108772B60D4E3368C7
:10047000002BFCD0BFF35F8F0725CB08C0180123EA
:100480000D40AB401D000478254007D12343037085
:10049000BFF35F8F356087F31088F8BD100001F05F
:1004A00055FBC0462C0100D0F8B5CE4647468C46D9
:1004B00080B5EFF3108872B6214D2C68002CFCD06B
:1004C000BFF35F8F9A422CD80721012511408D4040
:1004D000D4080419267835421FD0072189460639E9
:1004E00009E04D460F001540AF40D40804192678A6
:1004F0003D00374211D001329342F2D201204042F6
:10050000BFF35F8F00220E4B1A6088F3108800281B
:100510000FDB0CBC90469946F8BD354325701000A2
:10052000EEE7BFF35F8F00232B6088F31088012074
:1005300040426346002BECD0089801F007FBC04610
:100540002C0100D0024B18688007C00F7047C046CE
:1005500000C006400021044B044ABFF35F8F02C372
:100560009342FAD17047C046000100D0800100D00C
:10057000044A1078431CDBB2172B00D910231370E8
:100580007047C0467003002000B5054B83B00100E2
:10059000009318221F230348FFF786FF03B000BD16
:1005A00068500010380A002001238340002904D03D
:1005B000034A1360034A13607047034A1360FBE762
:1005C00080E200E000E100E080E100E00123834000
:1005D000014A13607047C04600E200E0084B10304B
:1005E0009B688000C358002B07D0064A00209B1A46
:1005F0002F229A424041C0B270470020FCE7C0461B
:1006000000ED00E074030020024B10309B68800076
:10061000C058704700ED00E070B50D00EFF3108694
:1006200072B60F4A1368002BFCD0BFF35F8F0D4BDF
:1006300010309B6884001B590B4A934203D09D42A3
:1006400001D001F09BFA074B9B681D51BFF35F8FF0
:10065000BFF35F8F0022024B1A6086F3108870BDD3
:10066000240100D000ED00E0CD010010F8B55746A0
:100670004546DE464E468A46E0B590460700EFF313
:10068000108972B6604A1368002BFCD0BFF35F8FED
:1006900000205E4B18569B46002800DAA2E05A461E
:1006A00044005B4D2418A4002E19B3791037137041
:1006B000584BBA009B68934699584B1B2F2B41D837
:1006C00001230A009A43D3799446434514D9062757
:1006D000D7571300002F06DA8DE00627DF571A00E0
:1006E000002F00DA87E07B00DB199B00EB18DF7935
:1006F0004745F2D8002A51D1474A63465B1B5B410C
:100700005A43120D454BA11C3380454B6918043BDD
:100710005B1A1B0543495B0D0B437380634604342E
:10072000043B2D195D1B43462D05F3716D0D53469A
:100730002943B180B27101216246B3603A4B314323
:10074000136018E0394B994252D1344B0234338054
:10075000334B2D19043B5D1B2D05324B6D0D1D4395
:10076000334B0121B380FF23B3714346F3715346EA
:100770007580B36031435A46264B9B689950BFF34E
:100780005F8FBFF35F8F00221F4B1A6089F31088C1
:100790003CBC90469946A246AB46F8BD0627D757C3
:1007A000131D9C46002F2CDB04342D19E024938864
:1007B00024025B051B1563445B1B1B055B0D234378
:1007C0006546341F641B2405164D640D2C4394802C
:1007D0009071B3804346F3715346134AB771326048
:1007E000B360C8E701F0CAF95B460020185656E727
:1007F00001F0C4F9A9E71A1D94461A00BD231B0293
:10080000DEE7BD231B02DBE7240100D0320F00200E
:100810007403002000ED00E0AAAA000000A1FFFF81
:10082000A403002000E0FFFF01488047CD01001035
:1008300000BDFFFFF0B54546DE4657464E46E0B5E3
:100840000D0083B0EFF3108A72B65A4A1368002B7A
:10085000FCD0BFF35F8F1022914681444A46564B2D
:1008600096009B689C59554B98469C4205D0AC42DB
:1008700016D0534FE31B2F2B14D94F4B9B689C5121
:10088000BFF35F8FBFF35F8F00224A4B1A608AF37A
:10089000108803B03CBC90469946A246AB46F0BDDA
:1008A0001C00EAE7012383409B465A46454B1B68E0
:1008B0001A4000925A46444B1A60BFF35F8FFFF70D
:1008C000D2FC0190002803D0814501D001F056F9F7
:1008D0000123220006219A43936851569D420AD172
:1008E00052E04B005B1806219B00FB189868595694
:1008F000A8420FD01A000029F3DA009B002B05D084
:100900005A46324B1A602F4B1A60B6E75A462E4BA6
:100910001A60B2E7002921DB4A00501880003D1818
:100920008046A8689860E879D871062028569871A2
:10093000002826DBAD88F81A6D052D1545444019B1
:10094000E0250005400D2D02284398805218204BC9
:100950009200BF181A781970BA71CEE70199002970
:1009600018D1002A23D0FF3191711A49918018497A
:100970000A789A71184ADB1B5B415A43120D0A70C0
:10098000BBE7BD200002E0E713000029C4DA019AAA
:10099000002A0CD0114A1249D21A083A5002400DCE
:1009A000014399800F4952080A43DA80A5E744467B
:1009B000DDE7C046240100D000ED00E0CD010010CD
:1009C0007403002000E100E080E100E080E200E04C
:1009D000320F002000BDFFFFAAAA0000AE030020D6
:1009E00000F0FFFF00F8FFFFF8B501250400054304
:1009F000FFF739FCEFF3108672B6214A1368002B1B
:100A0000FCD0BFF35F8F1F4B1F4A2100C91A494119
:100A10004A43120D1D4980008F6852B23F58AF42C1
:100A20001CD00621595691421CD012215956914290
:100A300022D01E215956914220D02A2159560320F6
:100A4000914210D0124B19781A70A171BFF35F8FC9
:100A500000220B4B1A6086F31088F8BD8B680D4995
:100A60001950EFE700204100091889005B18FF21A9
:100A7000997109499980E5E70120F4E70220F2E73E
:100A8000240100D074030020AAAA000000ED00E0B9
:100A9000320F0020CD01001000BDFFFF054B064ABC
:100AA0001360064A136053609360D360136153610F
:100AB000936170478080808000E400E004E400E0FF
:100AC000D02300B51B0601001868074B83B0181827
:100AD000064B002200930523FFF7E6FC002801DB0C
:100AE0001F23181A03B000BD2C0F002084500010E3
:100AF000024B9C466144890001607047400000340D
:100B000083680B4810B584466144624409011201B0
:100B10009A18591854684B6801209C4201D802D099
:100B20000020C0B210BD12680B689A42F9D8F7E7EE
:100B3000FFFFFF0F0A4B1968EFF3108072B60A68C7
:100B4000002AFCD0BFF35F8F1B68BFF35F8F0022CA
:100B50001A6080F3108840BF002000217047C04613
:100B6000FC0E0020F8B5454657464E46DE46E0B539
:100B700014000DAA12781D000CAB92461B78026877
:100B800081469046002B13D1977B002F4AD04046D8
:100B90007E001268F619033E921951783B0081736A
:100BA000002900D1C173002191705170117003E0D0
:100BB0001F005E00F618033E2E4A94464A4692688D
:100BC000634494461B010A9A63449A600B9A1C6022
:100BD0005D60DA60434600221B689B199A705A7068
:100BE0001A7043465B7B9B46002B2BD043463A0052
:100BF000986859465B6898475B4642465B005B4491
:100C0000033B1268002814D0D31896195A46B270C4
:100C10001A78002A00D072701F705A4643465A73E1
:100C2000BB4511D038003CBC90469946A246AB4625
:100C3000F8BDD31896199F703278002A00D05A70E8
:100C40005B46337043465F734B462200187D2B0092
:100C500000F018FB041E07D05346002B04D14B466E
:100C60003900186800F08CFE0E9B002BDAD01C7047
:100C7000D8E7C046FFFFFF0FF0B5DE4657464E46A9
:100C800045460023E0B58DB00A936D4B8200D458E1
:100C900000239B460B9000F0A3FA6268EFF31085E7
:100CA00072B61368002BFCD0BFF35F8F23689C469D
:100CB0005B7B9946002B00D16BE0A268614B9046AC
:100CC0004B441B01984443461E685F6832003B005A
:100CD000121A8B41002B65DD3B0032000B9800F0AF
:100CE000D1FA0023002208920993002300279A4694
:100CF0006368BFF35F8F5A461A6085F310885346C6
:100D0000002B08D10028C6D10DB03CBC90469946B6
:100D1000A246AB46F0BD0A9B390018024B46184369
:100D2000D047626806900791EFF3108872B6564676
:100D300045461368002BFCD0B246A846BFF35F8F30
:100D40000699079A131E49DB194302D02369002B29
:100D50005FD12368DA7B002A07D051008A1819680E
:100D60008C4649466244033A51704A46DA73E26857
:100D70004B469446013B63441A7801321A705B4635
:100D800023616368BFF35F8F5A461A6088F3108847
:100D900081E70023002208920993002300279A4646
:100DA0000020A5E7002B01D1002A95D10021604643
:100DB00000F008FD43461A685B68089209934346B1
:100DC0009B689A464346DF68E3684B44013B1B78C7
:100DD0000A931B0203432361002089E72369002B48
:100DE000B7D0089D099E6D1A96412A003300089DD0
:100DF000099E9E4218D81BD05946049101210391A7
:100E0000494602915146019700912000FFF7AAFE42
:100E1000B5E700F0E5F9069A079B12184B41994295
:100E200002D8E9D19042E7D901225242D317E3E731
:100E300008999142E0D901225242D317DCE7C0461B
:100E4000E00E0020FFFFFF0F10B5124C6368002B6F
:100E500004D00A211048FFF74BFE10BD23000F4AB3
:100E60001021206800F0D0FA032000F0ADF9032033
:100E700000F07CFA0A49032000F0BEF9FFF778FB86
:100E8000084B9C46032360442375074B8000606039
:100E9000DC60DEE7BC030020FC0E0020010B00102C
:100EA000790C001040000034E00E0020004870472C
:100EB000BC030020F0B557464546DE464E46E0B539
:100EC00085B00092019310AB1B7800270393002399
:100ED00080469A4643465A68EFF3108972B6136803
:100EE000002BFCD0BFF35F8F43461D68AC7B002C0A
:100EF0004FD0660036192B68033E9B195A78AA73A7
:100F0000002A00D1EA7342469F705F701F7092689A
:100F10004E4B94460099019AE3181B0163441960F3
:100F20005A600E9A9A600F9ADA602B689B199F702C
:100F30005F701F706B7B9B46002B42D02200190014
:100F4000A8686B6898475B465B005B44033B2A6874
:100F500000282DD0D31896195A46B2701A78002A54
:100F600000D072701C705B466B735C452AD04346A0
:100F7000DB681B19013B187843465B68BFF35F8F42
:100F80001F6089F310885346002B2AD100022043AA
:100F900007E05B68BFF35F8F1C6089F31088012056
:100FA000404205B03CBC90469946A246AB46F0BDD7
:100FB000D31896199C703278002A00D05A705B467C
:100FC00033706C734346187D009A019B00F05AF908
:100FD00082460028CBD043462100186800F0D0FCA0
:100FE000C5E7039B002B2FD00E9B0F99002098473D
:100FF00003000B4328D004000D1E0DDA0098019960
:1010000002000B00121BAB41994213D818D000927A
:101010000193039B9A465DE700F0E2F824184D41E6
:1010200023002C0000930194A94203D8F1D1009B26
:101030009842EED901235B42DC1700930194E8E764
:1010400000999142E3D9F5E70020AAE7FFFFFF0FDF
:10105000F8B542680400EFF3108572B61368002BF0
:10106000FCD0BFF35F8FFF232068CEB2427B0B40E2
:10107000B24208D007685A00BC46D2186244033A0C
:101080009278002A11D0E268090A94466344013B31
:101090001B78C9B28B420ED000206368BFF35F8F0C
:1010A00000221A6085F31088F8BD23698B42F3D1C2
:1010B00022610020F1E7310000F062FCEDE7C0465C
:1010C000002370B584B0114E02930193104B0500BC
:1010D000009302000B0030000C00FFF7EBFE00282D
:1010E00004DD20BF01003000FFF7B2FF094A0020F5
:1010F000536AA34203D3926A0130AA4201D304B0D7
:1011000070BD1C1B601E8441E0B2F8E7BC030020E8
:10111000350B001000400540F0B5C64600B5EFF3B2
:1011200005833F22134018001038EFF3108772B682
:101130001F4D2A68002AFCD0BFF35F8F01221100E7
:101140008140884644461B494C631B4C2678A44684
:101150003400C440224015D04C6A184982005158CE
:101160008C4217D3164BD25843469E4363461E709B
:10117000BFF35F8F00232B6087F31088002A06D00F
:10118000904704E0BFF35F8F2A6087F3108804BCA8
:101190009046F0BD0B4A9B00944663441A681A605F
:1011A000BFF35F8F00232B6087F31088EFE7C04603
:1011B000280100D000400540350F0020080F002016
:1011C00028090020D03F054010B50100024A03481D
:1011D000FFF748F910BDC046A0500010310F0020A5
:1011E000044A516A00E01900906A536A9942FAD1A0
:1011F0007047C0460040054070B504000D00EFF395
:10120000108672B61A4A1368002BFCD0BFF35F8FAA
:10121000002D1BD02000FFF7F7F9164988420AD0AD
:101220002000FFF7F9F901212000FFF7BDF90123A4
:10123000A340114A1360114BA400E550BFF35F8F28
:1012400000220B4B1A6086F3108870BD0B4BA20076
:10125000D5500122A2400A4920000B7893430B701D
:101260000449FFF7E7FA00212000FFF79DF9E5E7C1
:10127000280100D01911001038600540280900200D
:10128000350F0020F0B5D6464F464646324CC0B525
:10129000656A00E00D00A66A616AA942FAD1AB4214
:1012A00009D806D0012420001CBC90469946A246CD
:1012B000F0BDB242F6D9EFF3108972B6274C21681F
:1012C0000029FCD0BFF35F8F0126254986408C465C
:1012D0000978244D0F0037438846F9B28A466146A3
:1012E00054460C701C49041DA4004E6362508400D7
:1012F00063510D6A002435421AD04D6A00E0250082
:101300008F6A4C6AAC42FAD1AB4219D801D1BA42C9
:1013100016D8C2451DD0104B134A1E625E631F23B0
:1013200018401E3B834013606346424601241A70F6
:10133000BFF35F8F0022094B1A6089F31088B2E770
:101340000024BFF35F8F0022044B1A6089F31088DA
:10135000A9E70124ECE7C04600400540280100D081
:10136000350F0020080F002080E200E010B5EFF3F9
:10137000108472B60A490B68002BFCD0BFF35F8F54
:1013800001238340074A0848136202789A43027097
:10139000BFF35F8F00230B6084F3108810BDC0463D
:1013A000280100D000400540350F002070B5060030
:1013B0000D00140000291ED0002A1ED0736880681A
:1013C000984763006A001B195219033B033A3168BE
:1013D000002808D0CB188A189D70117800290ED1EA
:1013E0001470280008E08A18CB1894701978002926
:1013F00000D051701D70200070BD0800FCE75970CE
:1014000028001470F8E7C046F0B5DE4657464E4651
:101410004546E0B58360002389B0426002680691CA
:101420004373C9B20133059101738373C17304928D
:10143000012900D8A4E00A004B1ED9B2931E0791DF
:10144000072B00D8AEE00025CB080393049B564C35
:10145000591C564B56489B46564B9A46564B9C46F3
:10146000564B0293524663465F465E4662401A40C0
:10147000504B2740FB185A4006405346019666469B
:10148000434033404B4E0A70B046019E0135B14691
:10149000C844464673401604360ECE701602120E2D
:1014A0004A721A04120E0B73CA731A021B0E4B7582
:1014B000029B360E5C4063461C40404B120E984621
:1014C000029B47445840634618404B4643445840AB
:1014D000039BEDB28E718A747C401831AB42C1D14E
:1014E000079907230A009A43531CDBB2914247D065
:1014F000049C5A00A446D218591C6244059DC9B2E6
:10150000033A51708D423BD94A005218981C6244EC
:10151000C0B2033A5070854232D942001218D91C29
:101520006244C9B2033A51708D4229D94A00521817
:10153000181D6244C0B2033A5070854220D942005F
:101540001218591D6244C9B2033A51708D4217D91D
:101550004A005218981D6244C0B2033A5070854246
:101560000ED942001218D91D6244C9B2033A517013
:101570008D4205D94A0052186244033A0833537029
:10158000FF23069A13405900C918049B9C46002368
:10159000614403394B7009B03CBC90469946A24661
:1015A000AB46F0BD0123A3E7010203047F7F7F7FE9
:1015B00005060708010101018080808008080808ED
:1015C00070B50400002907D04B0000685B18033B8E
:1015D000C3185A78002A01D1080070BD5500AD1813
:1015E000033D40190025467845705D702000FFF7E7
:1015F000DDFE310005002000FFF7E2FF29000200B8
:101600002000FFF7D3FE0100E6E7C046F0B54E46E6
:101610004546DE465746E0B50E0074000168A41941
:1016200085B0033C01920A190500107800284CD0BF
:1016300043001B18033BCB185F78BC46002F16D124
:10164000019C002C3ED0EC7B002C04D063001B19C5
:10165000CB18033B5E70EE7300282FD1002353702C
:1016600005B03CBC90469946A246AB46F0BD7A0018
:101670006244033A89184A78934600224A70904699
:101680005A7001003A002800FFF790FE5B46814641
:10169000002B07D05B0029685B44033BCB185A78CA
:1016A000002A16D15A4649462800FFF77FFE2968CE
:1016B000019B0A19002BC6D10028CFD043001B186C
:1016C000033BCB1800219970C8E7019B002BBAD1CE
:1016D000C4E750008018033809184878824640460D
:1016E0004870587059462800FFF760FE53468346FD
:1016F000002B07D05B0029685344033BCB185A7872
:10170000002A06D1594652462800FFF74FFE83466D
:10171000C8E7500080180338091840464F784870D1
:101720005870514628000297FFF740FE8246002F6E
:1017300008D0BC467B0029686344033BCB185A7829
:10174000002A06D15146029A2800FFF72FFE824652
:10175000D8E7500080180338091840464F78487081
:101760005870029928000397FFF720FE8046002F4B
:1017700008D0BC467B0029686344033BCB185A78E9
:10178000002A06D1039A41462800FFF70FFE029077
:10179000D8E7032050430338091800204F784870D9
:1017A000587003992800FFF701FE390002902800C5
:1017B000FFF706FF029902002800FFF7F7FD0390EC
:1017C000E0E7C046F0B54E464546DE465746E0B532
:1017D000467B050074000068A419033C85B002191B
:1017E0000191117800294ED04B005B18033BC318C0
:1017F0005F78BC46002F18D1019C002C40D0EC7BB8
:10180000002C04D063001B19C318033B5E70EE73F9
:10181000002931D1002330005370697305B03CBCFE
:1018200090469946A246AB46F0BD7A006244033A20
:101830008018427893460022427090465A702800E1
:101840003A00FFF7B3FD5B468146002B07D05B00F3
:1018500029685B44033BCB185A78002A17D15A46B3
:1018600049462800FFF7A2FD019B010028680219E4
:10187000002BC4D10029CDD04B005B18033BC3180B
:1018800000209870C6E7019B002BB8D1C2E750003A
:1018900080180338091848788246404648705870C6
:1018A00059462800FFF782FD53468346002B07D098
:1018B0005B0029685344033BCB185A78002A06D1B1
:1018C000594652462800FFF771FD8346C7E750008E
:1018D00080180338091840464F78487058705146B0
:1018E00028000297FFF762FD8246002F08D0BC4611
:1018F0007B0029686344033BCB185A78002A06D141
:101900005146029A2800FFF751FD8246D8E7500061
:1019100080180338091840464F784870587002996B
:1019200028000397FFF742FD8046002F08D0BC46F1
:101930007B0029686344033BCB185A78002A06D100
:10194000039A41462800FFF731FD0290D8E70320B3
:1019500050430338091800204F7848705870039995
:101960002800FFF723FD390002902800FFF728FE2A
:10197000029902002800FFF719FD0390E0E7C04636
:1019800070B5040000292CD0437B8B422ED0056813
:1019900048004018033828188278002A21D05300C4
:1019A0009B18033BEB181A788A4202D11BE0002AED
:1019B00008D053009B18033BEB185A788A42F6D1A3
:1019C00042785A7000230122837043702000FFF791
:1019D0001DFE617B02002000FFF7E8FC6073012020
:1019E00000E0002070BD42781A70EBE70122190078
:1019F000FFF70CFE60730120F4E7C04610B5040049
:101A0000FEF7B6FD01002000FFF772F8FF232371F7
:101A1000BFF35F8F10BDC04610B50400FEF7A8FDF0
:101A200001002000FFF764F8FF23A380BFF35F8F5E
:101A300010BDC04610B504000120FEF7A5FD044B03
:101A40009C46604480002060BFF35F8F10BDC0469D
:101A5000400000342D4B2E4A70B51A602D4A2E4B93
:101A60002E491A6010008B689843FBD12C4C2D4BEB
:101A70009C4209D2013B1D1BAD080135AD002D195B
:101A800008CC9847AC42FBD100F07EF8264A224BA6
:101A90001A60224A9368DB018033FBD14022234B3A
:101AA000234D24489A675A671A67DA66A84205D315
:101AB0000EE0FFF7B1FF2000AC4209D2040003683A
:101AC0000834002BF5D1FFF799FF2000AC42F5D385
:101AD000194C1A4DA168C022280000F0D3FBA56064
:101AE000FEF738FDFEF7DAFFFFF7AEF9144C154BA1
:101AF0009C4209D2013B1D1BAD080135AD002D19DB
:101B000008CC9847A542FBD170BDC04600E000401C
:101B1000BFCDFBFEFE7F3C0000F0004000C0004057
:101B20005804002068040020FFFFFF0100F001407E
:101B3000580400205004002000ED00E000000020C8
:101B4000680400207004002000BEFDE70FB400B55B
:101B5000084883B000F0C8FC049B002B07D005A9FF
:101B60001800019100F034FA034800F0BDFC00BEFB
:101B7000FDE7C046D0500010E050001010B50148FD
:101B8000FFF7E4FFC450001030B50C2083B000F024
:101B9000AFF9FEF7D7FC00280ED0944B944A1A6098
:101BA0005A609A60DA601A615A619A61DA611A625F
:101BB000904A5A6203B030BD8F4CA06700F0ECF938
:101BC00001228E4B1A60636C012BFCD103228C4BDB
:101BD0001A60894A936B012BFCD101330093894A27
:101BE00004330121884800F02FF90523874A009328
:101BF0000121874800F028F9864B5A68FF2A02D84D
:101C0000802252005A608022784C7D4B216912015B
:101C1000804D1A60002905D0606900F027FA013074
:101C20000138FDD1E0217B4B02201A68114080224F
:101C300052012A4311601968484003210140116094
:101C400004219A681142FCD08022802192012A430B
:101C500009011160802252005A606F4B23616F4B63
:101C60005968FF2900D85A6003226C48634B012150
:101C70001A60020093681942FCD0E02513681D40E9
:101C800080235B0103431D6012684A400321114019
:101C900019600221614A93681942FCD08023802197
:101CA0009B0103430901196080215D4B490051608C
:101CB00063615C4B5A68FF2A00D8596080225A4BF6
:101CC000E1691201574D1A60002905D0606900F0E2
:101CD000CDF901300138FDD1E02252490B681A409C
:101CE00080235B012B431A60802380229B012B43BE
:101CF00012011A6080223E4B52004A60E3614B4B56
:101D00005968FF2900D85A608022494B216A120184
:101D1000464D1A60002905D0606900F0A7F901302E
:101D20000138FDD1E02241490B681A4080235B0154
:101D30002B431A60802380229B012B4312011A60DF
:101D400080235B004B602A4B3A4A23623A4B596826
:101D5000914201D801325A608022384B616A1201E7
:101D6000354D1A60002905D0606900F07FF9013017
:101D70000138FDD1E02230490B681A4080235B0115
:101D80002B431A60802380229B012B4312011A608F
:101D90008023DB024B60174B6362294B5A68FF2A92
:101DA00002D8802252005A608022264BA16912017B
:101DB000234D1A60002905D0606900F057F9013001
:101DC0000138FDD1E0221E490B681A4080235B01D7
:101DD0002B431A60802380229B012B4312011A603F
:101DE00080235B004B600E4BA361E3E63C0A0020BE
:101DF000006CDC021BB70000008000403CB00040DB
:101E000030B00040002F685900800240008C8647A7
:101E100000C0024030800040001BB7003C80004002
:101E2000405973075480004054B000406080004027
:101E300060B00040FFFF03006C8000406CB00040C9
:101E40004880004048B00040F8B504000C201E0057
:101E500017000D0000F00AF94201121A9101891AC7
:101E6000C90009188901380000F000F9069B2268B2
:101E700036041B033343002A21DB194A194EA218EA
:101E800051424A41802149018C4652420A4016493A
:101E900062440A6015490A601700B1688F43FBD19C
:101EA000C021221D8901114321222560A0600A6002
:101EB0002268002AFCDAE36008230B60F8BD3F22A9
:101EC00021680A40AA42D8D1A2681205120D8242A6
:101ED000D3D1EE21E268C9020A409A42CDD1EDE7A2
:101EE0000040FDBF00C0004000E0004000F00040A6
:101EF0008023024A9B000343D36270470080054061
:101F000010B580241B4BE4051C6000282BD0012356
:101F1000194C1843194BDC61194C44401C6259623E
:101F200098628021134BC90519601648164908604C
:101F3000E021C9041960002A04D18022134B120643
:101F40001A6010BD53019B1A9B009A18104B120186
:101F50009A420BD80F4B1A60084B5A6080220B4BE9
:101F6000D2051A60EDE7054BD861DAE7094A13603C
:101F70001A00F1E700B00540D3C007B0008005406B
:101F80002D3FF84FFCFF01000820014000A0054054
:101F9000FFFFFF00D80E0020AA23064A1B01136092
:101FA0002F230549D360054B19605368002BFCDAD9
:101FB0007047C0460040024000B0FA000060024096
:101FC00010B5002800D110BD00F03CFAFBE7C04678
:101FD00010B5094A84B01468002C09D00122009180
:101FE0000300524203A90548A047012004B010BDD8
:101FF00000F07AFA0020F9E7D40E0020C11F00108B
:1020000001480421014B1847F00300203120001043
:10201000142310B50100188804331B88984710BD9D
:10202000162310B50100188802331B88984710BD8D
:10203000F0B5C64600B5002916D0142304000125CA
:1020400098461827890046184346216818883B8817
:10205000984701C4431E984140420540A642F3D12F
:10206000280004BC9046F0BD0125F9E7114A936FA2
:102070009B0813D210665166002905D0FFE7FFE7E1
:10208000FFE7516F106F704704B5002801D00020A2
:10209000C04302F0C9FF002104BDC046F0B5146E74
:1020A000556E576F166FFFF7E5FF14665566576755
:1020B0001667F0BD000000D0132370B51D78012D08
:1020C00015D010DD2648FFF7ABFF264C010080221B
:1020D000200000F0D7F8022D06D02348FFF798FF24
:1020E000224B186070BD1F4C214AA264F5E71D4CBD
:1020F0001F4AA3085B421D402FD02B0022602020E6
:10210000A9006118451B0A604A608A60CA600A61BA
:102110004A618A61CA610A624A628A62CA620A6361
:102120004A638A63CA630A644A648A64CA640A6541
:102130004A658A65CA650A664A668A66CA660A6721
:102140004A676D08102D03D18A67CA67A264C4E785
:102150001E339B00E250A264BFE70023CFE7C046D6
:1021600053440000380F00204C330000F80E0020CC
:102170007521001007B5604601880A0A0230DF2A7F
:10218000FAD1C9B2820804D30288408800041043FF
:1021900000E00068014A5050039007BD380F00204E
:1021A00051434343C9188C46110C83B24B4310B4BE
:1021B000040C614392B280B2504362431C041B0C76
:1021C000001910BC59411304120CC018514161444C
:1021D00070470000132310B51C781348FFF720FF49
:1021E000012C0BD004DD01008022104800F04AF8D9
:1021F0000F48FFF70DFF0F4B186010BD0B4C01008F
:102200005422200000F03EF80B4B6365A365E365A4
:1022100023666366A366E36623676367A367E36772
:102220002362E361E4E7C046534600003810002013
:102230004C330000F80E00203D22001007B5604628
:1022400001880A0A0230DF2AFAD1C9B2820804D30F
:10225000028840880004104300E00068014A5050A2
:10226000039007BD3810002001480421014B184796
:102270000004002031200010014B1B6818470000AB
:1022800000040020014B5B68184700000004002098
:10229000030010B508001B681100984710BDC04628
:1022A000F8B54746CE4680B5437C80460C00150005
:1022B000002B43D0002A34DD0A78037C00200A2A50
:1022C00033D0012D1ED0204B0121671E994602E01C
:1022D0003100B54216D0635C7A5C4E1C0A2BF7D1F4
:1022E0000D2AF5D043461B68884204DA091A2018E3
:1022F000984743461B680221484698473000310002
:10230000B542E8D1854204DD4346291A1B682018EE
:1023100098476419013C23780D3B5A425341424689
:1023200013740CBC90469946F8BD002BC9D14346A6
:10233000054802211B6898470120C2E70368110085
:1023400020009847EDE7C04654510010F0B5DE4636
:1023500057464E464546E0B51E00D0231B0683B0C7
:102360001C68334B01AF80460D00180039009146C0
:102370009B4602F061FE8246002808D1019B64B2B0
:102380009C4204D0584602F067FE01239A466B1C1B
:1023900003D1404602F000FE0500002E28D1254E54
:1023A000254B1C68002C16D04B46002B22D1234F06
:1023B00002E0E468002C0ED02368002BF9D03B68C3
:1023C000002B01D0A342F4D120002A004146B0479F
:1023D000E468002CF0D15346002B25D1681E8541BE
:1023E000E8B203B03CBC90469946A246AB46F0BD6D
:1023F000134ED5E7114B994602E0E468002CEAD071
:102400002368002BF9D04B461B68002B01D0A34258
:10241000F3D12A0041462000B0470A2301223900A7
:1024200020003B70B047E8E7584602F0F5FDD5E7DD
:1024300050040020A1220010CC0A0020D00A002065
:1024400091220010F0B54746CE4680B583B06B466A
:10245000DF1CD02338701B061C68204B060001A926
:102460001800984602F0E8FD051E22D01C4B1C689F
:10247000002C2AD01B4B994602E0E468002C10D0B7
:102480002368002BF9D04B461B68002B01D0A342D8
:10249000F3D1200001223900FFF702FFE468002C8D
:1024A000EED1002D11D1300003B00CBC90469946FE
:1024B000F0BD019B64B29C420BD0404602F0CCFDC3
:1024C000074B01251C68002CD4D1404602F0A4FD26
:1024D000E9E7034B1C68002CCCD1E4E75004002052
:1024E000CC0A0020D00A002070B5040002F054FD90
:1024F00000230100050001222000FFF727FF084B01
:102500001C68002C06D06368002B05D09847E4684F
:10251000002CF8D1280070BDE468002CF3D1F9E755
:10252000CC0A00200A4A1368002B05D10CE01A00DF
:10253000DB680C32002B07D09842F8D1002902D179
:10254000C3681360C16070470029FCD01060FAE7CF
:10255000CC0A002010B500F043F910BD7047C0460A
:102560000022014B1A707047330F00204B79002076
:10257000FF2B0BD18B79002B08D1CB79012B05D107
:10258000082A03D98A78024B09301A707047C0466E
:10259000330F00200120704770B5002915D115496F
:1025A0005379107909781B0203430020994200D027
:1025B00070BD5378012B0AD0022BF9D10020642280
:1025C0000021FFF79DFC0120F2E70120F0E7D4781D
:1025D000917824020C430500E20502D5620A93407B
:1025E0001D000548FFF714FD7F210300214028004E
:1025F0009847C046330F0020554200000123037066
:1026000000487047585100104A780B7812021A435C
:102610008B7810B51B041A43CB781B061343962204
:10262000D200934200D010BD0348FFF7F1FC002117
:10263000030008009847C0465542000070B5184C8A
:1026400082B005000E00200001A902F0F5FC002870
:1026500008D1D0231B061B68019A9A421CD0200087
:1026600002F0FAFC002001F03DFE002807D103250E
:102670006D42200002F0D0FC280002B070BD0020A6
:1026800001F048FE0028F2D029003200002001F0BD
:102690004DFE051EEBD0ECE703256D42ECE7C0468E
:1026A000000F0020F0B54F464646D646C0B5364B23
:1026B00082B007000E00180001A9994602F0BCFC88
:1026C000002808D1D0231B061B68019A9A4241D0EA
:1026D000484602F0C1FC002001F004FE002831D081
:1026E0000024002E33DD294B98469A4612E000283C
:1026F00047D100F05BFE002001F050FE002001F009
:10270000F1FD002823D0002001F09EFE002827D0F4
:10271000B4421CDA0020351B01F096FE8542E6DC4F
:1027200039192A00002001F075FE050000F03EFE78
:10273000002001F033FEFEF753FD43466419186094
:102740005960E5E700200021104B186059604846A9
:1027500002F062FC02B01CBC90469946A246F0BD55
:10276000FEF73EFD53460D001A685B680021844663
:10277000074812184B419D42E9D8C9D19445C7D9A1
:10278000E5E70500CCE7C046000F002070050020FB
:1027900020A1070010B5044B1878FDF717FFFA20A9
:1027A0000021800010BDC046340F002010B5024B40
:1027B0001878FDF70BFF10BD340F002010B5074C43
:1027C0000021200002F038FC002800D110BD00F0EC
:1027D000EDFD200002F020FCF8E7C046000F0020CD
:1027E00030B5234B85B01B7802F03CF82148FFF749
:1027F00005F90120FEF764F9FF231F4C1F492070E3
:102800001840FDF709FF20780121FDF7CDFE0520D6
:10281000FDF7E4FE041E0CD0002219490520FDF747
:1028200025FF01211748FFF77DFE0124200005B098
:1028300030BDFEF73BFB0500FEF7D2FCFA22002379
:10284000920012184B4199420ED80BD001210291EF
:10285000002101910C4928000091FEF72BFB002874
:10286000E4D0DEE79042F1D901225242D317EDE7DE
:1028700064530010000F0020340F0020BD2700100B
:10288000AD27001010040020952700100048704765
:102890001052001000487047BC51001070B5040081
:1028A00016480378002B20D0002C18D0052C23D8F4
:1028B000134B1448A400E558811C002304E00133A5
:1028C0000A800231132B14D0EA5CDCB2002AF6D164
:1028D000C023013464009B001C43048070BDC124EC
:1028E0000848094BA4004380F7E7112102F050FA91
:1028F000DAE7CA24A400F0E70020EFE7180F002071
:1029000024520010A40A002009040000F0B5982306
:1029100057464546DE464E466C4AE0B5D7588025B8
:102920003C006D02883B83B02C409A460FD00122B8
:102930002321674B00205A54DA70664901F088FA67
:102940008022654B92021A65644B2C009A46FB0666
:1029500017D480235B011F4245D18023DB011F4236
:1029600000D088E080231B021F4200D091E0BC42CF
:1029700000D0A5E003B03CBC90469946A246AB46C9
:10298000F0BD524B9B6D9846002B27D0524B002533
:102990009B460123994643460126B8461F0004E0A2
:1029A00001357600EDB2202D17D03742F8D05B46C6
:1029B0009E654B466C08AB436400E418444B6401CD
:1029C0009C466444200000F081FB00286CD1013556
:1029D000B743EDB27600002FE5D1474680235B0177
:1029E00054461F42B9D01C430023384A00211360CB
:1029F000384A3B489360D3603A4A9360D3603A4A7E
:102A00009360D360394A9360D360394A9360D3604E
:102A1000384A9360D360384A9360D360374A9360F2
:102A2000D360374A9360D360364A9360D360364AA6
:102A30009360D360354A9360D360354A9360D36026
:102A4000344A9360D360344A9360D360F02292009A
:102A5000FFF712FC314B324A00211A60002001229C
:102A600001F0CAF980221C4B12031A658023DB0196
:102A70001F4200D176E70122042100201C4301F00F
:102A800029F91022144B1A6580231B021F4200D122
:102A90006DE70122052100201C4301F01BF9802273
:102AA0000D4B12011A6562E74B46A28AA1780020FD
:102AB0000093002301F0F4F9200000F045FA86E7C6
:102AC000210018487940FFF741F8C0460000115036
:102AD000D40A0020000010500030115010000100F6
:102AE000140B002008001050100010501800105057
:102AF00020001050280010503000105038001050A6
:102B00004000105048001050500010505800105015
:102B1000600010506800105070001050DC0E002053
:102B2000800110503C52001010B501210520FDF726
:102B30003BFD10BD10B500220021024800F02AFA2A
:102B400010BDC046F40A00208022024B5202DA6413
:102B50007047C04600201150F0B5C64600B50700CA
:102B600000F0CCF90C23354D3549AB670520FDF756
:102B700053FD40239846334C402200212000FFF7AC
:102B80007BFB43460126A383212100232E4A667046
:102B9000A260136063545F3161844146A1870239AA
:102BA00063542A4A2A496360E260A1620B60E262D0
:102BB000284A63629360D360274A20009360D36001
:102BC000264A00219360D360254A40309360D36049
:102BD000244A9360D360244A9360D360234A93606D
:102BE000D360234A9360D360224A9360D360224A21
:102BF0009360D360214A9360D360214A9360D3608D
:102C0000204A9360D360204A9360D3601F4A936048
:102C1000D360F0229200FFF72FFB1D4B1D4A3800B6
:102C20001A6080239B052E64EB6490231A4AEA50B5
:102C3000FFF78AFF04BC9046F0BDC046000011506B
:102C40000D290010D40A00208400105000011050FB
:102C5000800010500000105008001050100010505C
:102C60001800105020001050280010503000105054
:102C700038001050400010504800105050001050C4
:102C80005800105060001050680010507000105034
:102C9000DC0E00208001105010D001000B785B0684
:102CA00002D14B78052B00D070478A78014B1A600F
:102CB000FAE7C04600001150F0B5C646072300B53C
:102CC00048798F780A790340C8787F218007394096
:102CD000800F1B02FC0913434E00C2B29446284DDC
:102CE00032195201AA1897700127674057700027C0
:102CF0009383D7709077CA00012C27D02148804653
:102D000088014244281882601760002927D01E4A93
:102D1000C9009046414441603F223F33934362469D
:102D2000022A00D15B00194936190A687601D318C6
:102D30000B60174BAD19EA6053406246920613438D
:102D40008022120613436A6813600EE01148804621
:102D500088014244281882621760002909D10023A3
:102D600064012D196B600C4BEB60012004BC904694
:102D7000F0BD074AC900904641444162CCE7C046D5
:102D8000D40A00208400105004001050DC0E0020F3
:102D900000001050800010500001105000231C4A09
:102DA00010B59360D3601B4A00219360D3601A4A28
:102DB0001A489360D3601A4A9360D360194A9360AB
:102DC000D360194A9360D360184A9360D360184A5D
:102DD0009360D360174A9360D360174A9360D360BF
:102DE000164A9360D360164A9360D360154A936085
:102DF000D360154A9360D360144A9360D360F02285
:102E00009200FFF739FA124B124A1A6010BDC04601
:102E1000000010500800105010001050140B00203B
:102E20001800105020001050280010503000105092
:102E30003800105040001050480010505000105002
:102E40005800105060001050680010507000105072
:102E5000DC0E0020800110507F2020B515000840B6
:102E60004000C90940180449400140181A002900CF
:102E700000F090F8012020BDD40A00207F2310B577
:102E80000B40C909002B03D102220748521A82665F
:102E9000802258004018054B4001C0181201002143
:102EA00000F058F810BDC04600201150D40A002090
:102EB0007F2310B50B4000D110BDC9095800401840
:102EC000044B4001181800230022C370024900F08F
:102ED00041F8F1E7D40A0020FFF7FFFF7F2110B58A
:102EE0008078044AC3099B0001409A580248FEF7C3
:102EF0002DFEC046240400205052001080220D4BAD
:102F0000520410B51A600C4B0C491A6010008B6803
:102F10009843FBD10A4C9C2200212000FFF7ACF91A
:102F20008022002152010748FFF7A6F909236367B1
:102F300010BDC04600E0004000F0004000C000406E
:102F4000000011500000105000230374438283825C
:102F50008361704710B58368002901D01C68214047
:102F6000002A11D08024E400114322420CD01A68B8
:102F700022420BD1064A0A401A60FFE7FFE7FFE74B
:102F8000FFE7FFE7FFE78368196010BDFFF7A6FFC3
:102F9000FFFBFFFFF0B5C646002300B58382013377
:102FA0000374436804001E68838B81611F1C934275
:102FB00000D9171C8025BFB2D21BE37892B2ED0076
:102FC00062823D43002B02D09025AD013D4301209C
:102FD0004340E3706378002B2AD0002A22D080235C
:102FE0005B011D43354B1B6C9B072ED4A378DB097B
:102FF0002BD1334B33408026B6051E436368A2684D
:103000001E6013685B0555D42E4B2B401360FFE701
:10301000FFE7FFE7FFE7FFE7FFE7A3681D6004BCEA
:103020009046F0BDA023DB011D43244B1B6CE0E761
:103030003A00E068FFF726F9A369628A9C4680237C
:1030400067441B02A7611D43C7E7A38B191C93426A
:1030500000D9111C80278BB2FF00D21A98461F435B
:10306000E37892B26282002B03D090274146BF01E1
:103070000F4301214B40E3706378002B0CD0002AF2
:1030800002D18023DB011F430F4B3F043340A026B6
:10309000F6053D431E43B1E7E06842464030A16972
:1030A000FFF7F0F8A369628A4344A36180231B02FF
:1030B0001F43E4E72000FFF711FFC0460000115056
:1030C000FFFFFFAFFFFBFFFFFFFFFFDFF0B5C646CF
:1030D00000B5067C0400002E00D1D1E083681A6898
:1030E0001D684378AD05AD0D002B50D1838AEB18D8
:1030F0009BB28382A18B62688D4206D200236382D9
:103100001368300004BC9046F0BD1268520002D52E
:103110008D4200D174E0638A002BF2D062681F1CDC
:1031200016688B4200D90F1C8025BFB2DB1BE278EA
:103130009BB2ED0063823D43002A02D09025AD0191
:103140003D4301214A40E2706278002A67D0002B9B
:103150002AD1A023DB011D434E4B1B6C4E4B334049
:103160008026B6051E436368A2681E6013685B056F
:1031700000D58CE0494B2B401360FFE7FFE7FFE7EA
:10318000FFE7FFE7FFE7A36800261D60B9E72A0015
:10319000C1688069FFF776F8A38AA269EB189BB231
:1031A0005219A382A261A5E7802252011543394A30
:1031B000126C920702D4A278D209CFD0A28B111C34
:1031C0009A423FD880278AB2FF009B1A9046174345
:1031D000E2789BB26382002A2FD101214A40E2703B
:1031E0006278002A3ED0002B02D18023DB011F43EE
:1031F0002B4B3F043340A026F6053D431E43B2E768
:10320000A26815686278AD01AD0D002A1CD1EB18DB
:10321000A3828D4200D37EE70023638271E73A00E8
:10322000A169E068FFF72EF8A3699C4680236744F4
:103230001B021D43A761638A89E790274146BF01AE
:103240000F43CAE7191CBDE7E1682A004031A069B5
:10325000FFF718F8A38AA18BEB18A382A3695B1967
:10326000A361D6E7E06842464030A169FFF70AF85B
:10327000A3694344A36180231B021F43638AB2E70F
:103280007F238178074A19400748FEF75FFC20003A
:10329000FFF724FE00001150FFFFFFAFFFFBFFFF11
:1032A000FFFFFFDF2404002070520010024B58780B
:1032B000431E9841C0B27047CC080020024B1878DA
:1032C0004007C00F7047C046CC080020014B18785B
:1032D0007047C0462F0F0020F8B54746CE46294E0E
:1032E00080B533788046002B04D001200CBC90467A
:1032F0009946F8BD532200212348FEF7BDFF234C19
:103300002000FEF77BFB224B1C60224C20001C306F
:10331000FEF790FB200001F0EFFC1F4B1F4F1C60DD
:103320001F4D002F04D02800FFF768F91D4B1860CF
:103330002B780024002F1CD01A4A1B4F91469C4228
:1033400010D31BD13B00984701342B78E4B2A34241
:10335000F5D24046FFF700FC4046FFF7E5FB0123AE
:103360003370C2E74A4663001B191268DB009B58A2
:10337000E9E701F075F82B78002BEAD000231B68F1
:10338000FFDEC0462F0F0020CC080020840800205C
:10339000200900202C04002024090020FD25001015
:1033A0002E0F00209405002061440010F0B5DE4689
:1033B00057464E464546E0B58BB001F059FA002815
:1033C00000D18DE1CA4BCB4E9B4607AC3568EA690C
:1033D000EFF3108372B611680029FCD0BFF35F8F42
:1033E0002B622100280001F0FDFAEA692B6ABFF385
:1033F0005F8F0021116083F31088002800D16FE1F6
:103400006378082BE2D85A469B00D3589F466368DE
:10341000002BDBD0A0689847D8E77F222179B64BF4
:103420000A405500C8095B191B18180001273030E5
:10343000C578BD43C570C5780337BD43C570002A44
:1034400000D187E1AD4ADB7C002A06D0AC4A127875
:10345000934200D2B5E19B1ADBB2002B00D03FE1D2
:10346000A84D62792078A368A847AFE70122A24D52
:1034700001212B78042013432B703323EA5C8A4309
:10348000EA54EA5C8243EA540133EA5C8A43EA5430
:10349000EA5C8243EA54237800209A4600F090FECA
:1034A000602223791A40602A00D14AE1402A00D1E3
:1034B0006EE1DB06DB0ED9B2012900D18CE15BB2F3
:1034C000002B00D172E1022900D03AE17023217A69
:1034D0000B4200D035E1C80984460F330B405B0036
:1034E000E818864F6044C07C002F06D0844F3F7898
:1034F000B84200D2C0E1C01BC0B2002800D0B6E183
:10350000002A00D07BE2804F62799046012A05D0E4
:10351000002A00D176E2032A00D012E1E288002AD4
:103520000DD14246EB186344012A00D17EE23022DD
:10353000904698444346DB789B0700D48DE2002FE9
:1035400000D143E7F86800F03BFEFB6808AA0021C1
:1035500050469847002000F033FE3423EB5CDB0735
:1035600000D533E762E1644B1B78DB0700D42DE71D
:10357000664B002B00D129E700E000BF26E75E4B39
:103580001A78D20700D421E7614A002A00D11DE74A
:1035900018780007C00F00E000BF17E7584F574AE0
:1035A0003B780025002A00D1E4E05A4A90469D422B
:1035B00008D39D4200D0E0E00135EDB29D4200D934
:1035C00004E7F6D2414609686A008C465219D200D7
:1035D00062445269002AEFD02078904701353B7849
:1035E000EDB29D42E3D9F1E62378454F434A984630
:1035F00000253B78002A00D1C2E0474A9146454A5F
:1036000092463A0047469046AB4260D800D0AEE0C2
:103610004B4638009847434601351B78EDB2AB4224
:10362000F2D2354D532200212800FEF725FE10224C
:10363000FF21E81CFEF720FE28002022FF21133086
:10364000FEF71AFE00F0B2FD344B002B00D1BDE6B0
:1036500000E000BFBAE62378294F284A98460025A3
:103660003B78002A00D17BE02B4A9146294A9246BA
:103670003A00474690469D4220D300D077E04B4623
:1036800038009847434601351B78EDB2AB42F2D281
:10369000194D532200212800FEF7EEFD1022FF21D4
:1036A000E81CFEF7E9FD28002022FF211330FEF779
:1036B000E3FD00F07BFD2379AB7087E6524612688C
:1036C0006B0094465B19DB0063445B68D8E75246A5
:1036D00012686B0094465B19DB0063445B6898E7F3
:1036E0000BB03CBC90469946A246AB46F0BDC046E6
:1036F000A452001024090020CC080020FD25001051
:103700002E0F0020C94600103053001000000000AA
:103710000000000094050020DD44001000000000BF
:10372000029F41463A00484600F0EEFE84460828D3
:1037300002D9B84200D8B1E2CF4B1B78002B00D0A1
:10374000B6E220780021FFF799FB20788021FFF76F
:1037500095FB3BE662792078A36800F045FD35E6ED
:10376000404600F0BBFE3B78002B00D190E70023E1
:103770005B68FFDE002B00D128E600235B69FFDEDB
:10378000404600F0ABFE3B78002B00D149E7EEE766
:10379000BA480028D5D000F013FD08AA00215046F1
:1037A00000E000BF002800D010E6CAE7202A42D07F
:1037B000002AC6D16379092BC3D8B14A9B00D358DC
:1037C0009F465A00D318AF4ADB001268D318002B6B
:1037D00000D185E71D6944E6237A0F2BB1D8AA4AA8
:1037E000ED18EB78002A05D0A34A1278934258D3FB
:1037F0009B1ADBB2002BA4D1A448A54D00F0E0FC3D
:10380000EB6808AA002150469847002800D0DDE563
:10381000602523791D4094D163790A3B012B90D810
:1038200000F0CEFC63790A2B00D13BE108A9504699
:1038300000F04AFCCAE5237A0F2B82D8924AED1891
:10384000EB78002A06D08C4A1278934200D2E2E04C
:103850009B1ADBB2002B00D073E78C488C4D00F034
:10386000AFFCEB6808AA0021504698479AE700276A
:10387000002A00D148E664E747003818814FC000AD
:103880003F683F18002A00D13EE6002F00D158E7DC
:10389000F86800F095FCFB6808AA0021504698479C
:1038A00080E7784A5D00EB181568DB00ED18002D05
:1038B00000D146E7E868A1E7A37901931A006B7885
:1038C0009A4207D06B78002B00D062E1019B002B5D
:1038D00000D0F0E0019B08A950466B7000F0F4FBAB
:1038E00074E508A800F072FCA1795046FFF722F9B0
:1038F00002222B7813432B7068E5E388012B00D05C
:103900001FE708222B7808A9134350462B7000F0BC
:10391000DBFB5BE5E388012B00D012E708222B7864
:1039200008A9934350462B7000F0CEFB4EE50220D1
:10393000297806AB9A1C8B068908DB0F01400B43E4
:10394000138008A90223504600F0D6FB3EE56B78B1
:1039500006AA0232137008A90123504600F0CCFBDE
:1039600034E5E088030AC0B20F2B00D9E9E64949E3
:103970009A008A589746484B002B00D1E1E600E0B8
:1039800000BFC37881781B0202000B43504608A990
:1039900000F0B2FB06E7414B002B00D1D1E600E07E
:1039A00000BF021E00D1CCE6137808A9504600F0F3
:1039B000A3FBF7E62189FEF771FF021EF4D1C0E6F2
:1039C000022B00D171E1364B002B00D1B9E600E0AB
:1039D00000BF002800D1B4E6C37882781B021343ED
:1039E00008A90200504600F087FBDBE6FEF74EFF19
:1039F0001223020008A9504600F07EFBD2E62348BD
:103A0000234F46E7EB1863443033DB7806AA9B0765
:103A1000DB0F023294E71B4A5D00EB181568DB00F0
:103A2000ED18002D00D18CE6E86818E72F3291469A
:103A300099444B46DB789B0700D480E55046FFF75E
:103A400037FA4B460222DB7893434A46D370D37849
:103A5000424693434A46D37071E55046FFF70EFA4B
:103A600043460222DB7813434246D370D3780122C7
:103A700013434246D37062E52E0F00200000000081
:103A8000C852001094050020FD250010ED450010DF
:103A900030530010F0520010000000000000000041
:103AA0000000000006AB9A1C08A9012350461570BF
:103AB00000F022FB8AE4581EC0B2FEF7EBFE00289D
:103AC00000D13EE643780493022B00D039E601276B
:103AD000C3795A113A40120191462A789B119046B7
:103AE0001022414691430A0049460A4320213B40A7
:103AF0008A435B0113432B7009239846C37882786D
:103B00001B021343C31880440393984500D3BEE0BF
:103B1000D146434601225B7800920B2B07D14346E6
:103B2000DB78009343461B78984443465B78042B2C
:103B300000D006E64246039B00279B1A9BB20293E5
:103B40005D4A5E4B1B78002A16D1E9E5BB4200D0E6
:103B5000AEE05B4A5B4B9246029A41464846984724
:103B6000082802D9029B834253D2544B01371B7859
:103B7000FFB2BB4200D2E4E5BB42E7D9524A7B0028
:103B80001268DB199246DB009A44534605929B6803
:103B9000E2E75046FFF702F9AB78484F464A0093F8
:103BA00000213B78002A2DD0474A91463A000F0069
:103BB0009046BB421DD800D0D9E5444B50469847AB
:103BC000434601371B78FFB2BB42F2D25322002199
:103BD0002800FEF751FB1022FF21E81CFEF74CFBEA
:103BE000280020221330FF21FEF746FB009BAB701C
:103BF0006CE64A4612687B009446DB19DB0063449E
:103C00005B68DBE7504600F069FC3B78002BDDD0B9
:103C1000ADE58446009B012B19D0009B002B23D0DF
:103C2000434699786A18D2780B00FF2A00D088E5BD
:103C30000022EB18DF700132009BD2B29A4213D2FD
:103C40005318DBB2E818C078FF28F2D079E5524665
:103C50001C4B92689A4225D043469B78EB18DA7841
:103C6000FF2A00D06DE5DF702800E2463B004146A8
:103C70001330624600F03AFE104BD0441B78BB4232
:103C800000D25EE5039B434500D942E7CA46104B8C
:103C9000002B00D11EE600E000BF1BE6084B064FDC
:103CA0009A46B7E7049B0093BAE7FEF7F3FD90E668
:103CB00000239B68FFDEC046FD2500102E0F00206C
:103CC000305300100945001094050020DD44001019
:103CD0000000000070B586B06B4605000C00981C13
:103CE0000A220021FEF7C8FA6B461D705C70032C97
:103CF0004FD009D9042C3AD0052C2ED13C4B1A7840
:103D0000D20766D406B070BD022C26D10121384BF3
:103D10001A788A431A701A780331A2431A70002263
:103D20005A701A788A431A70324B1C68E269EFF3B2
:103D3000108172B61368002BFCD0BFF35F8F216235
:103D40006946200000F01AFFE269236ABFF35F8F23
:103D50000021116083F31088D4E7264B1C68E269C8
:103D6000EFF3108172B61368002BE6D1FBE7204B0E
:103D70001A78D207C6D504211A780A431A701D4B47
:103D80001C68E269EFF3108172B61368002BD4D17E
:103D9000FBE7174B1A785207B4D504210E201A7886
:103DA00068448A431A7000210A22FEF765FA052347
:103DB00003AE73700F4B35701C68E269EFF310812E
:103DC00072B61368002BFCD0BFF35F8F2162310005
:103DD000B7E704211A788A431A70064B1C68E26917
:103DE000EFF3108172B61368002BA6D1FBE7C04633
:103DF000CC0800202409002070B584B06B46060072
:103E00000D000A220021981DFEF736FA012301ACAD
:103E100063700E4B25711D682670EA69EFF31083FD
:103E200072B611680029FCD0BFF35F8F2B622100AE
:103E3000280000F0A3FEEA692B6ABFF35F8F002120
:103E4000116083F3108804B070BDC04624090020BF
:103E5000002330B585B001AD6B8028700633082291
:103E600002A86B70FEF70EFA0C4B1C68E269EFF3C8
:103E7000108372B611680029FCD0BFF35F8F2362F4
:103E80002900200000F07AFEE269236ABFF35F8F09
:103E90000021116083F3108805B030BD2409002093
:103EA000F0B5C64600B584B01D006B4680460F00D5
:103EB000160000210622981DFEF7DEF9434601ACEC
:103EC0002370072363700F4B65711D682771A6600F
:103ED000EA69EFF3108372B611680029FCD0BFF3D2
:103EE0005F8F2B622100280000F048FEEA692B6AF0
:103EF000BFF35F8F0021116083F3108804B004BC0E
:103F00009046F0BD24090020F0B54646D6464F46FF
:103F10008046C0B50C0015001E00002A3ED04B782C
:103F2000052B08D1CB789B079B0FB34203D170229E
:103F30008B781A4205D000201CBC90469946A246B8
:103F4000F0BD174B0027994670239A464B46200038
:103F5000997800F091FC0028EDD021004046FEF752
:103F6000ABFE0028E7D0A378DA09012A13D0089A1B
:103F7000137023780137E418AF420FDA6378052B0A
:103F8000D9D1E3789B079B0FB342D4D15246A37893
:103F90001A42D0D1DAE7099A1370EAE70120CBE799
:103FA000CC080020702270B58B7805000C001A42F6
:103FB00001D0002070BD064B2000997800F05CFC19
:103FC0000028F6D021002800FEF776FEF2E7C04672
:103FD000CC0800207F2370B50B40144D5B00C9094D
:103FE000ED186D183035EC78E407E40F17D1EB7855
:103FF0005B0701D5200070BD01210D4E494230689C
:1040000001F022F8EC78E407E40F0AD1EB785B07C3
:1040100008D40422EB7801241343EB7002E000245F
:10402000E8E70024306800F0F7FFE3E7CC08002061
:104030002009002070B50D0001210F4C4942206875
:1040400001F002F87F2129404B000C49ED09C91805
:1040500049193031CB780025DB0707D4CD786D07BF
:10406000ED0F03D00422CB789343CB70206800F08F
:10407000D3FF280070BDC04620090020CC080020D6
:1040800070B57F240C4065000E4C06006419C80909
:1040900024183034E5780020ED0700D570BD0125E7
:1040A000E0782843E0703000FEF7D6FE0028F5D116
:1040B0000122E3789343E370E37803329343E370A0
:1040C000ECE7C046CC08002070B50A4C0600082278
:1040D00020000D00FEF7D6F8002169560023C943E1
:1040E000C90F3000E360C9010022A360FFF7C8FFD9
:1040F00070BDC04670080020F0B5C6469046294CF9
:10410000082200B5060020000D001F00FEF7BAF8D7
:104110004346A3600023E381EB79AA791B02134392
:104120001A1CBB4200D93A1C97B2A281002B12D0B4
:10413000002F1DD04346002B31D03B1C402F1DD8F3
:104140009FB223787F2B1ED80021174A3B003000F6
:10415000FFF796FF09E0002169560023C943C90F04
:10416000C90100223000FFF78BFF04BC9046F0BD70
:1041700023787F2B10D980210022E7E740239FB2CC
:1041800023787F2BE0D9084C3A0041462000FEF707
:1041900079F880212200D9E700210022D6E700200B
:1041A000E3E7C046700800208C08002010B51422F8
:1041B00000210248FEF760F810BDC04670080020DC
:1041C000014B18617047C0467008002010B5054CBF
:1041D000010008222000FEF755F80023A360E360E9
:1041E00010BDC04670080020F8B53B4C1D00237878
:1041F0000600DA09C9098A4213D00020002D00D038
:10420000F8BD364B002B03D021003000FEF746FDF1
:104210002369002B43D0220002213000984701205F
:10422000EEE7A0687F2B06D8002836D02A002C495C
:10423000FEF728F8A068E289E388521992B2401983
:10424000E281A060934214D03F2D12D9A589A91A0A
:104250000F1C89B240292ED82378BFB27F2B2CD8CF
:104260000021AA4235D01E4A3B003000FFF708FF6C
:10427000C6E72369002B05D02200012130009847B2
:1042800000280ED0002161560023C943C90FC9017F
:1042900000223000FFF7F4FEB2E70020B0E7012073
:1042A000AEE700213000FEF7E9FD30008021FEF787
:1042B000E5FD0120A4E74027CEE78021AA4208D0EF
:1042C000074C01003A002000FDF7DCFF80212200AE
:1042D000CAE70022C8E7C046700800209D2C0010E5
:1042E0008C08002010B50400FEF7E0FF002801D183
:1042F000002010BDFEF7E2FF0028F9D1B6208000B3
:10430000444303480019037901201840F1E7C046EF
:1043100098050020B6239B00584310B5024B10307F
:10432000C01800F035FB10BD98050020F0B5B6258B
:10433000AD0045432C00C646174E1034A41900B5F5
:1043400092B2200000F09EFB0700200000F03AFB34
:104350003F2803D8380004BC9046F0BD7319D978C3
:1043600000209846FFF736FE0028F3D0200000F02A
:1043700029FB3F280AD996239B00EA184346921945
:10438000D97800204023FFF77BFEE3E74346002077
:10439000D978FFF74FFEDDE798050020F8B5050056
:1043A000FEF784FF002801D10020F8BDFEF786FF4C
:1043B0000028F9D1B624A4006C432500144E2C35F6
:1043C000AD19280000F0E4FA0028EDD03719B978CB
:1043D0000020FFF7FFFD0028E6D0A6239B009C46A7
:1043E0006444A41921002800402200F04BFBB97856
:1043F000051E08D0030022000020FFF741FE002820
:10440000D2D02800D1E70020FFF714FECCE7C04649
:104410009805002070B5B624A4004443094B2C3401
:10442000E418050092B2200000F0E8FB060020002E
:1044300000F0AEFA3F2801D8300070BD2800FFF729
:10444000ADFFF9E798050020B6239B00584310B54F
:10445000024B2C30C01800F0B5FA10BD98050020B2
:10446000B622F0B51B4C83B0920000212000FDF76E
:1044700003FFFF236371184B80260025E38001278B
:104480000823210020007600237327813200483161
:104490000095073B103000F03FFA21002000493121
:1044A0003200FF31009701232C3000F035FA9223BF
:1044B0009B00E6183000FDF7A1FA94239B00A6624A
:1044C000E61865623000FDF799FA2664656403B06A
:1044D000F0BDC0469805002000C2FFFF10B5094C92
:1044E000052200212000FDF7C7FE20002C341030EB
:1044F00000F002FC200000F0FFFB0121200000F092
:1045000021FC10BD98050020F0B54B7983B0060062
:10451000022B02D18B79022B03D00024200003B0A0
:10452000F0BD2F4FBB78002BF7D18B7809243B705F
:104530000D784D196B78242B0BD1082A02D80FE087
:10454000A2420DD32B78ED18E4186B78A4B2242B7B
:10455000F6D0052B20D0042B02D16B790A2B2ED05C
:10456000204D280000F02EFA3F28D7D92E00103E0B
:10457000F1780020FFF72EFD0028CFD0280000F0B2
:1045800021FA3F2816D992239B00EA18F17840239C
:104590000020FFF775FDC1E729003000FFF702FD9D
:1045A0000028BAD0AB787B702B78E418ED18A4B251
:1045B0006B78D0E7F1780020FFF73CFDAEE70A4BBF
:1045C0002F78019301330093E9190223022230006E
:1045D000FFF79AFC0028A0D00E34E419A4B2BFE77C
:1045E00098050020A80500209A050020F8B5602352
:1045F0001400127813400022202B14D12D4D637922
:1046000027792E781B023B439E420CD16378212BE5
:1046100036D00AD9222B17D0232B04D1002944D01D
:10462000022936D001221000F8BD202BFBD1002931
:1046300028D00229F6D1204B002BF3D0A91D002051
:10464000FDF7E2FF0122EEE700292ED00229E9D191
:104650000126A178E478280024020C4331002C7153
:10466000A1432C3000F06EFB144B002BDAD031004C
:10467000620832402140002000E000BF0122D2E762
:104680000029CFD10E4A07232100FFF735FD012273
:10469000C9E70C4B002BC5D0E178A3780902194378
:1046A000002000E000BF0122BDE72100FFF70CFD64
:1046B0000122B8E79805002009260010000000003C
:1046C0009E05002000000000F8B557464E464546BE
:1046D000DE46E0B55E4C1F00E37881460D008B425C
:1046E00065D196239B00E61810239846A044BAB2E1
:1046F0003100404600F082FA564B002B19D0637906
:10470000FF2B16D0002F14D0F2199246A34603E0D7
:104710000136B2450DD0637932789A42F8D14046DD
:1047200000F048F90028F3D15B46597900E000BF5A
:10473000EEE7494B002B05D0404600F03BF900283E
:1047400000D177E0404600F03DF93F2859D8424675
:10475000103A9378AB4207D0012420003CBC90462D
:104760009946A246AB46F8BD3C4B002B02D0002038
:1047700000E000BFFEF79AFD00281DD1384C200054
:1047800000F006F90028E7D1002FE5D0BB06E3D101
:104790002C3CA1784846FFF71DFC2500041EDBD009
:1047A000A978002300224846FFF76AFCD5E7A378E2
:1047B0008B42D9D00024D0E7FEF780FD284C00289A
:1047C000DDD1200000F0E4F80028D8D025002C3DF1
:1047D000A9780020FFF7FEFB0028D0D09B239B0088
:1047E000E61831004022200000F04CF9A97800289A
:1047F00029D0030032000020FFF742FC0028ABD193
:10480000BDE74446103CE1780020FFF7E3FB0028B9
:1048100001D1A3789EE7404600F0D4F83F280CD998
:104820009222920040234244E1780020FFF728FCC6
:10483000A3788FE700E000BF84E7E1780020FFF76E
:10484000F9FBA37886E70020FFF7F4FB97E7C04663
:10485000980500200000000000000000000000009B
:10486000C405002010B50020FEF736FD10BDC0467F
:1048700010B5FEF72BFD10BD072310B54479027962
:1048800023401B021A43C3789B079B0F022B0DD0BA
:1048900014D80020012B08D102394B425941114B49
:1048A0009C46614491424041C0B210BD022912D0E1
:1048B0000020402393424041C0B2F6E702394B4208
:1048C0005941F023002049429B0019404031914258
:1048D0004041C0B2E9E7044B9C466244504250411B
:1048E000C0B2E2E7FF03000000FEFFFFF0B5002AC0
:1048F00011D000247F274D78052D06D13D008E78FC
:1049000035406D00F6094519AB550D786419A4B210
:104910004919A242EFD8F0BDF0B5C64600B51E0059
:1049200006AB1B780400984680230F0015001B027D
:104930009A422AD84069002803D00121494200F058
:1049400083FBA069002803D00121494200F07CFBD1
:104950004346A5806D00ADB223726B1EA381002378
:1049600060696D42E3812760E680658123820028CB
:1049700001D000F051FBA0690124002801D000F013
:104980004BFB200004BC9046F0BD0024F9E7C04674
:10499000C189028A89B292B28B1A9BB2914202D229
:1049A00042899B1A9BB28288101C9A4200D9181C1B
:1049B00080B27047C389008A181A43425841C0B276
:1049C0007047C04610B5C489018AA4B289B2621A80
:1049D000838892B28C4202D24089121A92B2981AFB
:1049E00080B210BD70B5040080690D00002803D0AE
:1049F0000121494200F028FBE289218A92B289B262
:104A0000531A9BB28A4202D260891B1A9BB2A088B9
:104A1000984221D3002B02D127E0091A89B288429B
:104A2000FBD92368E2889C46514328006144FDF786
:104A300029FC228A012592B2531C9BB29A4217D9B3
:104A4000002362899B189BB2A0692382002801D0B1
:104A500000F0E2FA280070BD82420DD26389C318CB
:104A6000D31A9BB22382031ED9D10025238A9BB27D
:104A7000A2899A42E8D2E4E7131AA6899BB29E4221
:104A8000F0D2EBE7F0B54F464646D64605008069C2
:104A9000C0B589469046002803D00121494200F064
:104AA000D3FAEB892C8A9BB2A4B21E1BB6B2A342E6
:104AB00002D26A89B61AB6B2AF88B7423DD3002E89
:104AC00047D04346B04550D89EB2A74203D8E41B16
:104AD000A4B2A742FBD9EB88381B190098462B6873
:104AE00061439C4680B26144B04238D24346584349
:104AF00083B21A0048469A46FDF7C4FB434648462F
:104B0000F71BE4195C435044A2B22968FDF7BAFBD5
:104B10002A8A92B293199BB29A421CD96A899B182D
:104B20009BB2A8692B82002801D000F075FA3000F2
:104B30001CBC90469946A246F0BDBB4217D26A897A
:104B4000BA189A1A92B22A822C8A3E00A4B2002E77
:104B5000B7D12B8A9BB2AA899A42E2D2DEE74246BB
:104B600048467243FDF78EFBD2E7331CACE7DA1BF5
:104B7000A98992B29142E6D2E1E7C046F8B50400B5
:104B800040690E00002803D00121494200F05CFA80
:104B9000E589238AADB29BB2EA1A92B2AB4202D93E
:104BA0006389D21A92B2A388934222D028009D42F0
:104BB00003D3C01A80B28342FBD92368E2889C46A3
:104BC000504331006044FDF75DFB6B1C9BB29D427E
:104BD0000BD962899B189BB26069E3810127002889
:104BE00001D000F019FA3800F8BDA2899A42F3D238
:104BF000EFE7277A002FD9D1F5E7C046F8B54E4642
:104C00004546DE4657468946E0B50500161E58D093
:104C10004069002803D00121494200F015FAEA88D2
:104C2000EF899046298A2A7ABFB289B2AB88002AD6
:104C300038D17A1A92B28F4202D26989521A92B24C
:104C40009A1A111C92B2B2424FD88EB2F41AA2B282
:104C500092463C009F4203D3E41AA4B29C42FBD28A
:104C600040462A68604394461B1B9BB26044424600
:104C70009E4228D872434946FDF704FBF3199BB2C4
:104C80009F421AD8AA899A4217D36869EB810028F3
:104C900001D000F0C1F930003CBC90469946A246D4
:104CA000AB46F8BD9E4222D34246F61A5643002236
:104CB000B1440F001E009246CBE76A899B189BB255
:104CC000E3E70026E7E753439BB21A0049469B46B9
:104CD000FDF7D8FA22004346494652445A43594404
:104CE00092B22868FDF7CEFAC8E7311CADE7F41A96
:104CF000A2B29246ADE7C04610B504004069002854
:104D000003D00121494200F09FF9A069002803D097
:104D10000121494200F098F90023E3812382A3880E
:104D200060695B009BB25A1E5B42A28163810028CE
:104D300001D000F071F9A069002801D000F06CF9F1
:104D4000012010BD70B5040040690D00002803D09B
:104D50000121494200F078F9A069002803D001211F
:104D6000494200F071F960692572002801D000F015
:104D700053F9A069002801D000F04EF9012070BD60
:104D800010B5024800F0EAF810BDC046F00E002051
:104D9000013930B5002900D1B8E06F4B1A781211F3
:104DA000D5B22C003034092A00DDB2E004700129AC
:104DB00000D1CEE00F221C78224014003034092AA2
:104DC00000D9A8E04470022900D1C2E05A7812113B
:104DD000D5B22C003034092A00DD9FE0847003290D
:104DE00000D1B6E00F225C78224014003034092A4A
:104DF00000D995E0C470042900D1AAE09A78121174
:104E0000D5B22C003034092A00DD8CE0047105296C
:104E100000D19EE00F229C78224014003034092AF1
:104E200000D982E04471062900D192E0DA781211AB
:104E3000D5B22C003034092A00DD79E084710729CD
:104E400000D186E00F22DC78224014003034092A99
:104E500000D96FE0C471082900D17AE01A791211E3
:104E6000D5B22C003034092A67DC0472092900D13C
:104E70006FE00F221C79224014003034092A5ED8DA
:104E800044720A2965D05A791211D5B22C003034F7
:104E9000092A57DC84720B295BD00F225C792240EF
:104EA00014003034092A4FD8C4720C2951D09A7991
:104EB0001211D5B22C003034092A00DD07340473F6
:104EC0000D2946D00F229C79224014003034092A43
:104ED00001D93732140044730E293AD0DA7912110D
:104EE000D5B22C003034092A00DD073484730F2931
:104EF0002FD0DA790F2313401A003732092B01D84B
:104F000030331A00C273102923D0103000230370ED
:104F100030BD07344AE73732140053E707345DE702
:104F20003732140066E7073470E73732140079E748
:104F3000073483E7373214008CE7073495E73732BC
:104F400014009DE70734A5E737321400C4720C291A
:104F5000ADD14018DAE7C046F00E002010B588B099
:104F600004000D2200216846FDF786F90D2200217C
:104F700004A8FDF781F94B236A4604A9137068461B
:104F80000D2200F041F81521082269442000FDF7A8
:104F900079F908B010BDC04610B5830727D0037853
:104FA000002B26D00300032102E01A78002A1CD02F
:104FB00001330B42F9D119680F4A104C8A188A4301
:104FC00022420FD1043319680B4A8A188A432242BD
:104FD00008D104331968084A8A188A432242F1D05A
:104FE00000E001331A78002AFBD1181A10BD030023
:104FF000E1E70020FAE7C046FFFEFEFE80808080E9
:10500000F8B5C0460000000001B40248844601BC67
:10501000604700BF8902002001B40248844601BCF9
:10502000604700BFE901002001B40248844601BC8A
:10503000604700BF3D03002001B40248844601BC24
:10504000604700BF0901002001B40248844601BC4A
:10505000604700BF5101002001B40248844601BCF2
:08506000604700BFC100002001
:105068004E6F207370696E6C6F636B73206172652D
:1050780020617661696C61626C6500004E6F207515
:10508800736572204952517320617265206176619F
:10509800696C61626C650000486172647761726571
:1050A80020616C61726D20256420616C7265616499
:1050B8007920636C61696D65640000004861726401
:1050C80020617373657274000A2A2A2A2050414E9F
:1050D8004943202A2A2A0A000A00000006005250E2
:1050E800BBFF3CB62851001006005250E182887F71
:1050F8001051001006005250D3F0754208510010AC
:1051080052656C6561736500626F6F74325F7732E8
:105118003571303830000000312E342E3000000058
:105128007069636F000000005365636F6E644C65BF
:105138006450757368627574746F6E730000000054
:105148004F63742032332032303235000D0A0000AC
:105158005D250010612500106D25001099250010AF
:1051680095250010000000000600525053B4F4A129
:105178007C51001055534220737464696E202F20AF
:105188007374646F75740000526173706265727233
:1051980079205069000000005069636F000000002A
:1051A800426F617264204344430000005265736596
:1051B8007400000009025400030100807D080B0000
:1051C8000202020000090400000102020004052492
:1051D8000020010524010001042402020524060020
:1051E800010705810308001009040100020A0000F4
:1051F800000705020240000007058202400000097E
:1052080004020000FF00010512010002EF02014044
:105218008A2E0A00000101020301000000000000BC
:1052280090510010A0510010180F0020A851001034
:10523800B4510010556E68616E646C656420495203
:105248005120307825780A00657020256420257360
:105258002077617320616C72656164792061766181
:10526800696C61626C65000043616E277420636F2E
:105278006E74696E75652078666572206F6E206938
:105288006E616374697665206570202564202573D6
:10529800000000006F757400696E0000CC330010C8
:1052A80056360010E83500109C3500107E35001089
:1052B800663500106C3400101A3400100E340010DB
:1052C8002E3900101439001042370010FA38001037
:1052D80042370010E23800106239001042370010DF
:1052E8004E390010B838001042370010EC39001061
:1052F800C0390010B439001042370010423700108E
:1053080096390010C039001042370010423700109B
:105318004237001042370010423700104237001061
:10532800423700107639001061440010DD44001047
:1053380009450010ED450010C946001000000000A6
:10534800B4020010A80200109C020010E4500010E3
:1053580090020010F0500010FC5000107051001026
:10536800D02330B500251B065D57002406E00368EE
:10537800BFF35F8F1C6081F3108820BF0268EFF3D2
:10538800108172B61368002BFCD0BFF35F8F0379CE
:105398007F2BECD905710368BFF35F8F00221A6079
:1053A80081F3108830BDC046030010B50068EFF3E4
:1053B800108472B60268002AFCD0BFF35F8F042203
:1053C8009A56002A0BDB00290FD000200A601B68C0
:1053D800BFF35F8F00221A6084F3108810BDD022BB
:1053E8001206126801201A71F1E70020EFE7C046A3
:1053F800F0B5C64600B50C00804600F001F9FA2267
:1054080006000F00200092000023002100F0E8F8B9
:105418008019794104000D008F422FD82CD0D02359
:105428001B061F6800260CE042461268BFF35F8F18
:10543800166083F310882000290000F0D9F80028AE
:1054480020D143461A68EFF3108372B61168002919
:10545800FCD0BFF35F8F424612797F2AE4D94246D7
:1054680017711268BFF35F8F0021116083F31088F2
:10547800012004BC9046F0BD8642D0D90124644284
:10548800E517CCE70020F4E70268EFF3108172B665
:105498001368002BFCD0BFF35F8FFF2303710368F1
:1054A800BFF35F8F00221A6081F3108840BF7047F6
:1054B800084810B50378002B0AD180230649074A0B
:1054C8005B051C68CC5004339342FAD10123037066
:1054D80010BDC046300F0020380900100001001030
:1054E80010B5024B0133984710BDC046380900205B
:1054F800054B1A6880239B005340C022920013403A
:10550800024A13607047C0460C8001400C9001406D
:10551800034B1A68C0239B009343024A13607047E9
:105528000C8001400C900140F0B5D6464F464646E7
:105538001423C0B51827984681460D0018882449B9
:105548003B881400984743468246224918883B887E
:10555800984743462049060018883B889847804664
:10556800FFF7A6FFD047B047FFF7C2FF002C24D0B3
:10557800C020220040050826163F11E04B461B7844
:10558800013C036601239C46E144002905D0002A1A
:1055980003D0036E013A2B700135130023430CD05E
:1055A8003100836A19401F42EFD0002CEDD0131B45
:1055B8000D2BE3D90029EAD1F2E7FFF7A9FFC0478D
:1055C800FFF78EFF1CBC90469946A246F0BDC04628
:1055D8004946000045580000464300007047C04651
:1055E80001B40248844601BC604700BFA1210010F5
:1055F80001B40248844601BC604700BFC1100010D6
:1056080001B40248844601BC604700BFE1110010A4
:105618001000000000000000000001000000000071
:105628000000000000000200000000000000000070
:105638000000030000000000000000000000FF0060
:105648000000000000B5486801318E4600477046EA
:1056580009380149884700BDE9090010D403002032
:105668000000000070040020640A00200000000010
:1056780000000000740A0020000000000000000084
:105688001000000000000000000000000000000002
:10569800503300004C3300005433000052330000F4
:1056A8004D5300004D4300005334000043340000C4
:1056B800A5260010000000003D2600100000000094
:1056C800000100009C520010A05200103811002068
:1056D80010000C000000E0FF1F00000000000000A8
:1056E80000000000000000000000000000000000B2
:1056F80000000000000000006922001001200010D6
:10570800B9200010D521001039030010814D001078
:04000005100001E9FD
:00000001FF
