:020000041000EA
:1000000000B5324B212058609868022188439860DF
:10001000D860186158612E4B002199600221596106
:100020000121F02299502B49196001219960352056
:1000300000F044F80222904214D00621196600F024
:1000400034F8196E01211966002018661A6600F04E
:100050002CF8196E196E196E052000F02FF8012189
:100060000842F9D1002199601B49196000215960AB
:100070001A491B48016001219960EB211966A021F2
:10008000196600F012F800219960164914480160C1
:100090000121996001BC002800D000471248134993
:1000A000086003C880F30888084703B5996A0420EC
:1000B0000142FBD001200142F8D103BD02B5186610
:1000C0001866FFF7F2FF186E186E02BD00000240BE
:1000D000000000180000070000035F00212200005C
:1000E000F4000018222000A00001001008ED00E03C
:1000F00000000000000000000000000074B24E7A12
:1001000000200420F7010010C3010010C5010010F9
:10011000C1010010C1010010C1010010C101001097
:10012000C1010010C1010010C1010010C701001081
:10013000C1010010C1010010C9010010CB01001065
:10014000CD010010CD010010CD010010CD01001037
:10015000CD010010CD010010CD010010CD01001027
:10016000CD010010CD010010CD010010CD01001017
:10017000CD010010CD010010CD010010CD01001007
:10018000CD010010CD010010CD010010CD010010F7
:10019000CD010010CD010010CD010010CD010010E7
:1001A000CD010010CD010010CD010010CD010010D7
:1001B000CD010010CD010010CD010010CD010010C7
:1001C00000BE00BE00BE00BE00BE00BE00F04BF888
:1001D000103800BEF2EB8871E822001004230010F2
:1001E0003402001090A31AE700202149086006C8D5
:1001F00081F3088810471F48006800282FD10DA4FC
:100200000ECC002902D000F012F8F9E71A491B4A77
:10021000002000E001C19142FCD1194988471949E9
:1002200088471949884700BEFDE701C901C29A42C3
:10023000FBD3704704230010C00000202C020020D4
:10024000702400100000042000000420702400101E
:1002500000100420001004200000000070470B482C
:1002600001F010FD0047EFF30580C0B270470000B9
:1002700008ED00E0000000D030020020FC05002066
:10028000611700105D03001055180010575600004C
:1002900006005250ABB36053B82200100600525013
:1002A000861C0302C8220010060052505422A29D50
:1002B000D822001005005250DE65F468702400104A
:1002C000F8B5C0460448054B10B5834203D0044B33
:1002D000002B00D0984710BD2C0200202C020020DB
:1002E0000000000006480749091A8910CB0F591869
:1002F00010B5491003D0044B002B00D0984710BD17
:100300002C0200202C0200200000000010B5074C39
:100310002378002B09D1FFF7D5FF054B002B02D026
:10032000044800E000BF0123237010BD300300200B
:100330000000000038220010054B10B5002B03D040
:100340000449054800E000BFFFF7CCFF10BDC046E0
:10035000000000003403002038220010002000F0CC
:100360004BF80020012100F033F8012000F044F8A0
:100370000120012100F02CF8022000F03DF80220BD
:10038000012100F025F80020012100F02BF80F4892
:1003900000F02CFD0020002100F024F801200121B4
:1003A00000F020F8094800F021FD0120002100F0B4
:1003B00019F80220012100F015F8044800F016FD9C
:1003C0000220002100F00EF8DDE70000C800000068
:1003D0000123D02283401206002901D053627047C6
:1003E0009362FCE70123D02283401206002901D04A
:1003F000536170479361FCE70123D02283401206CA
:1004000093629361094A83009446402263441968C9
:10041000C0004A40C021114080225201134319609C
:10042000034B9C46052360444360704704C0014071
:1004300000400140F8B5EFF3108772B60D4E3368F7
:10044000002BFCD0BFF35F8F0725CB08C01801231A
:100450000D40AB401D000478254007D123430370B5
:10046000BFF35F8F356087F31088F8BD100001F08F
:10047000F3F9C0462C0100D0024B18688007C00F6A
:100480007047C04600C006400021044B044ABFF339
:100490005F8F02C39342FAD17047C046000100D07B
:1004A000800100D0044A1078431CDBB2172B00D91E
:1004B000102313707047C0467C0100200123834045
:1004C000002904D0034A1360034A13607047034AAB
:1004D0001360FBE780E200E000E100E080E100E083
:1004E000024B10309B688000C058704700ED00E060
:1004F00070B50D00EFF3108672B60F4A1368002B2B
:10050000FCD0BFF35F8F0D4B10309B6884001B59EC
:100510000B4A934203D09D4201D001F0B5F9074B3D
:100520009B681D51BFF35F8FBFF35F8F0022024BAB
:100530001A6086F3108870BD240100D000ED00E041
:10054000CD010010F0B54546DE4657464E46E0B5B3
:100550000D0083B0EFF3108A72B65A4A1368002B6D
:10056000FCD0BFF35F8F1022914681444A46564B20
:1005700096009B689C59554B98469C4205D0AC42CE
:1005800016D0534FE31B2F2B14D94F4B9B689C5114
:10059000BFF35F8FBFF35F8F00224A4B1A608AF36D
:1005A000108803B03CBC90469946A246AB46F0BDCD
:1005B0001C00EAE7012383409B465A46454B1B68D3
:1005C0001A4000925A46444B1A60BFF35F8FFFF700
:1005D0004AFE0190002803D0814501D001F054F972
:1005E0000123220006219A43936851569D420AD165
:1005F00052E04B005B1806219B00FB189868595687
:10060000A8420FD01A000029F3DA009B002B05D076
:100610005A46324B1A602F4B1A60B6E75A462E4B99
:100620001A60B2E7002921DB4A00501880003D180B
:100630008046A8689860E879D87106202856987195
:10064000002826DBAD88F81A6D052D1545444019A4
:10065000E0250005400D2D02284398805218204BBC
:100660009200BF181A781970BA71CEE70199002963
:1006700018D1002A23D0FF3191711A49918018496D
:100680000A789A71184ADB1B5B415A43120D0A70B3
:10069000BBE7BD200002E0E713000029C4DA019A9D
:1006A000002A0CD0114A1249D21A083A5002400DC1
:1006B000014399800F4952080A43DA80A5E744466E
:1006C000DDE7C046240100D000ED00E0CD010010C0
:1006D0008001002000E100E080E100E080E200E035
:1006E000F903002000BDFFFFAAAA0000BA01002004
:1006F00000F0FFFF00F8FFFFF8B5012504000543F7
:10070000FFF7B1FDEFF3108672B6214A1368002B94
:10071000FCD0BFF35F8F1F4B1F4A2100C91A49410C
:100720004A43120D1D4980008F6852B23F58AF42B4
:100730001CD00621595691421CD012215956914283
:1007400022D01E215956914220D02A2159560320E9
:10075000914210D0124B19781A70A171BFF35F8FBC
:1007600000220B4B1A6086F31088F8BD8B680D4988
:100770001950EFE700204100091889005B18FF219C
:10078000997109499980E5E70120F4E70220F2E731
:10079000240100D080010020AAAA000000ED00E0A2
:1007A000F9030020CD01001000BDFFFF054B064AF4
:1007B0001360064A136053609360D3601361536102
:1007C000936170478080808000E400E004E400E0F2
:1007D000024B9C4661448900016070474000003430
:1007E00083680B4810B584466144624409011201D4
:1007F0009A18591854684B6801209C4201D802D0BD
:100800000020C0B210BD12680B689A42F9D8F7E711
:10081000FFFFFF0F0A4B1968EFF3108072B60A68EA
:10082000002AFCD0BFF35F8F1B68BFF35F8F0022ED
:100830001A6080F3108840BF002000217047C04636
:10084000E4030020F8B5454657464E46DE46E0B57F
:1008500014000DAA12781D000CAB92461B7802689A
:1008600081469046002B13D1977B002F4AD04046FB
:100870007E001268F619033E921951783B0081738D
:10088000002900D1C173002191705170117003E0F3
:100890001F005E00F618033E2E4A94464A469268B0
:1008A000634494461B010A9A63449A600B9A1C6045
:1008B0005D60DA60434600221B689B199A705A708B
:1008C0001A7043465B7B9B46002B2BD043463A0075
:1008D000986859465B6898475B4642465B005B44B4
:1008E000033B1268002814D0D31896195A46B270E8
:1008F0001A78002A00D072701F705A4643465A7305
:10090000BB4511D038003CBC90469946A246AB4648
:10091000F8BDD31896199F703278002A00D05A700B
:100920005B46337043465F734B462200187D2B00B5
:1009300000F03EFB041E07D05346002B04D14B466B
:100940003900186800F0B2FE0E9B002BDAD01C7044
:10095000D8E7C046FFFFFF0FF0B5DE4657464E46CC
:1009600045460023E0B58DB00A936D4B8200D45804
:1009700000239B460B9000F0B9FA6268EFF31085F4
:1009800072B61368002BFCD0BFF35F8F23689C46C0
:100990005B7B9946002B00D16BE0A268614B9046CF
:1009A0004B441B01984443461E685F6832003B007D
:1009B000121A8B41002B65DD3B0032000B9800F0D2
:1009C000F7FA0023002208920993002300279A4691
:1009D0006368BFF35F8F5A461A6085F310885346E9
:1009E000002B08D10028C6D10DB03CBC90469946DA
:1009F000A246AB46F0BD0A9B390018024B4618438D
:100A0000D047626806900791EFF3108872B6564699
:100A100045461368002BFCD0B246A846BFF35F8F53
:100A20000699079A131E49DB194302D02369002B4C
:100A30005FD12368DA7B002A07D051008A18196831
:100A40008C4649466244033A51704A46DA73E2687A
:100A50004B469446013B63441A7801321A705B4658
:100A600023616368BFF35F8F5A461A6088F310886A
:100A700081E70023002208920993002300279A4669
:100A80000020A5E7002B01D1002A95D10021604666
:100A900000F02EFD43461A685B68089209934346AE
:100AA0009B689A464346DF68E3684B44013B1B78EA
:100AB0000A931B0203432361002089E72369002B6B
:100AC000B7D0089D099E6D1A96412A003300089DF3
:100AD000099E9E4218D81BD05946049101210391CA
:100AE000494602915146019700912000FFF7AAFE66
:100AF000B5E700F0FBF9069A079B12184B419942A3
:100B000002D8E9D19042E7D901225242D317E3E754
:100B100008999142E0D901225242D317DCE7C0463E
:100B2000D0030020FFFFFF0F10B5124C6368002BAD
:100B300004D00A211048FFF74BFE10BD23000F4AD6
:100B40001021206800F0F6FA032000F0C3F903201A
:100B500000F0A2FA0A49032000F0E4F9FFF7A2FC32
:100B6000084B9C46032360442375074B800060605C
:100B7000DC60DEE7C8010020E4030020E10700108C
:100B80005909001040000034D0030020F0B557464A
:100B90004546DE464E46E0B585B00092019310AB67
:100BA0001B7800270393002380469A4643465A68E1
:100BB000EFF3108972B61368002BFCD0BFF35F8F80
:100BC00043461D68AC7B002C4FD0660036192B685D
:100BD000033E9B195A78AA73002A00D1EA73424651
:100BE0009F705F701F7092684E4B94460099019AF7
:100BF000E3181B01634419605A600E9A9A600F9AB9
:100C0000DA602B689B199F705F701F706B7B9B462F
:100C1000002B42D022001900A8686B6898475B46F9
:100C20005B005B44033B2A6800282DD0D31896193B
:100C30005A46B2701A78002A00D072701C705B4657
:100C40006B735C452AD04346DB681B19013B18785F
:100C500043465B68BFF35F8F1F6089F3108853467C
:100C6000002B2AD10002204307E05B68BFF35F8FAF
:100C70001C6089F310880120404205B03CBC9046BE
:100C80009946A246AB46F0BDD31896199C703278AF
:100C9000002A00D05A705B4633706C734346187D4F
:100CA000009A019B00F084F982460028CBD043468D
:100CB0002100186800F0FAFCC5E7039B002B2FD039
:100CC0000E9B0F990020984703000B4328D0040087
:100CD0000D1E0DDA0098019902000B00121BAB41AA
:100CE000994213D818D000920193039B9A465DE76E
:100CF00000F0FCF824184D4123002C0000930194CF
:100D0000A94203D8F1D1009B9842EED901235B425E
:100D1000DC1700930194E8E700999142E3D9F5E7E5
:100D20000020AAE7FFFFFF0FF0B504000D00062624
:100D30007642F717C64636196F4100B584B08F4228
:100D400014D811D000F0D2F832003B00121A8B41B7
:100D5000002B15DC002B3ED02000290000F0D2F83B
:100D600004B004BC9046F0BD8642EBD900260027B3
:100D700000F0BCF832003B00121A8B41002BE9DD79
:100D8000002302930193154B3200009314483B005B
:100D9000FFF7FCFE0028DFDB00239846BC46114A23
:100DA000114F7B6A9C4504D8B96AB142D4D29C45A4
:100DB000D2D11168EFF3108072B60B68002BFCD013
:100DC000BFF35F8F1368BFF35F8F4146196080F3F5
:100DD000108820BFE5E7002ABED0D1E71508001033
:100DE000C8010020E40300200040054070B5060063
:100DF00000F07CF8FA2204000D009200002330007D
:100E0000002101F007F8001969418D4205D802D090
:100E1000FFF78AFF70BD8442FAD901204042C11712
:100E2000F6E7C046F0B5C64600B5EFF305833F22AE
:100E3000134018001038EFF3108772B61F4D2A6860
:100E4000002AFCD0BFF35F8F012211008140884649
:100E500044461B494C631B4C2678A4463400C440CE
:100E6000224015D04C6A1849820051588C4217D341
:100E7000164BD25843469E4363461E70BFF35F8FA6
:100E800000232B6087F31088002A06D0904704E0E7
:100E9000BFF35F8F2A6087F3108804BC9046F0BDD3
:100EA0000B4A9B00944663441A681A60BFF35F8F35
:100EB00000232B6087F31088EFE7C046280100D09D
:100EC00000400540FA030020E80300204C03002006
:100ED000D03F054010B50100024A0348FFF7AAFAC7
:100EE00010BDC04638220010F8030020044A516AA1
:100EF00000E01900906A536A9942FAD17047C046DF
:100F000000400540064A536A9942FCD807D1044B79
:100F100002E05A6A914202D19A6A8242F9D370473A
:100F20000040054070B504000D00EFF3108672B666
:100F30001A4A1368002BFCD0BFF35F8F002D1BD023
:100F40002000FFF7CDFA164988420AD02000FFF7AB
:100F5000CFFA01212000FFF7B1FA0123A340114A83
:100F60001360114BA400E550BFF35F8F00220B4BC1
:100F70001A6086F3108870BD0B4BA200D550012279
:100F8000A2400A4920000B7893430B700449FFF7F5
:100F9000D9FA00212000FFF791FAE5E7280100D0F7
:100FA000250E0010386005404C030020FA03002095
:100FB000F0B5D6464F464646324CC0B5656A00E0AD
:100FC0000D00A66A616AA942FAD1AB4209D806D0DF
:100FD000012420001CBC90469946A246F0BDB242B6
:100FE000F6D9EFF3108972B6274C21680029FCD09E
:100FF000BFF35F8F0126254986408C460978244D32
:101000000F0037438846F9B28A46614654460C7051
:101010001C49041DA4004E636250840063510D6A94
:10102000002435421AD04D6A00E025008F6A4C6AD0
:10103000AC42FAD1AB4219D801D1BA4216D8C24556
:101040001DD0104B134A1E625E631F2318401E3BC7
:10105000834013606346424601241A70BFF35F8FDA
:101060000022094B1A6089F31088B2E70024BFF30D
:101070005F8F0022044B1A6089F31088A9E70124CE
:10108000ECE7C04600400540280100D0FA030020EC
:10109000E803002080E200E010B5EFF3108472B6A0
:1010A0000A490B68002BFCD0BFF35F8F01238340FC
:1010B000074A0848136202789A430270BFF35F8FB1
:1010C00000230B6084F3108810BDC046280100D0B7
:1010D00000400540FA03002070B506000D00140022
:1010E00000291ED0002A1ED07368806898476300CC
:1010F0006A001B195219033B033A3168002808D0D3
:10110000CB188A189D70117800290ED11470280010
:1011100008E08A18CB1894701978002900D0517013
:101120001D70200070BD0800FCE759702800147085
:10113000F8E7C046F0B5DE4657464E464546E0B5B0
:101140008360002389B04260026806914373C9B28C
:101150000133059101738373C1730492012900D88F
:10116000A4E00A004B1ED9B2931E0791072B00D8AA
:10117000AEE00025CB080393049B564C591C564BFC
:1011800056489B46564B9A46564B9C46564B0293A6
:10119000524663465F465E4662401A40504B2740C7
:1011A000FB185A400640534601966646434033407A
:1011B0004B4E0A70B046019E0135B146C8444646C2
:1011C00073401604360ECE701602120E4A721A04BE
:1011D000120E0B73CA731A021B0E4B75029B360E4E
:1011E0005C4063461C40404B120E9846029B4744AD
:1011F0005840634618404B4643445840039BEDB269
:101200008E718A747C401831AB42C1D10799072393
:101210000A009A43531CDBB2914247D0049C5A0007
:10122000A446D218591C6244059DC9B2033A5170B4
:101230008D423BD94A005218981C6244C0B2033A0E
:101240005070854232D942001218D91C6244C9B28A
:10125000033A51708D4229D94A005218181D624430
:10126000C0B2033A5070854220D942001218591D6D
:101270006244C9B2033A51708D4217D94A005218DC
:10128000981D6244C0B2033A507085420ED94200A4
:101290001218D91D6244C9B2033A51708D4205D962
:1012A0004A0052186244033A08335370FF23069AE7
:1012B00013405900C918049B9C460023614403391C
:1012C0004B7009B03CBC90469946A246AB46F0BD77
:1012D0000123A3E7010203047F7F7F7F0506070840
:1012E00001010101808080800808080870B50400B1
:1012F000002907D04B0000685B18033BC3185A78DD
:10130000002A01D1080070BD5500AD18033D4019F9
:101310000025467845705D702000FFF7DDFE310046
:1013200005002000FFF7E2FF290002002000FFF780
:10133000D3FE0100E6E7C046F0B54E464546DE4620
:101340005746E0B50E0074000168A41985B0033C4F
:1013500001920A190500107800284CD043001B1890
:10136000033BCB185F78BC46002F16D1019C002CA4
:101370003ED0EC7B002C04D063001B19CB18033B40
:101380005E70EE7300282FD10023537005B03CBC73
:1013900090469946A246AB46F0BD7A006244033AB5
:1013A00089184A78934600224A7090465A70010084
:1013B0003A002800FFF790FE5B468146002B07D0DD
:1013C0005B0029685B44033BCB185A78002A16D18E
:1013D0005A4649462800FFF77FFE2968019B0A19F3
:1013E000002BC6D10028CFD043001B18033BCB18DD
:1013F00000219970C8E7019B002BBAD1C4E75000C7
:10140000801803380918487882464046487058705A
:1014100059462800FFF760FE53468346002B07D04D
:101420005B0029685344033BCB185A78002A06D145
:10143000594652462800FFF74FFE8346C8E7500042
:1014400080180338091840464F7848705870514644
:1014500028000297FFF740FE8246002F08D0BC46C6
:101460007B0029686344033BCB185A78002A06D1D5
:101470005146029A2800FFF72FFE8246D8E7500017
:1014800080180338091840464F7848705870029900
:1014900028000397FFF720FE8046002F08D0BC46A7
:1014A0007B0029686344033BCB185A78002A06D195
:1014B000039A41462800FFF70FFE0290D8E7032069
:1014C00050430338091800204F784870587003992A
:1014D0002800FFF701FE390002902800FFF706FF01
:1014E000029902002800FFF7F7FD0390E0E7C046ED
:1014F000F0B54E464546DE465746E0B5467B05000C
:1015000074000068A419033C85B002190191117898
:1015100000294ED04B005B18033BC3185F78BC46D4
:10152000002F18D1019C002C40D0EC7B002C04D063
:1015300063001B19C318033B5E70EE73002931D1A1
:10154000002330005370697305B03CBC9046994647
:10155000A246AB46F0BD7A006244033A8018427856
:1015600093460022427090465A7028003A00FFF7D6
:10157000B3FD5B468146002B07D05B0029685B44C6
:10158000033BCB185A78002A17D15A4649462800FF
:10159000FFF7A2FD019B010028680219002BC4D1AE
:1015A0000029CDD04B005B18033BC3180020987076
:1015B000C6E7019B002BB8D1C2E750008018033862
:1015C00009184878824640464870587059462800A5
:1015D000FFF782FD53468346002B07D05B00296846
:1015E0005344033BCB185A78002A06D15946524639
:1015F0002800FFF771FD8346C7E7500080180338C5
:10160000091840464F784870587051462800029794
:10161000FFF762FD8246002F08D0BC467B00296898
:101620006344033BCB185A78002A06D15146029AEC
:101630002800FFF751FD8246D8E750008018033894
:10164000091840464F78487058700299280003974F
:10165000FFF742FD8046002F08D0BC467B0029687A
:101660006344033BCB185A78002A06D1039A4146BB
:101670002800FFF731FD0290D8E7032050430338DC
:10168000091800204F784870587003992800FFF718
:1016900023FD390002902800FFF728FE029902007E
:1016A0002800FFF719FD0390E0E7C04670B504007D
:1016B00000292CD0437B8B422ED00568480040186F
:1016C000033828188278002A21D053009B18033B46
:1016D000EB181A788A4202D11BE0002A08D0530086
:1016E0009B18033BEB185A788A42F6D142785A701D
:1016F00000230122837043702000FFF71DFE617BF1
:1017000002002000FFF7E8FC6073012000E00020E9
:1017100070BD42781A70EBE701221900FFF70CFE4A
:1017200060730120F4E7C04610B50400FEF7BAFE6E
:1017300001002000FFF74CF8FF232371BFF35F8FF8
:1017400010BDC04610B50400FEF7ACFE010020003D
:10175000FFF73EF8FF23A380BFF35F8F10BDC046A5
:101760002D4B2E4A70B51A602D4A2E4B2E491A6009
:1017700010008B689843FBD12C4C2D4B9C4209D216
:10178000013B1D1BAD080135AD002D1908CC984754
:10179000AC42FBD100F07EF8264A224B1A60224A66
:1017A0009368DB018033FBD14022234B234D244837
:1017B0009A675A671A67DA66A84205D30EE0FFF700
:1017C000C1FF2000AC4209D2040003680834002B9A
:1017D000F5D1FFF7A9FF2000AC42F5D3194C1A4D03
:1017E000A168C022280000F081FBA560FEF74CFE36
:1017F000FEF7DCFFFFF798F9144C154B9C4209D219
:10180000013B1D1BAD080135AD002D1908CC9847D3
:10181000A542FBD170BDC04600E00040BFCDFBFE3D
:10182000FE7F3C0000F0004000C000401802002095
:1018300028020020FFFFFF0100F0014018020020F5
:101840001002002000ED00E000000020280200202F
:101850002C02002000BEFDE70FB400B5084883B09D
:1018600000F076FC049B002B07D005A9180001911D
:1018700000F0E8F9034800F06BFC00BEFDE7C0464D
:10188000682200107822001010B50148FFF7E4FF2D
:101890005C22001030B50C2083B000F0AFF9FEF7E9
:1018A000EBFD00280ED0944B944A1A605A609A605F
:1018B000DA601A615A619A61DA611A62904A5A6270
:1018C00003B030BD8F4CA06700F0A0F901228E4B11
:1018D0001A60636C012BFCD103228C4B1A60894A7D
:1018E000936B012BFCD101330093894A043301210E
:1018F000884800F02FF90523874A00930121874883
:1019000000F028F9864B5A68FF2A02D8802252003C
:101910005A608022784C7D4B21691201804D1A60FB
:10192000002905D0606900F0DBF901300138FDD1F4
:10193000E0217B4B02201A681140802252012A4389
:1019400011601968484003210140116004219A6820
:101950001142FCD08022802192012A4309011160AA
:10196000802252005A606F4B23616F4B5968FF29E8
:1019700000D85A6003226C48634B01211A600200B0
:1019800093681942FCD0E02513681D4080235B0159
:1019900003431D6012684A4003211140196002216F
:1019A000614A93681942FCD0802380219B01034344
:1019B0000901196080215D4B4900516063615C4BF6
:1019C0005A68FF2A00D8596080225A4BE1691201F7
:1019D000574D1A60002905D0606900F081F9013087
:1019E0000138FDD1E02252490B681A4080235B0187
:1019F0002B431A60802380229B012B4312011A6023
:101A000080223E4B52004A60E3614B4B5968FF29EC
:101A100000D85A608022494B216A1201464D1A6053
:101A2000002905D0606900F05BF901300138FDD173
:101A3000E02241490B681A4080235B012B431A6066
:101A4000802380229B012B4312011A6080235B00BC
:101A50004B602A4B3A4A23623A4B5968914201D86B
:101A600001325A608022384B616A1201354D1A608A
:101A7000002905D0606900F033F901300138FDD14B
:101A8000E02230490B681A4080235B012B431A6027
:101A9000802380229B012B4312011A608023DB02EA
:101AA0004B60174B6362294B5A68FF2A02D8802289
:101AB00052005A608022264BA1691201234D1A6000
:101AC000002905D0606900F00BF901300138FDD123
:101AD000E0221E490B681A4080235B012B431A60E9
:101AE000802380229B012B4312011A6080235B001C
:101AF0004B600E4BA361E3E65C030020006CDC024C
:101B00001BB70000008000403CB0004030B00040F7
:101B1000002F685900800240008C864700C00240B8
:101B200030800040001BB7003C80004040597307E4
:101B30005480004054B000406080004060B00040DD
:101B4000FFFF03006C8000406CB000404880004004
:101B500048B00040F8B504000C201E0017000D002E
:101B600000F0BEF84201121A9101891AC900091841
:101B70008901380000F0B4F8069B226836041B0384
:101B80003343002A21DB194A194EA21851424A4117
:101B9000802149018C4652420A40164962440A603B
:101BA00015490A601700B1688F43FBD1C021221D7F
:101BB0008901114321222560A0600A602268002A61
:101BC000FCDAE36008230B60F8BD3F2221680A407D
:101BD000AA42D8D1A2681205120D8242D3D1EE21B9
:101BE000E268C9020A409A42CDD1EDE70040FDBF4C
:101BF00000C0004000E0004000F000408023024AA6
:101C00009B000343D362704700800540AA23064A25
:101C10001B0113602F230549D360054B19605368DE
:101C2000002BFCDA7047C0460040024000B0FA00CA
:101C30000060024010B5002800D110BD00F036FA57
:101C4000FBE7C04610B5094A84B01468002C09D0DF
:101C5000012200910300524203A90548A047012038
:101C600004B010BD00F074FA0020F9E7CC030020A6
:101C7000351C001001480421014B1847F0010020D9
:101C8000A51C0010142310B50100188804331B880C
:101C9000984710BD162310B50100188802331B8821
:101CA000984710BDF0B5C64600B5002916D01423DC
:101CB00004000125984618278900461843462168E4
:101CC00018883B88984701C4431E9841404205400C
:101CD000A642F3D1280004BC9046F0BD0125F9E7E7
:101CE000114A936F9B0813D210665166002905D0E4
:101CF000FFE7FFE7FFE7516F106F704704B500285B
:101D000001D00020C04300F07FFA002104BDC0468E
:101D1000F0B5146E556E576F166FFFF7E5FF14663A
:101D2000556657671667F0BD000000D0132370B5E5
:101D30001D78012D15D010DD2648FFF7ABFF264C8E
:101D400001008022200000F0D1F8022D06D02348A7
:101D5000FFF798FF224B186070BD1F4C214AA26408
:101D6000F5E71D4C1F4AA3085B421D402FD02B00F6
:101D700022602020A9006118451B0A604A608A6021
:101D8000CA600A614A618A61CA610A624A628A62F9
:101D9000CA620A634A638A63CA630A644A648A64D9
:101DA000CA640A654A658A65CA650A664A668A66B9
:101DB000CA660A674A676D08102D03D18A67CA6729
:101DC000A264C4E71E339B00E250A264BFE7002375
:101DD000CFE7C04653440000FC0300204C33000012
:101DE000E0030020E91D001007B5604601880A0ADB
:101DF0000230DF2AFAD1C9B2820804D302884088AF
:101E00000004104300E00068014A5050039007BDF1
:101E1000FC03002051434343C9188C46110C83B284
:101E20004B4310B4040C614392B280B250436243FE
:101E30001C041B0C001910BC59411304120CC018CF
:101E40005141614470470000132310B51C781348BA
:101E5000FFF720FF012C0BD004DD01008022104889
:101E600000F044F80F48FFF70DFF0F4B186010BD4E
:101E70000B4C01005422200000F038F80B4B636536
:101E8000A365E36523666366A366E366236763670A
:101E9000A367E3672362E361E4E7C04653460000BB
:101EA000FC0400204C330000E0030020B11E0010B1
:101EB00007B5604601880A0A0230DF2AFAD1C9B2A2
:101EC000820804D3028840880004104300E00068C0
:101ED000014A5050039007BDFC0400200148042132
:101EE000014B184700020020A51C0010014B5B6845
:101EF0001847000000020020030010B508001B680E
:101F00001100984710BDC046F8B54746CE4680B58B
:101F1000437C80460C001500002B43D0002A34DDA2
:101F20000A78037C00200A2A33D0012D1ED0204BD2
:101F30000121671E994602E03100B54216D0635C6C
:101F40007A5C4E1C0A2BF7D10D2AF5D043461B684C
:101F5000884204DA091A2018984743461B68022170
:101F60004846984730003100B542E8D1854204DD4B
:101F70004346291A1B68201898476419013C2378A6
:101F80000D3B5A425341424613740CBC904699464D
:101F9000F8BD002BC9D14346054802211B6898476C
:101FA0000120C2E70368110020009847EDE7C04612
:101FB000E4220010F0B5DE4657464E464546E0B5F1
:101FC0001E00D0231B0683B01C68334B01AF804634
:101FD0000D001800390091469B4600F01DF982461D
:101FE000002808D1019B64B29C4204D0584600F0FE
:101FF0001BF901239A466B1C03D1404600F0C6F83A
:102000000500002E28D1254E254B1C68002C16D02B
:102010004B46002B22D1234F02E0E468002C0ED067
:102020002368002BF9D03B68002B01D0A342F4D1E8
:1020300020002A004146B047E468002CF0D1534606
:10204000002B25D1681E8541E8B203B03CBC904608
:102050009946A246AB46F0BD134ED5E7114B9946C3
:1020600002E0E468002CEAD02368002BF9D04B464C
:102070001B68002B01D0A342F3D12A004146200067
:10208000B0470A230122390020003B70B047E8E73F
:10209000584600F0B1F8D5E710020020091F0010E3
:1020A000C4030020C8030020F91E0010F0B5474605
:1020B000CE4680B583B06B46DF1CD02338701B063C
:1020C0001C68204B060001A91800984600F0A4F8EF
:1020D000051E22D01C4B1C68002C2AD01B4B994695
:1020E00002E0E468002C10D02368002BF9D04B46A6
:1020F0001B68002B01D0A342F3D12000012239003C
:10210000FFF702FFE468002CEED1002D11D1300062
:1021100003B00CBC90469946F0BD019B64B29C4252
:102120000BD0404600F080F8074B01251C68002CBE
:10213000D4D1404600F060F8E9E7034B1C68002C5E
:10214000CCD1E4E710020020C4030020C803002023
:1021500070B5040000F01AF8002301000500012208
:102160002000FFF727FF084B1C68002C06D063688F
:10217000002B05D09847E468002CF8D1280070BDEA
:10218000E468002CF3D1F9E7C403002010B58307FD
:1021900027D00378002B26D00300032102E01A7811
:1021A000002A1CD001330B42F9D119680F4A104C98
:1021B0008A188A4322420FD1043319680B4A8A18BD
:1021C0008A43224208D104331968084A8A188A438C
:1021D0002242F1D000E001331A78002AFBD1181A0C
:1021E00010BD0300E1E70020FAE7C046FFFEFEFE57
:1021F00080808080F8B5C04601B40248844601BCA6
:10220000604700BF5101002001B40248844601BC70
:10221000604700BF7901002001B40248844601BC38
:10222000604700BF0901002001B40248844601BC98
:08223000604700BFC10000205F
:10223800486172647761726520616C61726D2025F6
:102248006420616C726561647920636C61696D6595
:1022580064000000486172642061737365727400E1
:102268000A2A2A2A2050414E4943202A2A2A0A00AB
:102278000A00000006005250BBFF3CB6C022001006
:1022880006005250E182887FA822001006005250B2
:10229800D3F07542A022001052656C656173650029
:1022A800626F6F74325F77323571303830000000FA
:1022B800312E342E300000007069636F000000007A
:1022C800466C6173684C45447353444B00000000EE
:1022D8004F63742020352032303235000D0A00005B
:1022E800B4020010A80200109C0200107C2200100A
:0C22F800900200108822001094220010B8
:10230400D02330B500251B065D57002406E0036882
:10231400BFF35F8F1C6081F3108820BF0268EFF366
:10232400108172B61368002BFCD0BFF35F8F037962
:102334007F2BECD905710368BFF35F8F00221A600D
:1023440081F3108830BDC046030010B50068EFF378
:10235400108472B60268002AFCD0BFF35F8F042297
:102364009A56002A0BDB00290FD000200A601B6854
:10237400BFF35F8F00221A6084F3108810BDD0224F
:102384001206126801201A71F1E70020EFE7C04637
:102394000268EFF3108172B61368002BFCD0BFF310
:1023A4005F8FFF2303710368BFF35F8F00221A60FE
:1023B40081F3108840BF70477047C046100000008A
:1023C4000000000000000100000000000000000008
:1023D40000000200000000000000000000000300F4
:1023E40000000000000000000000FF0000000000EA
:1023F40000B5486801318E460047704609380149E6
:10240400884700BDF9060010E0010020000000002C
:1024140030020020840300200000000000000000BF
:1024240094030020000000000000000010000000E1
:10243400503300004C33000054330000523300008A
:102444004D5300004D43000053340000433400005A
:102454000000000000000000DD1E0010751C0010CC
:0C2464002D1D0010491E0010390300104F
:04000005100001E9FD
:00000001FF
