:020000041000EA
:1000000000B5324B212058609868022188439860DF
:10001000D860186158612E4B002199600221596106
:100020000121F02299502B49196001219960352056
:1000300000F044F80222904214D00621196600F024
:1000400034F8196E01211966002018661A6600F04E
:100050002CF8196E196E196E052000F02FF8012189
:100060000842F9D1002199601B49196000215960AB
:100070001A491B48016001219960EB211966A021F2
:10008000196600F012F800219960164914480160C1
:100090000121996001BC002800D000471248134993
:1000A000086003C880F30888084703B5996A0420EC
:1000B0000142FBD001200142F8D103BD02B5186610
:1000C0001866FFF7F2FF186E186E02BD00000240BE
:1000D000000000180000070000035F00212200005C
:1000E000F4000018222000A00001001008ED00E03C
:1000F00000000000000000000000000074B24E7A12
:1001000000200420F7010010CB010010CD010010E9
:10011000C9010010C9010010C9010010C901001077
:10012000C9010010C9010010C9010010CF01001061
:10013000C9010010C9010010D1010010D301001045
:10014000C1010010C1010010C1010010C101001067
:10015000C1010010C1010010C1010010C101001057
:10016000C1010010C1010010C1010010C101001047
:10017000C1010010C1010010C1010010C101001037
:10018000C1010010C1010010C1010010C101001027
:10019000C1010010C1010010C1010010C101001017
:1001A000C1010010C1010010C1010010C101001007
:1001B000C1010010C1010010C1010010C1010010F7
:1001C000EFF30580103800BE00BE00BE00BE00BECA
:1001D00000BE00BEF2EB8871E41A0010001B001094
:1001E0003802001090A31AE71E481F49086006C88D
:1001F00081F3088810471D480068002801D019487D
:10020000F3E70DA40ECC002902D000F012F8F9E7B4
:100210001749184A002000E001C19142FCD116495B
:100220008847164988471649884700BEFDE701C937
:1002300001C29A42FBD37047001B0010C00000208F
:1002400088030020C81D00100000042000000420C6
:10025000C81D001000100420001004200000000041
:10026000704700000000000008ED00E0000000D032
:1002700088030020800800200916001021030010C8
:1002800001160010F8B5C0460448054B10B583426E
:1002900003D0044B002B00D0984710BD88030020EA
:1002A000880300200000000006480749091A891049
:1002B000CB0F591810B5491003D0044B002B00D0B8
:1002C000984710BD8803002088030020000000002C
:1002D00010B5074C2378002B09D1FFF7D5FF054B4C
:1002E000002B02D0044800E000BF0123237010BDA2
:1002F0000805002000000000041A0010054B10B58E
:10030000002B03D00449054800E000BFFFF7CCFFF5
:1003100010BDC046000000000C050020041A0010AB
:10032000002000F06DF80020012100F04FF80120BE
:1003300000F066F80120012100F048F8022000F0EA
:100340005FF80220012100F041F80027381C00214D
:1003500000F050F8011C002000F042F8381C012188
:1003600000F048F8011C012000F03AF8381C022186
:1003700000F040F8011C022000F032F8124800F0B2
:1003800047FC0137072F00D0E0E7381C002100F0C0
:1003900031F8011C002000F023F8381C012100F086
:1003A00029F8011C012000F01BF8381C022100F084
:1003B00021F8011C022000F013F8034800F028FC8B
:1003C000013F002FC2D0E0E7E80300000123D02264
:1003D00083401206002901D0536270479362FCE704
:1003E0000123D02283401206002901D053617047B7
:1003F0009361FCE7030001200B4118407047C046A1
:100400000123D02283404021120693629361094A5E
:1004100083009A181268C0005140C0220A40064961
:100420008C4663441A60054B9C4605236044436038
:100430007047C04604C0014004D001400040014064
:100440000FB400B5084883B001F01EFA049B002BDE
:1004500007D005A91800019101F0B8F8034801F090
:1004600013FA012001F0CAF8041A0010141A00103F
:10047000F8B5EFF3108772B60D4E3368002BFCD041
:10048000BFF35F8F0725CB08C01801230D40AB4099
:100490001D000478254007D123430370BFF35F8F0D
:1004A000356087F31088F8BD1000FFF7C9FFC0461C
:1004B0002C0100D0044A1078431CDBB2172B00D962
:1004C000102313707047C046380300200021044BEE
:1004D000044ABFF35F8F02C39342FAD17047C0460C
:1004E000000100D0800100D0054B064A1360064A87
:1004F000136053609360D3601361536193617047DD
:100500008080808000E400E004E400E01F231840C5
:100510001E3B8340002905D0C021044A49005350A6
:1005200013607047802201498B50FAE700E100E038
:1005300070B50D00EFF3108672B60F4A1368002BEA
:10054000FCD0BFF35F8F0D4B10309B6884001B59AC
:100550000B4A934203D09D4201D000F0EBFD074BC4
:100560009B681D51BFF35F8FBFF35F8F0022024B6B
:100570001A6086F3108870BD240100D000ED00E001
:10058000C1010010024B9C46614489000160704724
:1005900040000034F0B5FF23C646164D164F00B597
:1005A0002C009846BD420ED320E0FFF783FF0100E8
:1005B0002800FFF7E7FF4346A380BFF35F8F3400B7
:1005C0003500BE4212D2260023680836002BECD13B
:1005D000FFF770FF01002800FFF7D4FF43462371A7
:1005E000BFF35F8F34003500BE42ECD304BC9046AD
:1005F000F0BDC04680030020880300200A4B196824
:10060000EFF3108072B60A68002AFCD0BFF35F8F48
:100610001B68BFF35F8F00221A6080F3108840BF11
:10062000002000217047C04678060020F0B5DE4665
:1006300057464E464546E0B585B0EFF305830322A5
:1006400013409A0011000392BA4A52589046012270
:100650009A409246B84B1A605346B84843634346A3
:1006600008229B5E9946002B3EDA43469B881BB2CC
:10067000002B00DBA3E043469B79002B00D0FEE07B
:1006800043460820185E002824DB42465269430096
:1006900094461B18DB0063449C68DD68631C00D132
:1006A000E7E0A648039B84466344826A19001B69FD
:1006B000A61A9B1A9E4215D35246036A1A4211D0BB
:1006C0009E4800F047FB241A8D41002D02DCC3D167
:1006D000002CC1D040BF05B03CBC90469946A24614
:1006E000AB46F0BD0C61EBE7424652695B009346B6
:1006F0004B44DB009B445B469E68DF6800F02AFBAE
:10070000801BB9410029B0DB002F00DAECE05A462B
:100710005B4654691B698A4A934200D1DFE0414637
:100720005A460820085E528800042100104398476A
:1007300004000D0023002B4300D1D5E0002D00DB89
:10074000EEE0361BAF4134003D005B469C60DD604F
:100750000021595E002900DA87E743465B692200E1
:100760009C462B0048004018C00060448668C7685B
:10077000921BBB41002B00DA77E74346664619819E
:100780000200009401950CE07B00DB19DB00F318FC
:10079000009801999C68DD68001BA941002904DBD1
:1007A0001A000023D75E002FEEDA5B461F804B460F
:1007B000138043469B881BB2002B00DA5BE743465D
:1007C0001A69EFF3108172B61368002BFCD0BFF3E7
:1007D0005F8F43469B8842461BB29C4601235B4287
:1007E00093801369BFF35F8F00221A6081F3108832
:1007F0006346002B00DA3EE743465F690823434423
:10080000994663465E006644F600B346BB445B46C9
:100810009868D968434608229A5E00900191002AA0
:100820002BDB53009B18DB00FB189C68DD68001B6A
:10083000A94100290CDA20E053009B18DB00FB18CB
:10084000009801999C68DD68001BA941002904DB20
:100850001E000023F25E002AEEDA634633805B4618
:1008600000215B5E9C465B461A806346002BC8DA1B
:1008700001E76B1C00D014E722E74E46EDE70023AA
:10088000424693714346464608229A5E0836531CF8
:1008900000D11FE7434647465D69944603E01E00CA
:1008A0002200631C18D053009B18DB00EB180021BA
:1008B0005C5E598809B20029F1DA01204042C11773
:1008C0009860D9606245EBD03480398994461980AC
:1008D0003A812200631CE6D1B8466046D3E6200088
:1008E00023699847002821D15B4642461B88138123
:1008F0001269EFF3108372B611680029FCD0BFF3C0
:100900005F8F4246594652880A8042464946518086
:100910001269BFF35F8F0021116083F31088A4E692
:10092000064800F017FA24184D410EE76568246860
:1009300000E7C0465C0600203C70054000400540D2
:100940002D06001070B52E4C2569002D04D00A210B
:100950002C48FFF717FE70BD2B4E0321300000F02E
:10096000EFF9E660FFF7A6FD284B03229C46D02353
:1009700022701B061B6801216370254B6044A36035
:100980000F23800020610220638063694942A180B7
:1009900019800231198647311D83585218315A5235
:1009A00075325C399952183201319952183201313D
:1009B0009952183201319952083518329D5202313C
:1009C0001832995218320131995218320131995224
:1009D00018320131995218320131995218320131CD
:1009E00099520C4B0C49DC6001303562FFF7A0FDD9
:1009F00001210320FFF78AFD084B1D60A7E7C046D1
:100A00003C030020780600200040054040000034F0
:100A1000FFFF10005C0600202D0600103860054026
:100A2000F0B501000469EFF3108672B62068002863
:100A3000FCD0BFF35F8F02200D5E48696C008446D6
:100A40006419E4006444002D01DB208848800869B3
:100A5000BFF35F8F0027076086F31088002D2DDB22
:100A6000A260E36063880598013320615B04069807
:100A70005B0C60611A1E1ED02804104363800A6953
:100A8000EFF3108672B61368002BFCD0BFF35F8FB4
:100A90008B8823808D800B69BFF35F8F00221A60E3
:100AA00086F310880B7801329A40CB6805498C4652
:100AB00063441A60F0BD01220123DDE701204042BA
:100AC000F8E7C0463C20000030B543890A14934241
:100AD00032DD53009B184269DB009446056963448C
:100AE000EFF3108472B62A68002AFCD0BFF35F8F40
:100AF0005A8889B292B2914208D00369BFF35F8FDE
:100B000000221A6084F31088002030BD8021090281
:100B10000A435A80012302698371BFF35F8F00216A
:100B2000116084F31088054902788C469340C268AE
:100B3000012062441360E8E70020E6E73C20000063
:100B4000F0B504000D0006267642F717C6463619A2
:100B50006F4100B582B08F4214D811D000F004F973
:100B600032003B00121A8B41002B15DC002B44D0C5
:100B70002000290000F004F902B004BC9046F0BD4A
:100B80008642EBD90026002700F0EEF832003B0049
:100B9000121A8B41002BE9DD00F0E6F832003B0031
:100BA000121A8B41002B0ADB00230193144B3200F5
:100BB000009314483B00FFF733FF0028D8DBB04612
:100BC0000026BC46104A114F7B6A9C4504D8B96A7E
:100BD0008845CDD99C45CBD11168EFF3108072B612
:100BE0000B68002BFCD0BFF35F8F1368BFF35F8FE0
:100BF0001E6080F3108820BFE6E7002AB8D0CBE75C
:100C0000FD0500103C030020780600200040054050
:100C100070B5060000F0A8F8FA2204000D0092005A
:100C200000233000002100F051FC00196941002927
:100C300002DBFFF785FF70BD012001494042F8E764
:100C4000FFFFFF7FF0B5D6464F464646C0B50400CD
:100C500082B00D00EFF305878946002F0ED035498D
:100C600000204B6AAB4203D38A6A0130A24246D3CA
:100C700002B01CBC90469946A246F0BD2E4B984649
:100C8000DB689A46434650461E7800F063F85346A8
:100C90000436B600F35822001E1A2B00121A8B419C
:100CA0009F4202DC30D196422ED900F05DF822003E
:100CB0002B00121A8B41002B31DB002301931F4BB9
:100CC0002200009340462B00FFF7AAFE002826DDF5
:100CD000184B5A6A4A4504D39B6AA34202D24A453A
:100CE00000D120BF01004046FFF7EEFE114A002070
:100CF000536A4B45BCD3926A0130A242B8D25B1B07
:100D0000581E8341D8B2B3E720BF0A4A0020536A75
:100D10004B45ADD3926A0130A242A9D2EFE7054A12
:100D20000020536A4B45A3D3926A0120A2429FD26E
:100D3000E5E7C046004005403C030020FD050010EB
:100D400010B5024A0248FFF793FB10BD181A0010B5
:100D5000240600200200416A00E01900906A536AEC
:100D60009942FAD17047C046044A516A00E019001E
:100D7000906A536A8B42FAD17047C04600400540E2
:100D8000064A536A9942FCD807D1044B02E05A6ADA
:100D9000914202D19A6A9042F9D8704700400540CA
:100DA000F8B54E464546DE465746E0B5884605004E
:100DB0000A991800170000F0E9FA0A9B6C001E025D
:100DC0003F4B64199C46A4006444636881469E427C
:100DD00000D966602B1FDBB29A46C02352469B01A6
:100DE000E318012A37D9802212011A60354BAD0071
:100DF00059599B46002924D05B46586900F0C6FA31
:100E0000431C5800C0180338FDD223687F017B4083
:100E1000E0271F40802352465B01E3181F60012A30
:100E20002ED9802380229B01E31812011A605B46B1
:100E30004A4666605A513CBC90469946A246AB462B
:100E4000F8BD23687F017B40E0271F4080235B01C2
:100E5000E3181F60E5E74246012A1ED080221201F6
:100E60001A60184BAD0059599B460029C4D123681C
:100E70007F017B40E0271F4080235B01E3181F6058
:100E800042462168514003220A401A60012342462B
:100E90009340A2681342FCD0C3E702321A60023AC0
:100EA000A3681A42FCD023687F017B40E0271F40E3
:100EB0008023044A5B01E3181F609346AD00DFE71F
:100EC0000080004028060020F0B54F464646D64632
:100ED000C0B51F00444B44009C462418A400644441
:100EE00063680E001500FF2B02D880235B0063604F
:100EF000031FDBB29946C0234A469B01E318012A2F
:100F00003BD9802212011A60384B9A4683009846DA
:100F1000534642469958002925D05346586900F057
:100F200035FA431C5800C0180338FDD223686D0100
:100F30006B40E0251D4080234A465B01E3181D609D
:100F4000012A31D9802380229B01E31812011A6003
:100F500080235B004246636053469F501CBC904612
:100F60009946A246F0BD23686D016B40E0251D4007
:100F700080235B01E3181D60E4E7012E1FD080226F
:100F800012011A60194B9A4683009846534642460E
:100F900099580029C1D123686D016B40E0251D409F
:100FA00080235B01E3181D600322216871400A4021
:100FB0001A600123B340A2681342FCD0C2E70322A7
:100FC0001A60023AA3681A42FCD023686D016B4094
:100FD000E0251D408023054A5B01E318924682000C
:100FE0001D609046E0E7C0460080004028060020D3
:100FF000014B8000C058704728060020F8B5040057
:10100000204817001E000D0000F0C0F90100380054
:1010100000F0BCF9069A3304120313432268002A35
:101020001FDB194A194EA21851424A418021490139
:101030008C4652420A40164962440A6015490A60C9
:10104000170031688F43FBD1134A2560A118212274
:10105000A0600A602268002AFCDAE36008230B60C3
:10106000F8BD3F2221680A40AA42DAD1A2681205DF
:10107000120D8242D5D1EE21E268C9020A409A429D
:10108000CFD1EDE7001BB7000040FDBF08C0004016
:1010900000E0004000F00040043000008023024ADD
:1010A0009B000B43D362704700800540142310B5AA
:1010B0000100188804331B88984710BD162310B50B
:1010C0000100188802331B88984710BDF0B5C6464A
:1010D00000B5002916D014230400012598461827CE
:1010E000890046184346216818883B88984701C400
:1010F000431E984140420540A642F3D1280004BC5B
:101100009046F0BD0125F9E7AA23064A1B011360AA
:101110008D235B00D3600449044B19605368002B96
:10112000FCDA70470040024000B0FA000060024064
:101130007047C04610B50148FFF782F93C1A00100D
:1011400070B5074B074C9C4209D2013B1D1BAD08F3
:101150000135AD002D1908CC9847AC42FBD170BDCC
:10116000FC190010C0190010054B064A06491A6008
:10117000064A074B1A6010000B689843FBD1704772
:1011800000E00040BFCDFBFE08C00040FE7F3C00F9
:1011900000F00040044BDB6C002B03D18022034B9A
:1011A000D2021A607047C046000011504C20115006
:1011B000044A054B1A60054A1368DB018033FBD1F2
:1011C0007047C046FFFFFF0100F0004008C000402C
:1011D0004022034B9A675A671A67DA667047C0461F
:1011E00000F0014010B5FFF771F910BD70B5284946
:1011F000284C294D641AA6103200302E00D9302216
:101200009200280000F0D4F92F2E3BD830202F2157
:101210002B195B07214A801BDB0F891B052916D977
:10122000002B32D0B1006A50741CC01AF3189B0016
:101230004108EB18C900C9181A605A6008338B427C
:10124000FAD1012301009943661888421AD0B300ED
:10125000EA50731C302B15D09B00EA50B31C302B86
:1012600010D09B00EA50F31C302B0BD09B00EA50AF
:10127000331D302B06D09B000536EA50302E01D0AE
:10128000B300EA50064B9D6070BD3400CDE7C04608
:1012900000010010C001001000000020C10100107A
:1012A00000ED00E0002310B5294C82B0A367FFF7E2
:1012B0002BFF0122274B1A60636C012BFCD1032208
:1012C000254B1A60224A936B012BFCD1013300930A
:1012D000224A043301212248FFF790FE0523214AC8
:1012E000009301212048FFF789FE204B00220221B4
:1012F0000420FFF7E9FD1E4B002201210520FFF726
:10130000E3FD1C4B002200210720FFF7DDFD194BF8
:10131000002200210820FFF7D7FD8023DB00009387
:101320000022144B00210920FFF73AFD104B002248
:1013300000210620FFF7C8FD0420FFF759FE0E49E3
:1013400000F024F801000020FFF7A8FE02B010BD55
:10135000008000403CB0004030B00040002F685991
:1013600000800240008C864700C00240001BB7008E
:1013700040597307006CDC0240420F000148042111
:10138000014B184760030020CD100010114A936FE5
:101390009B0813D210665166002905D0FFE7FFE7CE
:1013A000FFE7516F106F704704B5002801D000208F
:1013B000C04300F0F5FA002104BDC046F0B5146E3C
:1013C000556E576F166FFFF7E5FF14665566576742
:1013D0001667F0BD000000D0132370B51D78012DF5
:1013E00019D014DD2848FFF769FE06002748FFF7EB
:1013F00065FE274C80223100200000F0D9F8022D34
:1014000006D02448FFF752FE234B186070BD204CD5
:10141000224AA264F5E71E4C204AA3085B421D4005
:101420002FD02B0022602020A9006118451B0A60E4
:101430004A608A60CA600A614A618A61CA610A6256
:101440004A628A62CA620A634A638A63CA630A6436
:101450004A648A64CA640A654A658A65CA650A6616
:101460004A668A66CA660A674A676D08102D03D104
:101470008A67CA67A264C4E71E339B00E250A26475
:10148000BFE70023CFE7C0465344000053460000A7
:10149000800600204C33000074060020A1140010C8
:1014A00007B5604601880A0A0230DF2AFAD1C9B2BC
:1014B000820804D3028840880004104300E00068DA
:1014C000014A5050039007BD80060020514343431A
:1014D000C9188C46110C83B24B4310B4040C614301
:1014E00092B280B2504362431C041B0C001910BC22
:1014F00059411304120CC018514161447047000057
:10150000132310B51C781348FFF7D8FD012C0BD01E
:1015100004DD01008022104800F04AF80F48FFF770
:10152000C5FD0F4B186010BD0B4C0100542220006C
:1015300000F03EF80B4B6365A365E36523666366C5
:10154000A366E36623676367A367E3672362E361D8
:10155000E4E7C04653460000800700204C330000FB
:10156000740600206915001007B5604601880A0A54
:101570000230DF2AFAD1C9B2820804D30288408837
:101580000004104300E00068014A5050039007BD7A
:101590008007002001480421014B184770030020F8
:1015A000CD100010014B1B6818470000700300208D
:1015B000014B5B68184700007003002010B500283D
:1015C00000D110BD00F014F9FBE7C04610B5094A80
:1015D00084B01468002C09D001220091030052420B
:1015E00003A90548A047012004B010BD00F04CF944
:1015F0000020F9E758060020BD15001000BEFDE7E9
:1016000010B5FFF7FBFFC04670B5FFF799FD074C1B
:10161000074B9C4209D2013B1D1BAD080135AD00B3
:101620002D1908CC9847AC42FBD170BDFC190010B5
:10163000041A0010030010B508001B681100984739
:1016400010BDC046F8B54746CE4680B5437D8046BE
:101650000C001500002B43D0002A34DD0A78037DEE
:1016600000200A2A33D0012D1ED0204B0121671EF5
:10167000994602E03100B54216D0635C7A5C4E1C9C
:101680000A2BF7D10D2AF5D043461B68884204DAAD
:10169000091A2018984743461B6802214846984774
:1016A00030003100B542E8D1854204DD4346291AB5
:1016B0001B68201898476419013C23780D3B5A4257
:1016C0005341424613750CBC90469946F8BD002B19
:1016D000C9D14346054802211B6898470120C2E74B
:1016E0000368110020009847EDE7C046E01A00109B
:1016F000F0B5DE4657464E464546E0B585B0170084
:101700001C0006000D00FFF72FFB0023314A1218C2
:101710004B41002B59DB30490800884600F048F95E
:1017200001906B1C03D1300000F0F2F80500002C92
:1017300026D12A4B9A462A4B1C68002C15D0002F24
:1017400021D1284F02E02469002C0ED02368002B01
:10175000F9D03B68002B01D0A342F4D120002A002D
:101760003100D0472469002CF0D1019B002B28D1F7
:10177000280005B03CBC90469946A246AB46F0BD59
:10178000194B9A46D7E7174B9B4602ABDF1D0A233E
:10179000994602E02469002CE7D02368002BF9D099
:1017A0005B461B68002B01D0A342F3D12A00310015
:1017B0002000D0474B460122390020003B70D04723
:1017C000E8E7404600F0E4F8D2E70122074B524236
:1017D000A1E7C04640420F008003002035160010EC
:1017E000500600205406002045160010FFFFFF7F22
:1017F000F0B5CE46474680B583B06B46DE1D05008A
:101800003070FFF7B1FA00231A4A12184B41002B2F
:101810002CDB194F380000F0CBF8184B80461C68C1
:10182000002C16D0164B994602E02469002C10D0EB
:101830002368002BF9D04B461B68002B01D0A34234
:10184000F3D1200001223100FFF7FCFE2469002CB7
:10185000EED14346002B05D1280003B00CBC9046C6
:101860009946F0BD380000F093F8F5E70122054BEA
:101870005242CEE740420F00800300205006002075
:1018800054060020FFFFFF7F70B5040000F040F811
:1018900001230100050001222000FFF729FF084B6A
:1018A0001C68002C06D06368002B05D0984724697B
:1018B000002CF8D1280070BD2469002CF3D1F9E781
:1018C0005006002010B5024800F004F810BDC046D4
:1018D0006C06002010B588B004000D220021684677
:1018E000FFF760FE0D22002104A8FFF75BFE4B23EB
:1018F0006A4604A9137068460D2200F041F81521CC
:10190000082269442000FFF753FE08B010BDC0460E
:1019100010B5830727D00378002B26D003000321BE
:1019200002E01A78002A1CD001330B42F9D1196861
:101930000F4A104C8A188A4322420FD10433196887
:101940000B4A8A188A43224208D104331968084A8C
:101950008A188A432242F1D000E001331A78002A23
:10196000FBD1181A10BD0300E1E70020FAE7C046DA
:10197000FFFEFEFE80808080F8B5C04600000000BB
:1019800001B40248844601BC604700BF61020020E8
:1019900001B40248844601BC604700BF71010020C9
:1019A00001B40248844601BC604700BF2503002003
:1019B00001B40248844601BC604700BFC10000205A
:1019C00069110010951100107D130010951500107D
:1019D000D913001001150010A5120010B11100104C
:1019E000D1110010E511001095050010ED11001047
:1019F0004509001031110010E9040010C51800104D
:041A0000FD020010D3
:101A04000A2A2A2A2050414E4943202A2A2A0A0017
:101A14000A000000486172647761726520616C613C
:101A2400726D20256420616C726561647920636C39
:101A340061696D65640000004861726420617373BC
:101A44006572740005005250DE65F468C81D00100C
:101A5400060052505422A29DD41A0010060052507F
:101A6400861C0302C41A001006005250BBFF3CB689
:101A7400BC1A001006005250ABB36053B41A0010E5
:101A840006005250E182887FA41A001006005250CA
:101A9400D3F075429C1A001052656C656173650041
:101AA400626F6F74325F7732357130383000000006
:101AB400322E322E300000007069636F0000000087
:101AC4004C4544436F756E74657253444B0000007B
:101AD4005365702032382032303235000D0A000050
:101AE400481A0010541A0010601A00106C1A0010E2
:0C1AF400781A0010841A0010901A0010DC
:101B0000F0B5C6461F0000B5040016000368EFF3E9
:101B1000108272B619680029FCD0BFF35F8F0423CE
:101B2000E356002B36DB2168BFF35F8F002008608F
:101B300082F31088D0220025120655579D4203D10A
:101B4000002004BC9046F0BD002398460CE02268BB
:101B5000BFF35F8F4146116083F310883000390076
:101B600000F002F90028EBD12268EFF3108372B67F
:101B700011680029FCD0BFF35F8F22797F2AE6D954
:101B800025712268BFF35F8F0021116083F31088F5
:101B90000120D6E7D0231B061B6823712368BFF3FF
:101BA0005F8F0021196082F310880120C9E7C046C9
:101BB0000268EFF3108172B61368002BFCD0BFF3FC
:101BC0005F8FFF2303710368BFF35F8F00221A60EA
:101BD00081F3108840BF704710B5084C2378002B64
:101BE0000AD18023064807495B051A68C2500433AE
:101BF0008B42FAD10123237010BDC0467C06002021
:101C0000240500100001001010B5024B0133984765
:101C100010BDC04624050020074B5B680360074BDE
:101C20005A6842609A688260DA68C2601A695B69C1
:101C3000026143617047C046000002400400024058
:101C40000268074B5A604268064B5A6082689A6085
:101C5000C268DA6002691A6142695A617047C04617
:101C60000000024004000240054B1A6880239B00DC
:101C70005340C02292001340024A13607047C0468E
:101C80000C8001400C900140034B1A68C0239B005C
:101C90009343024A136070470C8001400C9001404E
:101CA000F0B5D6464F4646461423C0B51827984689
:101CB00086B081460D00188827493B881400984754
:101CC00043468246254918883B889847434624491D
:101CD000060018883B8898478046FFF77DFF6846D6
:101CE000FFF79AFFD047B047FFF7BEFF002C24D084
:101CF000C020220040050826163F11E04B461B7805
:101D0000013C036601239C46E144002905D0002ADA
:101D100003D0036E013A2B700135130023430CD01E
:101D20003100836A19401F42EFD0002CEDD0131B05
:101D30000D2BE3D90029EAD1F2E7FFF7A5FFC04751
:101D4000FFF762FF6846FFF77BFF06B01CBC9046BA
:101D50009946A246F0BDC0464946000045580000DD
:101D6000464300007047C04601B40248844601BCA7
:101D7000604700BF450C001010000000000000008C
:101D80000000000000000000000000000000000053
:101D90008803002000000000000000000000000098
:101DA000503300004C330000543300005233000025
:101DB0004D5300004D4300005334000043340000F5
:081DC00000000000000000001B
:04000005100001E9FD
:00000001FF
