:020000041000EA
:1000000000B5324B212058609868022188439860DF
:10001000D860186158612E4B002199600221596106
:100020000121F02299502B49196001219960352056
:1000300000F044F80222904214D00621196600F024
:1000400034F8196E01211966002018661A6600F04E
:100050002CF8196E196E196E052000F02FF8012189
:100060000842F9D1002199601B49196000215960AB
:100070001A491B48016001219960EB211966A021F2
:10008000196600F012F800219960164914480160C1
:100090000121996001BC002800D000471248134993
:1000A000086003C880F30888084703B5996A0420EC
:1000B0000142FBD001200142F8D103BD02B5186610
:1000C0001866FFF7F2FF186E186E02BD00000240BE
:1000D000000000180000070000035F00212200005C
:1000E000F4000018222000A00001001008ED00E03C
:1000F00000000000000000000000000074B24E7A12
:1001000000200420F7010010CB010010CD010010E9
:10011000C9010010C9010010C9010010C901001077
:10012000C9010010C9010010C9010010CF01001061
:10013000C9010010C9010010D1010010D301001045
:10014000C1010010C1010010C1010010C101001067
:10015000C1010010C1010010C1010010C101001057
:10016000C1010010C1010010C1010010C101001047
:10017000C1010010C1010010C1010010C101001037
:10018000C1010010C1010010C1010010C101001027
:10019000C1010010C1010010C1010010C101001017
:1001A000C1010010C1010010C1010010C101001007
:1001B000C1010010C1010010C1010010C1010010F7
:1001C000EFF30580103800BE00BE00BE00BE00BECA
:1001D00000BE00BEF2EB8871D0710010F07100100B
:1001E0003802001090A31AE71E481F49086006C88D
:1001F00081F3088810471D480068002801D019487D
:10020000F3E70DA40ECC002902D000F012F8F9E7B4
:100210001749184A002000E001C19142FCD116495B
:100220008847164988471649884700BEFDE701C937
:1002300001C29A42FBD37047F0710010C000002049
:1002400050110020808200100000042000000420D3
:100250008082001000100420001004200000000024
:10026000704700000000000008ED00E0000000D032
:100270005011002050200020B53C00102103001038
:10028000AD3C0010F8B5C0460448054B10B583429C
:1002900003D0044B002B00D0984710BD5011002014
:1002A000501100200000000006480749091A891073
:1002B000CB0F591810B5491003D0044B002B00D0B8
:1002C000984710BD50110020501100200000000080
:1002D00010B5074C2378002B09D1FFF7D5FF054B4C
:1002E000002B02D0044800E000BF0123237010BDA2
:1002F000D8120020000000006C6B0010054B10B5F8
:10030000002B03D00449054800E000BFFFF7CCFFF5
:1003100010BDC04600000000DC1200206C6B001015
:10032000002103F057FE0C4801700C48006000F0FB
:100330006DFE013103F004FF072900D0F3E7064802
:1003400001600648006000F061FE013903F0F8FE2C
:100350000029E8D0F3E70000100000D02C010000D5
:100360008023DB051868000F7047C0460FB400B546
:10037000084883B003F07EFE049B002B07D005A93C
:100380001800019103F078FC034803F073FE01208C
:1003900003F08AFC706B0010806B0010F8B5EFF36F
:1003A000108772B60D4E3368002BFCD0BFF35F8F01
:1003B0000725CB08C01801230D40AB401D00047871
:1003C000254007D123430370BFF35F8F356087F368
:1003D0001088F8BD1000FFF7C9FFC0462C0100D0FF
:1003E000F8B5CE4647468C4680B5EFF3108872B616
:1003F000214D2C68002CFCD0BFF35F8F9A422CD883
:100400000721012511408D40D40804192678354272
:100410001FD007218946063909E04D460F001540D7
:10042000AF40D408041926783D00374211D001327C
:100430009342F2D201204042BFF35F8F00220E4B65
:100440001A6088F3108800280FDB0CBC9046994690
:10045000F8BD354325701000EEE7BFF35F8F002332
:100460002B6088F31088012040426346002BECD0BB
:100470000898FFF77BFFC0462C0100D0044A107893
:10048000431CDBB2172B00D9102313707047C046F2
:100490008010002000B5054B83B0010000931822A6
:1004A0001F230348FFF79CFF03B000BD846B0010BF
:1004B000D41800200021044B044ABFF35F8F02C30D
:1004C0009342FAD17047C046000100D0800100D0AD
:1004D000054B064A1360064A136053609360D3606D
:1004E00013615361936170478080808000E400E075
:1004F00004E400E01F2318401E3B8340002905D080
:10050000C021044A490053501360704780220149BA
:100510008B50FAE700E100E001228240034B1B68A8
:100520001340581E8341D8B27047C04600E100E036
:1005300001238340014A13607047C04600E200E097
:10054000064B10309B688000C358054A00209B1A58
:100550002F229A424041C0B27047C04600ED00E0F1
:100560008410002070B50D00EFF3108672B60F4AAC
:100570001368002BFCD0BFF35F8F0D4B10309B68CE
:1005800084001B590B4A934203D09D4201D001F0D5
:100590002FF8074B9B681D51BFF35F8FBFF35F8F31
:1005A0000022024B1A6086F3108870BD240100D02F
:1005B00000ED00E0C1010010F8B557464546DE46A3
:1005C0004E468A46E0B590460700EFF3108972B6B2
:1005D0005F4A1368002BFCD0BFF35F8F00205D4B98
:1005E00018569B46002800DAA2E05A4644005A4DAD
:1005F0002418A4002E19B37910371370574BBA0082
:100600009B68934699584B1B2F2B41D801230A0016
:100610009A43D3799446434514D90627D7571300F4
:10062000002F06DA8DE00627DF571A00002F00DAC8
:1006300087E07B00DB199B00EB18DF794745F2D898
:10064000002A51D1464A63465B1B5B415A43120D57
:10065000444BA11C3380444B6918043B5B1A1B05B7
:1006600042495B0D0B43738063460434043B2D19F0
:100670005D1B43462D05F3716D0D53462943B18033
:10068000B27101216246B360394B3143136018E007
:10069000384B994252D1334B02343380324B2D19AF
:1006A000043B5D1B2D05314B6D0D1D43324B01216C
:1006B000B380FF23B3714346F37153467580B36033
:1006C00031435A46254B9B689950BFF35F8FBFF368
:1006D0005F8F00221E4B1A6089F310883CBC904645
:1006E0009946A246AB46F8BD0627D757131D9C4630
:1006F000002F2BDB04342D19E024938824025B05A2
:100700001B1563445B1B1B055B0D23436546341FB0
:10071000641B2405154D640D2C4394809071B380A7
:100720004346F3715346124AB7713260B360C8E76B
:1007300000F05EFF5B460020185656E700F058FFB9
:10074000A9E71A1D94461A000C4BDFE70B4BDDE7B7
:10075000240100D0891D00208410002000ED00E05D
:10076000AAAA000000A1FFFFB410002000E0FFFFD4
:1007700001488047C101001001BDFFFF01BD00001D
:10078000F0B501240443EFF30581EFF3108672B650
:10079000214A1368002BFCD0BFF35F8F1F4B204A08
:1007A0000500ED1A6D416A43120D1E4D8900AF68B8
:1007B00052B27F58A7421CD00621595691421CD0F4
:1007C00012215956914222D01E215956914220D0D1
:1007D0002A2159560324914210D0134B19781A70CC
:1007E0008171BFF35F8F00220B4B1A6086F3108874
:1007F000F0BDAB680D4C5C50EFE7002461000919B7
:1008000089005B18FF21997109499980E5E7012466
:10081000F4E70224F2E7C046240100D0841000204F
:10082000AAAA000000ED00E0891D0020C10100100F
:1008300001BDFFFF00B5074B83B00100009300220C
:1008400005230548FFF7CCFD002801DB1F23181AFC
:1008500003B000BDA06B00108D1D0020024B9C4614
:10086000614489000160704740000034F0B5FF2307
:10087000C646164D164F00B52C009846BD420ED305
:1008800020E0FFF7FBFD01002800FFF7E7FF4346EC
:10089000A380BFF35F8F34003500BE4212D2260022
:1008A00023680836002BECD1FFF7E8FD0100280093
:1008B000FFF7D4FF43462371BFF35F8F3400350049
:1008C000BE42ECD304BC9046F0BDC04648110020A7
:1008D0005011002010B50400FFF7D0FD01002000EA
:1008E000FFF7BCFFFF232371BFF35F8F10BDC0462E
:1008F00010B504000120FFF7CDFD044B9C46604479
:1009000080002060BFF35F8F10BDC0464000003400
:10091000034B9C46614489000160BFF35F8F7047C1
:10092000400000340A4B1968EFF3108072B60A6871
:10093000002AFCD0BFF35F8F1B68BFF35F8F0022DC
:100940001A6080F3108840BF002000217047C04625
:10095000681D0020F0B5DE4657464E464546E0B5D8
:1009600085B0EFF30583032213409A001100039230
:10097000BA4A5258904601229A409246B84B1A60A1
:100980005346B8484363434608229B5E9946002B72
:100990003EDA43469B881BB2002B00DBA3E04346B4
:1009A0009B79002B00D0FEE043460820185E00280B
:1009B00024DB42465269430094461B18DB00634423
:1009C0009C68DD68631C00D1E7E0A648039B844671
:1009D0006344826A19001B69A61A9B1A9E4215D3AA
:1009E0005246036A1A4211D09E4800F0B1FB241A05
:1009F0008D41002D02DCC3D1002CC1D040BF05B019
:100A00003CBC90469946A246AB46F0BD0C61EBE774
:100A1000424652695B0093464B44DB009B445B4675
:100A20009E68DF6800F094FB801BB9410029B0DBB1
:100A3000002F00DAECE05A465B4654691B698A4A8B
:100A4000934200D1DFE041465A460820085E5288B2
:100A5000000421001043984704000D0023002B439D
:100A600000D1D5E0002D00DBEEE0361BAF413400B5
:100A70003D005B469C60DD600021595E002900DA84
:100A800087E743465B6922009C462B0048004018DC
:100A9000C00060448668C768921BBB41002B00DA27
:100AA00077E74346664619810200009401950CE001
:100AB0007B00DB19DB00F318009801999C68DD6866
:100AC000001BA941002904DB1A000023D75E002F78
:100AD000EEDA5B461F804B46138043469B881BB271
:100AE000002B00DA5BE743461A69EFF3108172B618
:100AF0001368002BFCD0BFF35F8F43469B884246B0
:100B00001BB29C4601235B4293801369BFF35F8F46
:100B100000221A6081F310886346002B00DA3EE75A
:100B200043465F6908234344994663465E00664432
:100B3000F600B346BB445B469868D9684346082232
:100B40009A5E00900191002A2BDB53009B18DB007A
:100B5000FB189C68DD68001BA94100290CDA20E025
:100B600053009B18DB00FB18009801999C68DD6816
:100B7000001BA941002904DB1E000023F25E002AAD
:100B8000EEDA634633805B4600215B5E9C465B4643
:100B90001A806346002BC8DA01E76B1C00D014E70B
:100BA00022E74E46EDE70023424693714346464610
:100BB00008229A5E0836531C00D11FE74346474679
:100BC0005D69944603E01E002200631C18D05300A8
:100BD0009B18DB00EB1800215C5E598809B20029E4
:100BE000F1DA01204042C1179860D9606245EBD02C
:100BF00034803989944619803A812200631CE6D1F9
:100C0000B8466046D3E6200023699847002821D1E2
:100C10005B4642461B8813811269EFF3108372B65C
:100C200011680029FCD0BFF35F8F424659465288B5
:100C30000A804246494651801269BFF35F8F002106
:100C4000116083F31088A4E6064800F081FA2418A6
:100C50004D410EE76568246800E7C0464C1D002042
:100C60003C700540004005405509001070B52E4C01
:100C70002569002D04D00A212C48FFF7EFFD70BD37
:100C80002B4E0321300000F059FAE660FFF7F6FB27
:100C9000284B03229C46D02322701B061B6801218F
:100CA0006370254B6044A3600F2380002061022005
:100CB000638063694942A1801980023119864731F6
:100CC0001D83585218315A5275325C399952183274
:100CD0000131995218320131995218320131995229
:100CE000083518329D5202311832995218320131AA
:100CF00099521832013199521832013199521832F1
:100D0000013199521832013199520C4B0C49DC6077
:100D100001303562FFF726FC01210320FFF7EAFBD3
:100D2000084B1D60A7E7C046CC100020681D0020BE
:100D30000040054040000034FFFF10004C1D002023
:100D4000550900103860054000487047CC1000205D
:100D5000F8B51F0008AB1B7804001600002B07D164
:100D600000F000FA32003B00121A8B41002B4BDBE3
:100D70002269EFF3108072B61368002BFCD0BFF32A
:100D80005F8F0223E15E63694A009C465218D200DD
:100D90006244002901DB138863802369BFF35F8FFE
:100DA00000251D6080F3108800292FDB069B9660CC
:100DB000D7601361079B5361538801335B045B0C5D
:100DC0001D1E1ED00804284353802569EFF31086AA
:100DD00072B62B68002BFCD0BFF35F8FA388138003
:100DE000A1802369BFF35F8F00221A6086F3108809
:100DF0000849237801328C469A40E36863441A60BC
:100E0000F8BD01250123DDE70020F9E7012040427C
:100E1000F6E7C0463C200000F0B501000469EFF39E
:100E2000108672B620680028FCD0BFF35F8F0220C6
:100E30000D5E48696C0084466419E4006444002D2A
:100E400001DB208848800869BFF35F8F00270760B7
:100E500086F31088002D2DDBA260E360638805987F
:100E6000013320615B0406985B0C60611A1E1ED082
:100E70002804104363800A69EFF3108672B6136882
:100E8000002BFCD0BFF35F8F8B8823808D800B6994
:100E9000BFF35F8F00221A6086F310880B7801324F
:100EA0009A40CB6805498C4663441A60F0BD012224
:100EB0000123DDE701204042F8E7C0463C20000066
:100EC00030B543890A14934232DD53009B184269BE
:100ED000DB00944605696344EFF3108472B62A6818
:100EE000002AFCD0BFF35F8F5A8889B292B2914238
:100EF00008D00369BFF35F8F00221A6084F3108863
:100F0000002030BD802109020A435A800123026972
:100F10008371BFF35F8F0021116084F3108805494E
:100F200002788C469340C268012062441360E8E76F
:100F30000020E6E73C20000040787047F0B5040050
:100F40000D0006267642F717C64636196F4100B5E2
:100F500082B08F4214D811D000F004F932003B0067
:100F6000121A8B41002B15DC002B44D020002900E5
:100F700000F004F902B004BC9046F0BD8642EBD903
:100F80000026002700F0EEF832003B00121A8B41D9
:100F9000002BE9DD00F0E6F832003B00121A8B412D
:100FA000002B0ADB00230193144B320000931448FA
:100FB0003B00FFF731FF0028D8DBB0460026BC46D7
:100FC000104A114F7B6A9C4504D8B96A8845CDD92F
:100FD0009C45CBD11168EFF3108072B60B68002BE3
:100FE000FCD0BFF35F8F1368BFF35F8F1E6080F389
:100FF000108820BFE6E7002AB8D0CBE7250900100B
:10100000CC100020681D00200040054070B506008F
:1010100000F0A8F8FA2204000D009200002330002E
:10102000002101F067FA00196941002902DBFFF78E
:1010300085FF70BD012001494042F8E7FFFFFF7FB7
:10104000F0B5D6464F464646C0B5040082B00D0006
:10105000EFF305878946002F0ED0354900204B6AF3
:10106000AB4203D38A6A0130A24246D302B01CBC11
:1010700090469946A246F0BD2E4B9846DB689A46AC
:10108000434650461E7800F063F853460436B600D7
:10109000F35822001E1A2B00121A8B419F4202DCC9
:1010A00030D196422ED900F05DF822002B00121AA2
:1010B0008B41002B31DB002301931F4B2200009357
:1010C00040462B00FFF7A8FE002826DD184B5A6A81
:1010D0004A4504D39B6AA34202D24A4500D120BFAD
:1010E00001004046FFF7ECFE114A0020536A4B45D1
:1010F000BCD3926A0130A242B8D25B1B581E834116
:10110000D8B2B3E720BF0A4A0020536A4B45ADD39B
:10111000926A0130A242A9D2EFE7054A0020536A41
:101120004B45A3D3926A0120A2429FD2E5E7C04675
:1011300000400540CC1000202509001010B5024ADF
:101140000248FFF72BF910BDBC6B0010D818002027
:101150000200416A00E01900906A536A9942FAD18C
:101160007047C046044A516A00E01900906A536A09
:101170008B42FAD17047C04600400540064A536A88
:101180009942FCD807D1044B02E05A6A914202D13D
:101190009A6A9042F9D8704700400540F8B54E462B
:1011A0004546DE465746E0B5884605000A991800D0
:1011B000170000F071FB0A9B6C001E023F4B641984
:1011C0009C46A4006444636881469E4200D96660E0
:1011D0002B1FDBB29A46C02352469B01E318012A1B
:1011E00037D9802212011A60354BAD0059599B4600
:1011F000002924D05B46586900F04EFB431C580080
:10120000C0180338FDD223687F017B40E0271F40D0
:10121000802352465B01E3181F60012A2ED98023E8
:1012200080229B01E31812011A605B464A46666001
:101230005A513CBC90469946A246AB46F8BD23683D
:101240007F017B40E0271F4080235B01E3181F6084
:10125000E5E74246012A1ED0802212011A60184B8F
:10126000AD0059599B460029C4D123687F017B40BA
:10127000E0271F4080235B01E3181F60424621687E
:10128000514003220A401A60012342469340A2685B
:101290001342FCD0C3E702321A60023AA3681A4232
:1012A000FCD023687F017B40E0271F408023044A55
:1012B0005B01E3181F609346AD00DFE7008000404C
:1012C000DC180020F0B54F464646D646C0B51F0094
:1012D000444B44009C462418A400644463680E00F8
:1012E0001500FF2B02D880235B006360031FDBB275
:1012F0009946C0234A469B01E318012A3BD9802224
:1013000012011A60384B9A4683009846534642466B
:101310009958002925D05346586900F0BDFA431C5E
:101320005800C0180338FDD223686D016B40E025DA
:101330001D4080234A465B01E3181D60012A31D914
:10134000802380229B01E31812011A6080235B0036
:101350004246636053469F501CBC90469946A24645
:10136000F0BD23686D016B40E0251D4080235B01CB
:10137000E3181D60E4E7012E1FD0802212011A60DD
:10138000194B9A468300984653464246995800297D
:10139000C1D123686D016B40E0251D4080235B01B6
:1013A000E3181D600322216871400A401A6001237E
:1013B000B340A2681342FCD0C2E703221A60023A8B
:1013C000A3681A42FCD023686D016B40E0251D40E4
:1013D0008023054A5B01E318924682001D60904617
:1013E000E0E7C04600800040DC180020014B800090
:1013F000C0587047DC180020F8B5040020481700DA
:101400001E000D0000F048FA0100380000F044FA18
:10141000069A3304120313432268002A1FDB194A79
:10142000194EA21851424A41802149018C4652422C
:101430000A40164962440A6015490A60170031687B
:101440008F43FBD1134A2560A1182122A0600A60B6
:101450002268002AFCDAE36008230B60F8BD3F2213
:1014600021680A40AA42DAD1A2681205120D82420E
:10147000D5D1EE21E268C9020A409A42CFD1EDE708
:10148000001BB7000040FDBF08C0004000E0004066
:1014900000F000400430000010B580241B4BE40530
:1014A0001C6000282BD00123194C1843194BDC6118
:1014B000194C44401C62596298628021134BC90543
:1014C0001960164816490860E021C9041960002A0D
:1014D00004D18022134B12061A6010BD53019B1ACF
:1014E0009B009A18104B12019A420BD80F4B1A60AE
:1014F000084B5A6080220B4BD2051A60EDE7054B72
:10150000D861DAE7094A13601A00F1E700B0054034
:10151000D3C007B0008005402D3FF84FFCFF01000D
:101520000820014000A00540FFFFFF003C1D0020F7
:101530008023024A9B000B43D36270470080054022
:10154000142310B50100188804331B88984710BD78
:10155000162310B50100188802331B88984710BD68
:10156000F0B5C64600B5002916D0142304000125A5
:1015700098461827890046184346216818883B88F2
:10158000984701C4431E984140420540A642F3D10A
:10159000280004BC9046F0BD0125F9E7142370B57E
:1015A0000400188804331B880D0005499847030080
:1015B0000020002C01DB0130A04029009847C046E4
:1015C00055420000AA23064A1B0113608D235B00CD
:1015D000D3600449044B19605368002BFCDA704750
:1015E0000040024000B0FA00006002407047C04670
:1015F00010B50148FEF7BAFEE06B001070B5074B5E
:10160000074C9C4209D2013B1D1BAD080135AD00C2
:101610002D1908CC9847AC42FBD170BD646B00100B
:10162000286B0010054B064A06491A60064A074B0C
:101630001A6010000B689843FBD1704700E000402F
:10164000BFCDFBFE08C00040FE7F3C0000F0004024
:10165000044BDB6C002B03D18022034BD2021A60B7
:101660007047C046000011504C201150044A054BF1
:101670001A60054A1368DB018033FBD17047C0460E
:10168000FFFFFF0100F0004008C000404022034B74
:101690009A675A671A67DA667047C04600F00140D9
:1016A00010B5FEF707FF10BD70B52849284C294D2D
:1016B000641AA6103200302E00D930229200280081
:1016C00000F08AFF2F2E3BD830202F212B195B07EB
:1016D000214A801BDB0F891B052916D9002B32D02C
:1016E000B1006A50741CC01AF3189B004108EB1833
:1016F000C900C9181A605A6008338B42FAD1012315
:1017000001009943661888421AD0B300EA50731C4E
:10171000302B15D09B00EA50B31C302B10D09B000F
:10172000EA50F31C302B0BD09B00EA50331D302BBA
:1017300006D09B000536EA50302E01D0B300EA50A7
:10174000064B9D6070BD3400CDE7C046000100101F
:10175000C001001000000020C101001000ED00E0F9
:10176000002310B5294C82B0A367FFF72BFF01229D
:10177000274B1A60636C012BFCD10322254B1A60A6
:10178000224A936B012BFCD101330093224A04338C
:1017900001212248FFF730FE0523214A0093012151
:1017A0002048FFF729FE204B002202210420FFF7EA
:1017B00089FD1E4B002201210520FFF783FD1C4BF4
:1017C000002200210720FFF77DFD194B0022002198
:1017D0000820FFF777FD8023DB0000930022144BE5
:1017E00000210920FFF7DAFC104B0022002106201F
:1017F000FFF768FD0420FFF7F9FD0E4900F04CF8F3
:1018000001000020FFF794FE02B010BD00800040F0
:101810003CB0004030B00040002F685900800240CA
:10182000008C864700C00240001BB7004059730778
:10183000006CDC0240420F0001480421014B1847B4
:10184000F010002061150010124A936F9B0815D20A
:101850009066D166002905D0FFE7FFE7FFE7516FEB
:10186000106F704704B580210906C2175140002847
:1018700000D0C84305F018F9002104BDF0B5146E7E
:10188000556E576F166FFFF7E3FF1466556657677F
:101890001667F0BD000000D0114A936F9B0813D269
:1018A00010665166002905D0FFE7FFE7FFE7516F9B
:1018B000106F704704B5002801D00020C04305F028
:1018C000F3F8002104BDC046F0B5146E556E576F95
:1018D000166FFFF7E5FF1466556657671667F0BD8C
:1018E000000000D094464A4A926F9208624601D2A4
:1018F00028E0C046F0B5464E346E756E776F366F91
:1019000000F020F89446424A1466556657671667F9
:101910006246F0BD94463E4A926F9208624601D2FA
:1019200054E0C046F0B53A4E346E756E776F366F40
:1019300000F04CF89446364A1466556657671667A9
:101940006246F0BD002B24DB11D000293EDA00B541
:10195000C943404200D1013100F038F8C943404248
:1019600000D10131DB43524200D1013300BD002AD6
:10197000EBD1002801D1002905D00020C90FC907EB
:1019800001D1C043410800B505F076F800220023DC
:1019900000BD00B500290ADBDB43524200D1013310
:1019A00000F014F8C943404200D1013100BDC943E1
:1019B000404200D10131DB43524200D1013300F0FB
:1019C00005F8DB43524200D1013300BD002923D189
:1019D000002B18D1002A0CD0BC460D4F38667A6611
:1019E00000210023FFE7FFE7FFE77A6F386F6746C4
:1019F0007047002801D00748010000B505F03CF809
:101A00000022002300BD02000B00002000217047CF
:101A1000000000D0FFFFFFFF002B00D0BFE0130C41
:101A200028D1002AE7D080B4114F39667A66FFE7E3
:101A3000FFE730B4040C7B6F396F1B0423433B6614
:101A40007A66FFE7FFE7FFE7C04684B27B6F3D6F32
:101A50001B0423433B667A66FFE7FFE7C04600238B
:101A60002C042D0C7A6F386F00196941B0BC704797
:101A7000000000D0F0B594460025140E01D11202EA
:101A80000835140F01D112010435940F01D19200D1
:101A90000235D40F01D152000135D40B0134254F4A
:101AA0007C66254C3C660E0C93B2FFE7FFE7FFE730
:101AB0003C6F6643360C7703BE467343DF0B5B0413
:101AC000C01AB941130C7343DB18C91ACE08664318
:101AD000360CB64493B273431F0F1B01C01AB941B1
:101AE000130C73431F0B1B05C01AB941860D8F02DF
:101AF0003E436643360C092D24DB520A7243801A9A
:101B00007703460A6643360C16235B1BDE40DF4034
:101B1000BF1964466643821B7046043506330100D4
:101B2000D940A840C01900D30131A24206D20023F7
:101B3000F0BD0000000000D0FFFFFFFF121B0130CE
:101B4000F3D3F1E709277F1BFE406446A2B272433C
:101B5000801A00D20139220C7243130C1204821A2B
:101B600099410B007046043513370100F940A84035
:101B7000801900D30131002B02D1A2420AD2F0BD5C
:101B8000013000D30131121BFAD2013BF8D1A2423D
:101B900000D2F0BD013000D30131121BF7E7F0B5E0
:101BA0001C0C00D080E00CB400251C0A04D11B02E0
:101BB000160E3343120208351C0B04D11B01160FFD
:101BC0003343120104359C0B04D19B00960F334321
:101BD00092000235DC0B02D192185B4101351C00EA
:101BE000971864410134464F7C66464C3C660E0CA7
:101BF000FFE7FFE7FFE7C0463C6F6643360C77031D
:101C0000BE4697B27743C01B00D20139C01B00D239
:101C100001399FB27743C91BC91B170C77437E0458
:101C2000FF0B801BB941CE086643360C0C2D33DB0D
:101C3000B644120B1F053A431B0B97B27743C01BE8
:101C400000D201399FB27743C91B170C77433E047A
:101C50003F0C801BB941860D8F023E436643292706
:101C60007F1BFE400C3D7746AF40BF1930BCA2B28F
:101C7000ABB272437343801A9941220C7243130C26
:101C80001204801A994102000B000137001BA94180
:101C9000F9D2781E0021F0BD0C277F1BFE4077464D
:101CA0007F0BAF40FF19E0E700245D1C07D0144F05
:101CB0007D663966FFE7FFE7FFE7FFE73C6F95B218
:101CC0009EB265436643401BB141150C1E0C654333
:101CD000664336042F0C3E432D04401BB14199420C
:101CE00004D202000B0020000021F0BD01D190427F
:101CF000F7D3801A994101349942F2D3F6E70000F4
:101D0000000000D0FFFFFFFF48404140484018B4AA
:101D10001B4B5B68FC46019308BD04DFC71F001026
:101D200018B4174B1B68FC46019308BD00DFD11F98
:101D300000109446134A926F920809D2624618B472
:101D40000F4BDB68FC46019308BD0CDF89220010B5
:101D50000C4AF0B5146E556E576F166F6246FFF75A
:101D6000EEFF084A1466556657671667F0BD18B44B
:101D7000034B9B68FC46019308BD08DF2D21001032
:101D8000901D0020000000D0FFB550404240504060
:101D900059404B40594000E0FFB5154F4C00640DD1
:101DA00003D0BC4204D10C0314D80020090D09054E
:101DB0005C00640D03D0BC4204D11C030AD800228D
:101DC0001B0D1B0501264B4009D44B4003D58B420C
:101DD00000D18242FFBD9942FCD19042FFBD0B432E
:101DE000DB1803431343F5D0C9434918FFBD000076
:101DF000FF07000000B5FFF7CFFF804100BDC046E0
:101E000000B5FFF7C1FF01D9002000BD012000BDD2
:101E100000B5FFF7B9FF804100BD012040054A0031
:101E2000121804D85A00121801D800207047012057
:101E3000704700000021002805D17047C1174840B5
:101E4000401AFAD0C90713B5064B1B6898470CBC5B
:101E5000441CA2401005120B0349091B0905194334
:101E6000114310BD641D00201F04000010B54C007C
:101E7000620D8023D218DB00D21A5B057E2A10DDAA
:101E80009E3A13DACC170903490819435242D1404C
:101E9000640001341532202A05DAD040084360433B
:101EA00010BD002010BD0846604310BDC80FC0180B
:101EB000013810BD18B4044B5B6AFC46019308BDA1
:101EC00024DF392400100000901D0020132370B57A
:101ED0001D78012D19D014DD2848FFF739FB0600C5
:101EE0002748FFF735FB274C80223100200000F007
:101EF00073FB022D06D02448FFF722FB234B18600A
:101F000070BD204C224AA264F5E71E4C204AA3086B
:101F10005B421D402FD02B0022602020A9006118B9
:101F2000451B0A604A608A60CA600A614A618A6128
:101F3000CA610A624A628A62CA620A634A638A633F
:101F4000CA630A644A648A64CA640A654A658A651F
:101F5000CA650A664A668A66CA660A674A676D087B
:101F6000102D03D18A67CA67A264C4E71E339B00A1
:101F7000E250A264BFE70023CFE7C046534400000D
:101F800053460000901D00204C330000641D0020CB
:101F9000951F001007B5604601880A0A0230DF2A43
:101FA000FAD1C9B2820804D30288408800041043E1
:101FB00000E00068014A5050039007BD901D0020CA
:101FC0000FB403BC0CBCF0B50124E407634000E08F
:101FD000F0B50C0DCF0F661E3605891B640503D3C3
:101FE000C943404200D30131640D03D0661CF60A98
:101FF00007D0E41B00207F00791C89078912803CF0
:1020000024031D0DDF0F6E1E36059B1B6D0503D3CC
:10201000DB43524200D301336D0D03D06E1CF60A30
:1020200007D0ED1B00227F007B1C9B079B12803D8D
:102030002D032F1B661B58D4A446202E46DA2037CA
:102040001400BC401D00BD40F24033412A438018BB
:102050005941CB0F05D0C943C043002264425041CF
:10206000514162464D0D28D10D0D07D100281FD0DA
:10207000241940414941013A0D0DF9D0640006D3BD
:10208000013000D30131002C01D140084000013A59
:102090000BD4941CE40A04D112051144DB07194443
:1020A000F0BDD907204B194300E0D9070020F0BD4F
:1020B0000029DDD1002CDBD1F0BD0132C60740087C
:1020C000CD0728434908002EE1D0D9E73C2E29DA74
:1020D000203E40371400BC4000D00124F24014439D
:1020E0001A00BB401C43D317ACE7AC46202F08DADC
:1020F00020360400B4400D00B540F8403941284373
:10210000A5E73C2F0CDA203F40360400B44000D055
:102110000124F84004430800B1400C43C117EAE72A
:1021200010001900002494E70000F07FF0B50C0DBA
:10213000661E3605891BE60A6405640D02D0651C1F
:10214000ED0A04D0002001210905803C2403A446A7
:102150001C0D671E3F05DB1BE70A6405640D02D0FA
:10216000651CED0A04D0002201231B05803C2403DA
:102170007740644497B484B296B27443070C7E43AC
:10218000150C6F4380B26843361802D30120000457
:102190003F183004350C00197D41844688B29AB24C
:1021A00050430C0C62431F0C7C438EB27E43921949
:1021B00002D301263604A4191604170C36186741F9
:1021C00001BC81B29AB25143040C62431B0C5C43C4
:1021D00080B25843121802D30120000424181004BE
:1021E000130C401863412D185E410020474106BC86
:1021F00088B293B258430C0C6343120C544389B217
:1022000051435B1802D301210904641819041A0C04
:10221000091862416D1856410020474118BCF90267
:10222000720D1143F0026A0D1043ED020A0D03D145
:102230006D1940414941013B124E9B1B7600B34250
:102240000ED26D0007D3013000267141664635433A
:1022500001D1400840001B05C918E4072144F0BD26
:102260000BDA013306D1013004D101314F0D01D019
:102270004908F2E7E1070020F0BD013631050020F2
:10228000EBE70000FF030000F0B51C0D671E3F05E3
:10229000DB1BE70A6405640D02D0661CF60A04D055
:1022A000002201231B05803C2403D0252D06002697
:1022B000F6432E661E096E66CE0FF619B446490027
:1022C0004F0D02D07E1CF60A03D000200021403FB3
:1022D0003F033E1BB600B444013F7F05C91B4908BC
:1022E0002E6F013676089C02950D25437543ED133C
:1022F0007543AD1301356D10F603761B0CB4CC029B
:10230000450D2C43A2B2B3B25A43270C7B43350C84
:102310006F43A4B26C431B1902D3012424043F1958
:102320001C041D0CA4187D4124196D41009A91B222
:10233000ACB26143170C7C432B0C5F4392B25A43FF
:10234000A41802D301221204BF182204230C52182D
:102350007B41019C6C431B19520ED9010A43440175
:10236000A01A81B2B2B2514303145A43360C7343DC
:1023700087B27743D617D21900277E4136049B19BE
:102380001704160C7F185E417316ED18F301002632
:1023900080337541A90F06D16400690AE8055B0A1C
:1023A000184309D22FE00422944480337541A90ACE
:1023B000A8059B0A184326D3404149412404009AAA
:1023C000019B0D005543641B4343E41A95B286B24A
:1023D0007543170C7E43030C5F4392B25A43B61801
:1023E00002D301221204BF183204330C52197B416C
:1023F00052429C41002C02D400220130514140083D
:10240000CA071043490802B06246D7079210084B2A
:10241000D218084B9A4203D212058918C919F0BD87
:102420000020002A01DC3900F0BD01331905F5E771
:10243000FD030000FE070000002200B5203200F07E
:1024400004F8080000BD000000220B150AD410B5E6
:10245000944600F031F81414013400DA0021CB174F
:10246000144C20470020002170476244343A0CD4B9
:102470000C2A07DA04009140904052422032D440A6
:10248000214310BDD843D94310BD203207D40C4698
:102490009440524220321141D040204310BD0800E8
:1024A000C917203203D452422032104110BD180007
:1024B000190010BD6B2400100A0DCC0F531E1B0514
:1024C000C91A520503D3C943404200D30131520D0A
:1024D00003D0531CDB0A07D0121B00206400611CD0
:1024E00089078912803A1203014BD21A7047000003
:1024F000FF03000051434343C9188C46110C83B2BB
:102500004B4310B4040C614392B280B25043624317
:102510001C041B0C001910BC59411304120CC018E8
:102520005141614470470000132310B51C781348D3
:10253000FFF70EF8012C0BD004DD010080221048BB
:1025400000F04AF80F48FEF7FBFF0F4B186010BD74
:102550000B4C01005422200000F03EF80B4B636549
:10256000A365E36523666366A366E3662367636723
:10257000A367E3672362E361E4E7C04653460000D4
:10258000901E00204C330000641D00209125001097
:1025900007B5604601880A0A0230DF2AFAD1C9B2BB
:1025A000820804D3028840880004104300E00068D9
:1025B000014A5050039007BD901E0020014804219D
:1025C000014B18470011002061150010014B1B68DA
:1025D0001847000000110020014B5B6818470000FD
:1025E000001100207047C046F8B557464E46454694
:1025F000DE46E0B599460A9B07009A460D9B884641
:1026000093460B9E15009B070FD10C9B9E420CD24C
:102610009D1B0E005D44541C4B4631002020B847E2
:102620002200A542F7D1B0460B9E002E28D044468A
:10263000AD195346AA1B013E985D21004B46B84791
:10264000002EF6D123002C0098460D9B9B0710D539
:102650005B46E51A0C9BAB420BD9464622009846D6
:1026600001344B46310020200135B8472200A845EF
:10267000F6D820003CBC90469946A246AB46F8BD31
:102680002C00E2E7F0B54F464646D646C0B584B0CA
:1026900098460EAB1B7894469946129B0D9C109F52
:1026A000119E9A0724D401221A409246002E62D12C
:1026B000BC420CD21F2C00D9B8E00C9A551E302217
:1026C00001E0202C03D001342A55A742F9D8524604
:1026D000002A0DD0A6420BD9202C5AD00C9A551E98
:1026E000302201E0202C54D001342A55B442F9D1D3
:1026F000DA0632D55A0555D4002C4FD10F9A102A3C
:1027000000D18CE0022A00D17EE030220C9C2270A5
:102710004A460124002A25D02D220C9D2A55013439
:1027200003930C9B02960093019443466246FFF785
:102730005BFF04B01CBC90469946A246F0BD202C1D
:10274000EED00C9A1519013478222A70202CE7D08B
:1027500030250C9A121915700134202CE0D04A460D
:10276000002AD9D15A0728D41A07D9D520220C9D7E
:102770002A550134D4E7002A24D04A46002A28D119
:102780000C321A4225D1BC42A4D21F2C95D9202E3E
:102790001DD92024DA06C3D55A0503D4A7421AD07E
:1027A000B44218D00F9A102A1FD0022ACED1202C62
:1027B000B6D00C9A121901342EE02B220C9D2A550A
:1027C0000134ADE7BC4293D21F2C00D875E720241A
:1027D0008EE7013ED7E7621E002A10D00F9D102D14
:1027E0002DD0022D15D01400B2E79A06A7D5202CC3
:1027F00096D058250C9A121915700134A6E70F9C33
:10280000102C15D0022CEED162220C9C22700124D7
:102810009EE70C9DAA4652446225157096E79A06DB
:10282000E7D478220C9C2270012491E720244EE703
:102830009A06F6D558220C9C2270012488E7023CA7
:102840009D06D6D40C9D2D1914007DE710B50028E7
:1028500000D110BD01F0C2FBFBE7C04610B5002857
:1028600003D04A680B681100984710BDF0B5454683
:1028700057464E46DE46E0B59BB0249D259C8246D9
:102880008846099299462A00230028002100FFF774
:10289000C4FA002800D0CBE00122D94B52422800D4
:1028A0002100FFF7B5FA002800D0C1E00122D54B86
:1028B000524228002100FFF79DFA002800D0B7E01F
:1028C0000022002328002100FFF794FA002800D0FE
:1028D000EDE1AB4608948023289ADB001A40119260
:1028E00001D1062326935B460C9380235946289AF0
:1028F0001B011A40089B10920B4300D0AFE0002A46
:1029000000D0BFE104260D930E930C9300230A938D
:10291000279BB34201D99B1B0A930227289B1F4088
:1029200005D0734273410A9A5B421A400A920C9B8B
:10293000002B07D0584608990D9A0E9BFFF7F9F91E
:10294000834608910022002328002100FFF752FA55
:10295000002805D08020000684460899614408912B
:10296000289AA94B414613405A4604930A9B504665
:102970000393269B0293089B009201934B46099A6E
:1029800000F0A2F9002E63D0289B02009C061F23B2
:10299000E4179C436534431C089320004B46414692
:1029A000D0470C9B0024DA179D18DB0F9B46731E43
:1029B00055400C9302E00500202C11D00AAA944641
:1029C0001F23013463440A2128001E19FEF764FF07
:1029D0003031317028000A21FEF75EFF092DEAD858
:1029E000052306930C9B01940593002304930A335B
:1029F00003935B46029312AB0093089A4B46414601
:102A00005046FFF73FFE002F22D0099BC41A279B98
:102A1000A3421DD9020057461E00551C4B46414695
:102A200020200134B8472A00A642F6D828000FE03B
:102A3000289B2A000493279B41460393269B5046DC
:102A400002932300009201934B46099A00F03CF94F
:102A50001BB03CBC90469946A246AB46F0BD6B4AC3
:102A6000089B94465800400D6044FFF7E7F9684A18
:102A7000684BFFF77CF9684A684BFFF751F9089BF0
:102A8000674A1B031B0B1A4306000F000C9811002A
:102A9000644B0022FFF73BF9634A644BFFF767F989
:102AA00002000B0030003900FFF73AF9FFF7DEF9BA
:102AB0000C90FFF7C3F95E4A5E4B06000F00FFF76C
:102AC00056F900225C4BFFF72BF9FFF7CFF95B4A71
:102AD0005B4B0D9039003000FFF749F906000D9867
:102AE0000F00FFF7ABF9574A574BFFF740F90200C9
:102AF0000B0030003900FFF70AF902000B000A90C2
:102B00000B91FFF734F906000F000A980B990200A9
:102B10000B00FFF705F900220E900F914B4B300090
:102B20003900FFF706F90022494BFFF7F9F80200D8
:102B30000B0030003900FFF7FCF80022454BFFF78F
:102B4000EFF802000B0030003900FFF7F2F80A9AA4
:102B50000B9B0F0080210600C9050020FFF7D7F866
:102B600002000B0030003900FFF7DAF83A4F02009C
:102B70000B000E980F99FFF7DCF80022284BFFF7A7
:102B8000CFF8BC460D9A6244160000223305FFF7C9
:102B9000EEF807000D900E000E9102000B00584653
:102BA0000899FFF727F900285ED13B003200C626BE
:102BB0000C9963318E42B641109976420436002951
:102BC00000D1A3E6134361D0089F244A244B584602
:102BD0003900FFF715F9002807D00022214B58468D
:102BE0003900FFF707F9002850D1269B002B00D1B0
:102BF0008CE6119B5A1E9341269AD31A269385E69A
:102C0000FFFFEF7FFFFFEFFFFFF7FFFF01FCFFFF7D
:102C1000FB799F501344D33FB3C8608B288AC63FCB
:102C20000000F03F0000F83F61436F63A787D23F89
:102C300071A379094F930A400000E03F1655B5BBD8
:102C4000B16B0240EF39FAFE422EE63F00002C4005
:102C50000000244000001840FF0300002D431CEB3F
:102C6000E2361A3F80842E410C9B0022013B0C93DC
:102C70000D98144B0E99FFF75CF803000D900A00B5
:102C80000E9194E700230D930E930C93269B19004D
:102C90000C9B994213DDCB1A013B26938023289A83
:102CA000DB001A430023289200260C932EE6802393
:102CB0001B069C46A4446346AB4608930BE60023E0
:102CC0002693EBE700002440F0B5DE4657464E461B
:102CD0004546E0B597B08046894692469B46209A85
:102CE000219B10001900FFF798F8002800D01FE280
:102CF000209821990122CC4B5242FFF77BF8002803
:102D000000D03EE1209821990122C84B5242FFF7A2
:102D10007FF8002800D0E7E0209821990022C44BDA
:102D2000FFF776F8002800D0C7E02098219900220C
:102D3000C04BFFF75FF8002800D0BEE02098219933
:102D400000220023FFF756F8002800D0E1E000231E
:102D500080240D93249BE4001C4000D0E9E0002275
:102D60000626B54B069207930EAB0893209821993F
:102D7000FFF77CF807000C90FFF760F802000B00EB
:102D800020982199FEF7C3FF069A079BFEF7EFFFF5
:102D90000A900B91FFF78EF805000990FFF74AF8AB
:102DA00002000B000A980B99FEF7B1FF0022A34B1B
:102DB0000A900B91FFF72CF8002800D148E12B0076
:102DC000013318000993FFF735F8069A079BFFF7C0
:102DD00017F8002804D03B0001330C93002309931B
:102DE000002E00D0D5E00C9D2800FFF727F8020048
:102DF0000B0020982199FEF78AFF00228F4B0600D6
:102E00000F00FEF7F7FF002808D100228B4B30009F
:102E10003900FEF7FDFF002800D17EE1202C00D113
:102E2000FAE00C9F0A213800FEF70EFD089E3031B3
:102E3000315538000A21651CFEF706FD002800D137
:102E400080E1202D00D1E7E00A21FEF7FDFC3031C2
:102E5000715538006421FEF7F7FC0234051E14D0CA
:102E6000202C00D1D8E008AA9446172328006344F8
:102E700001340A211E19FEF7E7FC303131702800B9
:102E80000A21FEF7E1FC051EEAD10323249A134030
:102E9000012B00D1ECE0202C00D1C2E00D9B002BD7
:102EA00000D111E12D23089A651C1355249B01952F
:102EB0000393239B0293089B20E0249B5246049398
:102EC000239B49460393229B40460293209B219CCF
:102ED000009301945B46FFF7C9FC17B03CBC9046D9
:102EE0009946A246AB46F0BD249B5B070ED4032255
:102EF000534B2499019203912399029100935246D6
:102F00005B4649464046FFF76FFBE6E74D4B042220
:102F1000EFE7209A219B00200021FEF7F8FE012315
:102F200080240D93249BE400209021911C4000D12B
:102F300015E7229B092B00D808E1190030230EAABF
:102F40004E1E08921370092E00D1F9E0537008AAA2
:102F50000C0094468E1E1721093C02236144302246
:102F600005E00133CA54013E202B00D1A3E09C426E
:102F7000F7D1354BF2009B181A685B6806920793ED
:102F8000F4E6249B0393239B0293042301932F4B8A
:102F9000B4E7202C40D0099D731E0A212800069317
:102FA000FEF77AFC089B3031195528000A21FEF7FC
:102FB00073FC671C0995092D00D892E0202F2BD0B7
:102FC000B11E06910A21FEF767FC089B3031D955E6
:102FD00009986421FEF760FC099AA51C0700632A82
:102FE00000D87FE03419013C14E0631B08AA069363
:102FF00094461723013563440A2138005E19FEF711
:103000004BFC3031317038000A21FEF745FC092FA6
:1030100068D90700202DE8D10323249A1340012BFF
:1030200025D0202542E7C046FFFFEFFFFFFFEF7FDF
:1030300065CDCD4165CDCDC180842E410000E03FFE
:10304000646E0010686E0010806E0010746E0010C8
:1030500000220A980B99494BFEF7CCFE002800D0BD
:10306000BEE62B1E60D1099B01330993B8E62024EC
:10307000239B002B00D10EE70D9B002B03D1249A3C
:103080000C33134202D0239B013B2393239BA34287
:1030900000D800E708AA9446172330226344202C66
:1030A000BFD0239901341A558C4200D1F3E6202C6D
:1030B000F7D12025FAE6324BF2009B185C681B68BA
:1030C00006930794202451E6249B5B0720D4249B7D
:1030D00025001B0700D4E9E62023089A0135135583
:1030E000E4E63D00202D97D008A98C4617230698CA
:1030F000634442193021002826D001355955202D2E
:1031000030D0AA42F9D12E230899541C8B5485E65D
:103110002B23089A651C1355C8E60123AC462B40A7
:103120009C4463460C9379E6DB0700D458E69AE7A3
:10313000249B0393239B029303230193114BDDE60E
:10314000012416E72C00A0E62A00DCE7DA001E00C6
:103150000B4B9B185C681B68069307940EAB00240E
:10316000089303E60323249A1340012B00D09DE625
:10317000239B002B00D199E620247DE70000E03F4F
:10318000806E0010706E0010F0B54546DE46574662
:103190004E46E0B5A1B01D002A9B90460B93BD4A58
:1031A000BD4B0A908B461A60002900D10DE2002326
:1031B00028789A46002861D0B84B56469946C246B0
:1031C00009E0741C320053460A9E5946B047260057
:1031D0002878002850D001352528F2D104232878FA
:1031E0009846023B9C460300203B691CDBB200244E
:1031F0000A00102B0ED84F469B00FB589F46012318
:103200000D001C432878691C0300203BDBB20A0038
:10321000102BF0D90300303B092B41D900272A2875
:103220006AD000230C932E2851D00300683BDBB2F8
:10323000122B5FD89A499B00CB589F4663460D00DE
:103240001C43DFE743460D001C43DBE710230D0062
:103250001C43D7E708230D001C43D3E780235B0002
:1032600068781C43551C0300253BDBB2532BA8D8C0
:103270008C4A9B00D3589F46D046B2465246D04512
:1032800001D843465A1E4346594600200A9CA0478F
:10329000504621B03CBC90469946A246AB46F0BD94
:1032A0000027030001E00D000131B800C019400003
:1032B000C0180B7830381A00303A0700092AF2D9C2
:1032C00018000023AA1C0C930D002E28ADD18023DA
:1032D0006878DB001C430300303B092B00D877E102
:1032E0002A2800D1ABE10300683BDBB215000132B4
:1032F000122B9FD91500B6E70B9B80CB002F00DA6D
:103300005BE16878AA1C0B930D008AE768786C284B
:1033100000D14DE280235B001C43551CA3E78023B2
:103320009B0068781C43551C9DE76878682800D18D
:1033300039E28023551C1C4395E70B9B04CB984630
:103340000C9B0B921078002B00D0A2E1002801D139
:1033500000F071FC02235B425A1C0B9B944619003F
:103360000D92614401E08B4206D001331A78002AA5
:10337000F9D10B9A9B1A0D938023DB0023400E9307
:1033800005D00D9B19000C9B994200D90D93022387
:1033900023400F9300D140E2002800D126E20E9B8B
:1033A000002B00D1E6E141460C9B0C9129009C19B1
:1033B0000B9B5D469B1B3200B8460B938B460AE085
:1033C000534629000A9F561CB8470B9B985D00285E
:1033D00000D104E232009442F2D10C9B4746984659
:1033E0005B462600AB461D000F9B002B00D0FDE185
:1033F00043460B93ECE60B9B04CB0B93002A00D1C6
:1034000028E121231C43A44610A988461F240F212C
:1034100044440023884603E0202B00D124E10A0025
:1034200041461140CFB238003730092900D807385B
:103430000133E05411090F2AEED815E10B9B043338
:103440000C93731C0D939846A30700D406E20B9BC4
:1034500032001878594653460A9CA047BE19012FDE
:1034600000D8A7E22B0042465546B0469A465E4633
:103470000A9F541C2B0031002020B84722004445ED
:10348000F7D15346B346AA4626001D000C9B0B936A
:103490009EE6C04689310010381D0020846C001063
:1034A000C86C0010146D0010782800D152E2582822
:1034B00000D183E16F2800D1F3E0622800D156E308
:1034C000102322009A438023DB000D9223406928B9
:1034D00000D0BCE30A220E92002B00D146E2012369
:1034E0000D9A9A430D9280240D9BA40023409C4684
:1034F000692800D1E7E0642800D1E4E06346002BAE
:1035000000D094E280230D9A5B001A400B9B9046FA
:1035100004330F93002A00D02CE30D9B5B0600D5EB
:1035200044E20D9B1B0600D488E30B9B1B8818000C
:10353000031E00D04DE20D9A1033110099430D91F6
:10354000520500D445E2002398460D9B059706934B
:103550000C9B04930E9B0393002302934346019319
:1035600018AB00933200534659460A98FFF78AF881
:103570000F9B06000B932BE6462800D18EE0072216
:103580000B9B04940733934319000C9A0397029200
:103590000CC90A98009201930B9132005346594688
:1035A000FFF792FB060013E6741C320053460A9E96
:1035B00059462520B04726000AE6022268781443BF
:1035C0007F42AA1C0B930D002BE6D34B0A93EEE52A
:1035D0000023010000E02A009800C01840004018B5
:1035E0005178030008003038551C303B0928F2D9C7
:1035F0000C930800023218E6202302009A43472A5F
:1036000004D180231B011C4302239843452801D188
:1036100020231C4307220B9B049407339343190078
:103620000C9A039702920CC90A98009201930B918D
:10363000320053465946FFF719F90600C8E50B9BBF
:10364000A87802CBCA43D21711400C91EA1C0B9305
:103650000235EAE5102321009943113319438C46C2
:103660000023610500D4CFE6624606920822059247
:103670000C9A04921022039200220292019318AB3A
:1036800000933200534659460A98FEF7FBFF0600A6
:103690009EE5002800D1CDE2013B5DE620231C43DE
:1036A0006DE708230E9322000D948023DB00134066
:1036B000642800D0CEE2002B00D010E78024130055
:1036C000A40023409C466346002B00D0E5E0802305
:1036D0000D9A5B001A400B9B904604330F93002A0F
:1036E00000D0C6E10D9B5B0600D547E10D9B1B0694
:1036F00000D499E20B9B00229B5ED9175A184A40CE
:103700001000DA0F1492002B09D1802310220D999A
:10371000DB000B4091430D91002B00D050E10D9A3E
:103720006123920600D5412310AA1F249446DBB2E0
:1037300064440A3B159716960B9346460700A84625
:1037400025000E9C0AE03033DBB20136AB55A742B0
:1037500000D231E1202E00D12EE1070021003800F7
:10376000FEF79AF8CBB20929EDD90B9A9446634437
:10377000DBB2EAE70B9B32009E1B33005E46AB4692
:1037800055469A460B970A9F2B003100541CB847A8
:103790005346185D22000028F6D1AA460B9F5D46CD
:1037A000B346260020E6C023A8781C4303355AE51B
:1037B000C0239B00A8781C43033554E50C2322004A
:1037C0009A4314331A430D92630500D5D3E0802346
:1037D0009B001C40F13BFF3BA4460E938EE60C9BE6
:1037E000474698465B46AB461D00FDE50D9B320003
:1037F0009F4200D8FCE5BE19F61A2B005D469B4699
:103800000A9F541C534629002020B8472200B44286
:10381000F7D15B46AB461D00EAE50D9A531C974273
:1038200000D812E2BB199B1A0D971F0032005E46AA
:10383000AB460A9D541C534631002020A847220065
:10384000BC42F7D15D46B34626000D9F7B1C0D930D
:103850000B9B1878002800D0A1E5C9E5012F00D8FE
:10386000F0E1731E3200A846DF190A9E5D460D9CEA
:1038700000E00134534629002020B0472200BC421A
:10388000F7D12600AB46454601360B9B3A00187827
:10389000594653460A9CA047F8E507220B9B07337D
:1038A0009343013294469C4462460B921A685B68CB
:1038B0009C46DB17129313931298139903005340FD
:1038C000109364460B0063401193109B119C1B1ACC
:1038D0008C41109311946346DB0F149363461A4393
:1038E00050D00D9A6123920600D541230022DBB20D
:1038F000904610AA0A3B1F2494460F935B466444EB
:103900001793230015971696AB46109E119F4446B9
:103910000E9D984610E0C046E52500103032D2B228
:10392000434601341A550023BB4200D167E1202CE5
:1039300000D167E106000F002A00002330003900A3
:10394000FDF7E8FFD2B2092AE8D90F9B9C466244F2
:10395000D2B2E5E780231022DB0023400E920C2236
:1039600094430D94002B00D1BDE5B8E580239B0066
:103970001C40A446A7E610230E93B0E50B9B1B78D2
:103980001A00BDE60D9A1023110099430D915205BE
:10399000A7D5002398460D9B059706930C9B04938F
:1039A0000E9B0393149B0293434667E60B9B1B7885
:1039B0001800BDE50D9E69E54546159FB046169E6B
:1039C0000D9B059706930C9B04930E9B0393149BEE
:1039D000C3E50D9A6123920600D5412310AA1F2446
:1039E0009446DBB264440A3B149715960B93464603
:1039F0000700A84625000E9C08E03033DBB20136F4
:103A0000AB55A7420ED3202E0CD007002100380062
:103A1000FDF742FFCBB20929EFD90B9A94466344D4
:103A2000DBB2ECE74546149FB046159E8DE50722B4
:103A30000B9B07339343013294469C4462460B929E
:103A40001A6859681300100009910B435CD10D9A54
:103A50001033110099430D91520555D50023984616
:103A60000D9B059706930C9B04930E9B03930023D9
:103A700099E70B9B1B68D9175A184A401000DA0FB8
:103A80001692002B08D1802310220D99DB000B40E9
:103A900091430D91002B2CD10D9A6123920600D5F4
:103AA000412310AA90461F24DBB244440A3B1497DA
:103AB0001596A8460B932500070066460E9C08E065
:103AC0003033DBB20136AB55A7420ED3202E0CD0DB
:103AD000070021003800FDF7DFFECBB20929EFD93E
:103AE0000B9A94466344DBB2ECE74546B446149F18
:103AF000159E0D9B059706930C9B04930E9B0393B9
:103B0000169B029363462AE50D9A6123920600D51F
:103B100041230022DBB2904610AA0A3B1F249446A0
:103B20000F935B46644414971596AB46464616932E
:103B3000A0460E9D099F04000BE03032D2B24346EE
:103B400001369A550023BB4265D0202E65D0040073
:103B50000F002A00002320003900FDF7DBFED2B25F
:103B6000092AEAD90F9B9C466244D2B2E7E70223B6
:103B70000E9398E50B9B1B68181E08D1802310221A
:103B80000D99DB000B4091430D91002B2CD10D9A28
:103B90006123920600D5412310AA90461F24DBB270
:103BA00044440A3B14971596A8460B93250007003A
:103BB00066460E9C08E03033DBB20136AB55A742B7
:103BC0000ED3202E0CD0070021003800FDF764FE34
:103BD000CBB20929EFD90B9A94466344DBB2ECE7E8
:103BE0004546B446149F159E0D9B059706930C9B66
:103BF00004930E9B0393002302936346AFE4B54204
:103C000000D894E6179B109611975D46159F169E57
:103C1000A0469B46BFE6A54297D9169BB0465D4697
:103C2000149F159E9B461BE70B9B1B68D9175A18C0
:103C30004A4065E500230D93FFF79EFB0B9B1B6835
:103C4000180075E437000D9E1FE60D9302E60A2367
:103C50000E932AE5140082E600B585B00391012198
:103C600002900093034813004A4202A9FFF78CFA1E
:103C700005B000BD5D28001010B5094A84B0146875
:103C8000002C09D0012200910300524203A90548EB
:103C9000A047012004B010BD00F0ECF90020F9E7C6
:103CA000381D00204D28001000BEFDE710B5FFF7BD
:103CB000FBFFC04670B5FDF7A1FC074C074B9C42CB
:103CC00009D2013B1D1BAD080135AD002D1908CCF3
:103CD0009847AC42FBD170BD646B00106C6B001058
:103CE000030010B508001B681100984710BDC046BE
:103CF000F8B54746CE4680B5437D80460C0015009A
:103D0000002B43D0002A34DD0A78037D00200A2AE4
:103D100033D0012D1ED0204B0121671E994602E0B1
:103D20003100B54216D0635C7A5C4E1C0A2BF7D189
:103D30000D2AF5D043461B68884204DA091A201878
:103D4000984743461B680221484698473000310097
:103D5000B542E8D1854204DD4346291A1B68201884
:103D600098476419013C23780D3B5A42534142461F
:103D700013750CBC90469946F8BD002BC9D143463B
:103D8000054802211B6898470120C2E7036811001B
:103D900020009847EDE7C046D06E0010F8B54E46BB
:103DA000DE4657464546344BE0B51C688146002C3C
:103DB0004ED0324B9A46324B9B4602E02469002C8F
:103DC00046D02368002BF9D052461268002A01D051
:103DD000A242F3D14F46627D40CF002A48D0002E48
:103DE000ECDD49460979227D00200A2939D0012ECF
:103DF0001ED04B4601215D1C03E00135414646457E
:103E000016D04B1C98462B79EA780A2BF5D10D2A4F
:103E1000F3D02368814203DD091A381898472368D4
:103E20000221584698470135404641464645E8D16B
:103E3000864203DD311A236838189847BF19013FBD
:103E40003B780D3B5A42534123752469002CB8D16D
:103E50004A46002313603CBC90469946A246AB46B6
:103E6000F8BD002AC3D10648083998470120BEE7AB
:103E7000310038009847A1E72C19002034190020A0
:103E8000D06E00100B6870B505000C00802B04D0BC
:103E90005A1C2260E418257170BD0800FFF77EFFF0
:103EA0002368F5E7F0B5DE4657464E464546E0B591
:103EB00085B017001C0006000D00FDF753F9002324
:103EC000314A12184B41002B59DB30490800884613
:103ED00002F00AFE01906B1C03D1300002F084FD59
:103EE0000500002C26D12A4B9A462A4B1C68002C30
:103EF00015D0002F21D1284F02E02469002C0ED0CC
:103F00002368002BF9D03B68002B01D0A342F4D1E9
:103F100020002A003100D0472469002CF0D1019BF9
:103F2000002B28D1280005B03CBC90469946A246FB
:103F3000AB46F0BD194B9A46D7E7174B9B4602ABF1
:103F4000DF1D0A23994602E02469002CE7D023688C
:103F5000002BF9D05B461B68002B01D0A342F3D1A4
:103F60002A0031002000D0474B46012239002000B2
:103F70003B70D047E8E7404602F076FDD2E70122E9
:103F8000074B5242A1E7C04640420F0048110020B3
:103F9000E13C00102C19002034190020F13C0010E5
:103FA000FFFFFF7F0A4A1368002B05D10CE01A00BF
:103FB0001B691032002B07D09842F8D1002902D19A
:103FC00003691360016170470029FCD01060FAE7B3
:103FD0002C19002010B500F0E7FA10BDF0B5CE4660
:103FE000474680B583B06B46DE1D05003070FDF797
:103FF000B9F800231A4A12184B41002B2CDB194F39
:10400000380002F071FD184B80461C68002C16D059
:10401000164B994602E02469002C10D02368002B2F
:10402000F9D04B461B68002B01D0A342F3D12000EE
:1040300001223100FFF75CFE2469002CEED14346DB
:10404000002B05D1280003B00CBC90469946F0BD6A
:10405000380002F009FDF5E70122054B5242CEE798
:1040600040420F00481100202C1900203419002074
:10407000FFFFFF7F70B5040002F0B6FC01230100D2
:10408000050001222000FFF70DFF084B1C68002CE3
:1040900006D06368002B05D098472469002CF8D11E
:1040A000280070BD2469002CF3D1F9E72C190020F9
:1040B000F0B5A3B004000D00FDF754F800231B4A2F
:1040C00012184B41002B2CDB194E300002F00CFD76
:1040D00000230700019322002B0001A91548FFF7D8
:1040E000BBFD019B0500002B02D001A8FFF756FE87
:1040F000114B1C68002C06D06368002B08D0984731
:104100002469002CF8D1002F07D1280023B0F0BD7E
:104110002469002CF0D1002FF7D0300002F0A4FC6D
:10412000F3E70122054B5242CEE7C04640420F0062
:1041300048110020853E00102C190020FFFFFF7F52
:104140000FB400B583B004A901C90191FFF7B0FF16
:1041500003B008BC04B018477047C0460022014BAA
:104160001A7070478A1D00204B790020FF2B0BD15D
:104170008B79002B08D1CB79012B05D1082A03D9E3
:104180008A78024B09301A707047C0468A1D002099
:104190000120704710B5012909D1154953791079CB
:1041A00009781B0203430020994202D010BD012070
:1041B000FCE75378012B08D0022BF7D100206422B2
:1041C0000021FDF769F90120F0E7D1789378090221
:1041D0001943CB0507D54A0A90B201231A407E3312
:1041E0001940FDF7DBF901204A0A4042F5E7C046D5
:1041F0008A1D002000487047F46E001010B501239E
:104200001400012909D152780023012A05D16279CD
:10421000217912020A43072A01D0180010BDA633E3
:10422000024A210001F086FA0300F6E7186F001039
:104230000123037000487047D46E00104A780B7851
:1042400012021A438B7810B51B041A43CB781B0655
:1042500013439622D200934200D010BD00220120C9
:1042600011004042FDF79AF9024B1860024B1960A9
:104270007047C046CC180020D0180020154B70B5F0
:104280001A68002A22D0EFF3108172B61068002855
:10429000FCD0BFF35F8F00220F48596002701B688B
:1042A000BFF35F8F1A6081F31088002400250B4E46
:1042B0003078FCF731F9002804D1002400252900CA
:1042C000200070BD3078FCF733F9F8E7FA240025B8
:1042D000A400ECE7441D00208C1D00208B1D002055
:1042E00010B5024B1878FCF723F910BD8B1D002088
:1042F00070B5050000200E0001F00CFB002835D041
:10430000002001F01DFB002830D0FCF72BFF00231C
:10431000184A12184B41002B24DB174C200002F0E6
:10432000E3FB002822D0002001F0F4FA00280BD192
:10433000012000214042032500F016FD6D422000BF
:1043400002F092FB280070BD002001F0F9FA00286D
:10435000EED029003200002001F0FEFA051EEED159
:10436000033DECE70122054B5242D6E703256D429F
:10437000E8E7C04640420F006C1D0020FFFFFF7FB2
:1043800010B5FCF7EFFE00230E4A12184B41002B2C
:1043900013DB0D4C200002F0A7FB00280CD00120FD
:1043A0000021404200F0E0FC002001F01FFB00284B
:1043B000F5D1200002F058FB10BD0122034B524200
:1043C000E7E7C04640420F006C1D0020FFFFFF7F63
:1043D000F0B5D6464F464646C0B507000E00FCF77E
:1043E000C1FE0023394A12184B41002B5EDB3849CD
:1043F0000800884602F078FB002804D11CBC9046D7
:104400009946A246F0BD002001F084FA002851D060
:104410000024002E35DD2F4B99469A4615E00028E2
:1044200051D101200021404200F09EFC002001F00B
:10443000DDFA002001F06EFA002822D0002001F001
:1044400033FB002821D0A6421BDD0020351B01F0E4
:104450002BFB8542E3DC2A003919002001F002FB26
:10446000050001200021404200F07EFC002001F008
:10447000BDFAFCF777FE4B46641918605960A642F6
:10448000E3DC404602F0F0FAB8E7FCF76BFE0023ED
:104490000D005146104A84460868496812184B417D
:1044A0009D42EED8CFD19445CDD9EAE701220B4BFE
:1044B00052429CE700200021064B1860596040469C
:1044C00002F0D2FA9AE70500C5E7C04640420F0065
:1044D0006C1D0020D012002020A10700FFFFFF7FED
:1044E00030B52A4C85B00021200002F0E5FA002802
:1044F0001CD1274B1A68002A16D0EFF3108172B630
:1045000010680028FCD0BFF35F8F01242148596058
:1045100002781B68D2B20470BFF35F8F002018606E
:1045200081F31088002A17D005B030BD012000218A
:10453000404200F019FC002001F002FA05002000C2
:1045400002F092FA002DEFD0134B1B68002BEBD03A
:10455000124A10689847E7E7FCF7F6FB0400FCF7FF
:1045600001FEFA220023920012184B41002B09DBB6
:104570000121029100210191094920000091FCF7DD
:10458000E7FBD1E70122074B5242F1E76C1D002007
:10459000441D00208C1D0020CC180020D0180020C5
:1045A0007D420010FFFFFF7FD02310B51B0684B0B3
:1045B0001C68FCF7C9FBFCF7BFFCA04202D000203E
:1045C00004B010BD294B002100201B7801F0E0FD54
:1045D00027480368002B41D00120FCF72BF9FF236B
:1045E000244C254920701840FBF7BCFF207801219E
:1045F000FBF780FF0520FBF7A3FF002821D108224D
:1046000000211E48FDF7E2FFFCF79EFB0400FCF7CB
:10461000A9FDFA220023920012184B41002B20DB47
:104620000121029100210191154920000091FCF720
:104630008FFB0028C3DB13480121FFF7B3FC0120E7
:10464000BEE70120FBF726FF01000C48FCF760F9EC
:1046500000220D490520FBF7AFFFECE7FCF73AF924
:10466000BAE70122094B5242DAE7C046EC7100106A
:104670006C1D00208B1D0020E1440010441D002013
:104680007D42001010110020E1420010FFFFFF7F6B
:104690000048704760700010004870470C700010B0
:1046A00070B5040016480378002B20D0002C18D0D9
:1046B000052C23D8134B1448A400E558811C002373
:1046C00004E001330A800231132B14D0EA5CDCB21F
:1046D000002AF6D1C023013464009B001C430480EF
:1046E00070BDC1240848094BA4004380F7E711219D
:1046F00000F016F8DAE7CA24A400F0E70020EFE79C
:10470000741D0020747000100419002009040000BA
:1047100010B5024800F0EAF810BDC0465C1D00204C
:10472000013930B5002900D1B8E06F4B1A78121169
:10473000D5B22C003034092A00DDB2E00470012922
:1047400000D1CEE00F221C78224014003034092A18
:1047500000D9A8E04470022900D1C2E05A781211B1
:10476000D5B22C003034092A00DD9FE08470032983
:1047700000D1B6E00F225C78224014003034092AC0
:1047800000D995E0C470042900D1AAE09A781211EA
:10479000D5B22C003034092A00DD8CE004710529E3
:1047A00000D19EE00F229C78224014003034092A68
:1047B00000D982E04471062900D192E0DA78121122
:1047C000D5B22C003034092A00DD79E08471072944
:1047D00000D186E00F22DC78224014003034092A10
:1047E00000D96FE0C471082900D17AE01A7912115A
:1047F000D5B22C003034092A67DC0472092900D1B3
:104800006FE00F221C79224014003034092A5ED850
:1048100044720A2965D05A791211D5B22C0030346D
:10482000092A57DC84720B295BD00F225C79224065
:1048300014003034092A4FD8C4720C2951D09A7907
:104840001211D5B22C003034092A00DD073404736C
:104850000D2946D00F229C79224014003034092AB9
:1048600001D93732140044730E293AD0DA79121183
:10487000D5B22C003034092A00DD073484730F29A7
:104880002FD0DA790F2313401A003732092B01D8C1
:1048900030331A00C273102923D010300023037064
:1048A00030BD07344AE73732140053E707345DE779
:1048B0003732140066E7073470E73732140079E7BF
:1048C000073483E7373214008CE7073495E7373233
:1048D00014009DE70734A5E737321400C4720C2991
:1048E000ADD14018DAE7C0465C1D002010B588B095
:1048F00004000D2200216846FDF768FE0D2200210C
:1049000004A8FDF763FE4B236A4604A913706846AA
:104910000D2202F0A1F81521082269442000FDF7BC
:104920005BFE08B010BDC046F8B500F03BF90C23A3
:10493000194DFF22AB6719490520FBF73DFE184CC6
:10494000402200212000FDF741FE402700230126E0
:104950002121144A66702783A260136063545F317B
:10496000618445396354104A10496360E2602787C7
:10497000A1620B606362E26202F08EF880239B0505
:104980002E64EB6490230A4A0120EA508022094BEE
:104990005202DA64F8BDC0460000115051050020F3
:1049A0003819002084001050000110508000105071
:1049B00010D001000020115010B501210520FBF797
:1049C00099FD10BD10B500220021024800F00AF93F
:1049D00010BDC04658190020044B1970002904D09E
:1049E00080219023024A8902D1507047861D002001
:1049F000002011500B785B0602D14B78052B00D0BC
:104A000070478A78014B1A60FAE7C04600001150DF
:104A1000F0B5C646C87800B58007800FC3B29C4683
:104A2000012B60D08F780A794B797F213940FC09BE
:104A30001B024E001343304D32195201AA189770D1
:104A400001276740577000275B055B0DD770138304
:104A5000D076CA00012C2FD02848804688014244D5
:104A6000281882601760002935D0254AC900904671
:104A7000414441603F223F3393436246022A34D08F
:104A8000204937190A687F01D3180B601E49EF19B6
:104A9000FA608B422BD8341964012D19EB7E1B4927
:104AA0009B064A40134380220120120613436A6882
:104AB000136004BC9046F0BD15488046880142440E
:104AC000281882621760002905D0104AC900904654
:104AD00041444162CEE7002364012D196B600D4B08
:104AE0000120EB60E5E70020E3E75B00C8E7FCF7A7
:104AF0007FFDFA68CFE7C0463819002084001050C7
:104B000004001050401D0020FF0F105000001050F6
:104B1000800010500001105010B501F0BDFF10BD15
:104B20007F2020B5150008404000C90940180449FD
:104B3000400140181A00290000F054F8012020BD5F
:104B4000381900207F2310B50B40C909002B03D171
:104B500002220748521A8266802258004018054BEC
:104B60004001C0181201002101F0D6FF10BDC0465F
:104B700000201150381900207F2310B50B4000D1C0
:104B800010BDC90958004018044B400118180023F3
:104B90000022C370024901F0BFFFF1E7381900207D
:104BA000FFF7FFFF80220A4B520410B51A60094B31
:104BB00009491A6010000B689843FBD1802200213C
:104BC00052010648FDF702FD0922054B5A6710BD48
:104BD00000E0004000F0004008C00040000010501D
:104BE0000000115070B5837E04000D001600002BEC
:104BF00019D100232100E3820133A682A376256127
:104C0000A01C1B3101F068FF002804D080219023F4
:104C1000084A8902D150200001F036FF002805D053
:104C20000123237770BD01F06FFFE2E7200001F060
:104C300063FFF7E7002011507047C0467047C04639
:104C400000207047002070477047C0467047C0463C
:104C50007047C0467047C046024B5878431E984183
:104C6000C0B27047A4140020024B18784007C00F50
:104C70007047C046A4140020F0B5D6464F464646BD
:104C8000C0B52E4E8246337889460124FF2B43D18E
:104C9000002940D0002154222948FDF797FC00222A
:104CA000284C294B20001A70FBF714FE274B1C6080
:104CB000274C20001430FBF71BFE200001F050FEB3
:104CC000244B254D1C60254B002B04D02800FFF7FA
:104CD000AFFA234B186023492A7800240023884622
:104CE0001F4F10E03A68630194466344002B12D0D2
:104CF0005B68002B0FD098472A780134E4B2511C2E
:104D00002300A1420EDBA242ECD89B1A5B01434474
:104D10005B68002BEFD1002420001CBC9046994614
:104D2000A246F0BD5346494650463370FFF7FCFD9E
:104D3000041EF0D05046FFF73FFEEDE7441100207F
:104D4000A41400209C140020871D0020F8140020CB
:104D500028110020FC140020851D00203142001085
:104D6000F412002090710010F0B5DE4657464E4612
:104D70004546E0B5CC4B8BB01B78FF2B00D146E10C
:104D8000CA4B07AC9B46CA4B9A465B461D686A698C
:104D9000EFF3108172B61368002BFCD0BFF35F8F66
:104DA000A9612800210001F01BFC6A69AB69BFF30F
:104DB0005F8F0021116083F31088002800D126E165
:104DC0006378082BE1D852469B00D3589F4663680E
:104DD000002BDAD0A0689847D7E77F232179B54D1B
:104DE0000B405800CA092D18AD182A000126303290
:104DF0001079B043107110790336B0431071002B55
:104E000000D10DE1AC4A2B7D1278934200D3FBE038
:104E1000AA4A5B011268D318002B00D1F7E09D6904
:104E200062792078A368A847AFE7A54A1378002BDA
:104E300000D1ECE01378013BDBB213701378002B48
:104E4000A3D101229B4B01211B789A481343994A15
:104E5000984D13703423D25C27788A43C254C25CC5
:104E600004208243EA540133EA5C8A43EA54EA5C50
:104E70008243EA54002000F0C1FC602223791A40EA
:104E8000602A00D1FBE0402A00D101E1DB06DB0E05
:104E9000D9B2012900D125E15BB2002B00D115E187
:104EA000022900D0EBE07023217A0B4200D0E6E02B
:104EB0007F25CB0999460D407E4B6D005B194B4415
:104EC0001E7D7D4B1B789E4200D242E1581CB042B1
:104ED00000DA24E2F61A7B4B76019E19002A00D1F3
:104EE00021E2706900F08AFC736908AA0121380088
:104EF0009847D5E06F4D2B78DB0700D445E7FFF7E7
:104F0000A9FE42E76B4BDB78DB0700D43DE7606826
:104F1000FFF794FE39E7674D2B78DB0700D434E7C1
:104F200028780007C00FFFF793FE2EE76549624D12
:104F30008946624927782A7800230026884610E0AF
:104F400042461268730194466344002B66D0DB68C6
:104F5000380098472A780136F6B2511C33008E4249
:104F60003CDCB242ECD89B1A5B014B44EFE755495D
:104F7000514D8946514927782A78002300268846D2
:104F800010E042461268730194466344002B20D01F
:104F9000DB68380098472A780136F6B2511C330096
:104FA0008E4205DCB242ECD89B1A5B014B44EFE722
:104FB000404D542200212800FDF708FB1022FF215C
:104FC000281DFDF703FB280020221430FF21FDF7E8
:104FD000FDFA00F009FCFFF739FED6E6354D542204
:104FE00000212800FDF7F2FA1022FF21281DFDF70D
:104FF000EDFA280020221430FF21FDF7E7FA00F037
:10500000F3FB2379AB70C0E6501C98420EDA0BB06C
:105010003CBC90469946A246AB46F0BD254DEEE716
:1050200062792078A36800F0FDFBAEE69B1A254A62
:105030005B01D318F3E6019B0490012B00D1D1E171
:10504000019B002B00D1DBE1B1781A4A0B0052180A
:105050001279FF2A10D10022164801328446634497
:105060001F71019BD2B29A4200D3C9E15318DBB23F
:10507000C0180079FF28EFD000230E4A5370207823
:105080000021FFF75FFD20788021FFF75BFD7CE6C4
:105090000D4800F0B3FB08AA01213800FFF7AEF875
:1050A000002800D071E6EAE744110020FC1400203B
:1050B000E8700010A4140020851D0020F4120020C8
:1050C000871D002090710010FD410010202A00D1A2
:1050D00009E1002AD3D16379092BD0D8D44A9B00A7
:1050E000D3589F46237A0F2BC9D8D24A9446D24A26
:1050F00063441B791278934224D3511C9942BEDB3E
:105100009B1ACE4D5B01ED18686900F077FB6B6967
:1051100008AA012138009847002800D035E660250C
:1051200023791D40ABD163790A3B012BA7D800F04E
:1051300065FB63790A2B00D14BE108A9380000F028
:10514000E1FA22E6BE4A5B011568ED18002D96D003
:10515000DAE7BB4B76011B689E19002A00D1E2E01A
:10516000002E8CD0BDE6B34BA6795B789E42E4D08E
:10517000B04B5B78002B00D06FE1AE4B5E70002E21
:1051800000D167E1701EC0B2FFF786FA002800D197
:1051900072E743780593022B00D06DE701251026B6
:1051A000C27953112B401901A24B92111B782A404E
:1051B000B3430B43202152018B4313439D4A137089
:1051C00009239846C37882781B021343C31880448E
:1051D0000393984500D328E1994B46469946B84633
:1051E0000122737801920B2B04D1F3780193337869
:1051F000F6187378042B00D03EE7039B00279B1B17
:105200009BB204938C4B1D78002302931AE04A460C
:1052100012687B01D518002D00D12DE7049A3100CA
:1052200040462B699847082803D9049B834200D342
:1052300001E7814B01371D78FFB26B1C02979F423B
:1052400000DD19E7BD42E2D8029B5D1B7B4B6D017F
:105250009C466544E2E7774B06AA5B7802321370FE
:1052600008A90123380000F065FA8EE5E088030AFA
:10527000C0B20F2B00D902E772499A008A589746AC
:1052800008A800F0C1FAA1793800FFF79BFB0222C1
:10529000684B1B781343674A137076E5E388012B4C
:1052A00000D0ECE60822634B1B789343614A1370ED
:1052B00043E702205F4B197806AB9A1C8B068908DE
:1052C000DB0F01400B43138008A90223380000F0D4
:1052D00031FA5AE5E388012B00D0D0E60822554B7D
:1052E0001B781343E2E7237A0F2B00D9C7E6514A14
:1052F0009446514A63441B791278934251D2504AE2
:105300005B011568ED18002D00D1B8E6686900F062
:1053100075FA6B6908AA012138009847C0E6002693
:10532000002A00D0ABE663799846012B04D0002B0D
:105330002DD0032B00D0A2E6E388002B12D1424BE4
:1053400018784346012B35D0FFF7FCFB0221394B7F
:105350005B194B4430331A790A4301211A711A79C7
:105360000A431A71002E00D10FE5706900F046FA69
:10537000736908AA012138009847002000F03EFA1E
:1053800035232C4AD35CDB0700D5FEE4D5E6294B58
:1053900006AA5B194B4430331B7902329B07DB0FA3
:1053A00091E7511C994200DA69E69B1A234D5B0193
:1053B000ED18ABE7FFF7E0FB02211E4B5B194B44F6
:1053C00030331A798A4341461A711A798A431A711D
:1053D000C8E706AB9A1C08A901233800157000F035
:1053E000A9F9D2E4194B2A699A4200D1B6E0114AD0
:1053F000B378944663441A79FF2A00D03CE61F71C3
:10540000049D3B002A003100114800F061FFAC46CA
:10541000094B029A1B78664401339A4200DD2BE661
:10542000039BB34200D9DBE64746FFF70DFC84E659
:105430000C710010A4140020851D00209071001034
:10544000F41200203471001044110020A15B001000
:10545000B8140020FFF7FAFB6FE600213800FFF7D1
:10546000BBFA3800FFF758FB3E4B3F4D9B783F4956
:1054700001938846002329002A7889461D0011E0FF
:10548000424612686B0194466344002B22D0DB68CD
:10549000380098474B461A780135EDB2511C2B0065
:1054A0008D4207DC9542EBD39B1A314A5B0194464F
:1054B0006344ECE7542200212A48FDF787F8294B82
:1054C0001022FF21181DFDF781F82022FF21294815
:1054D000FDF77CF8234B019A9A704EE6FEF78AFEA0
:1054E000021E00D1CBE5C37881781B020B43380044
:1054F00008A900F01FF9D3E5FFF7A2FB021E00D1B7
:10550000BDE5137808A9380000F014F9C8E5022BAE
:1055100019D0FFF797FB002800D1B0E5C378827857
:105520001B02134308A90200380000F003F9B7E595
:10553000FFF7AEF8021E00D1A1E5122308A938003A
:1055400000F0F8F8ACE5FFF7A7F80028E6D196E5FB
:105550002189FFF7A5F8021ED3D190E5059B0193A1
:1055600072E5C046A4140020851D0020F41200201E
:1055700090710010B8140020F8B557464E46DE462C
:1055800045460C00E0B516001F00002A4BD04B78B2
:10559000052B08D1CB789B079B0FBB4203D1702210
:1055A0008B781A4206D000203CBC90469946A24611
:1055B000AB46F8BD1D4B00259B461B7899461C4BFE
:1055C0009A467023984602E05B461B7899465346FC
:1055D0002000997800F042FE0028E4D021004846DF
:1055E000FFF716FA0028DED0A378DA09012A13D0D3
:1055F0000A9A013513702378E418B54213DA6378F8
:10560000052BD0D1E3789B079B0FBB42CBD1424601
:10561000A3781A42C7D1D7E70B9A013513702378C4
:10562000E418B542EBDB0120BEE7C0464411002080
:10563000A4140020702270B58B780C001A4201D09F
:10564000002070BD064B20001D78064B997800F0B5
:1056500005FE0028F4D021002800FFF7D9F9F0E773
:1056600044110020A41400207F20074B0840C909E2
:105670001A680B0010B534334000C018034B1100FA
:10568000181800F0A9FD10BDF8140020A414002083
:105690007F20074B0840C9091A680B0010B5343346
:1056A0004000C018034B1100181800F0BBFD10BDDE
:1056B000F8140020A414002070B57F240C40600072
:1056C0000E4CCD0924186419303425790020ED07DB
:1056D00000D570BD0126257909483543007825712C
:1056E000FFF71EFA0028F4D1012223799343237196
:1056F0002379033293432371EBE7C046A4140020BF
:105700004411002070B50A4C0600082220000D004C
:10571000FCF762FF002169560023C943C90F30001E
:10572000E360C9010022A360FFF7C6FF70BDC04659
:1057300084140020F0B5C6469046294C082200B5D6
:10574000060020000D001F00FCF746FF4346A36043
:105750000023E381EB79AA791B0213431A1CBB4295
:1057600000D93A1C97B2A281002B12D0002F1DD075
:105770004346002B31D03B1C402F1DD89FB22378CD
:105780007F2B1ED80021174A3B003000FFF794FF03
:1057900009E0002169560023C943C90FC90100224D
:1057A0003000FFF789FF04BC9046F0BD23787F2BC3
:1057B00010D980210022E7E740239FB223787F2B76
:1057C000E0D9084C3A0041462000FCF705FF802153
:1057D0002200D9E700210022D6E70020E3E7C046F7
:1057E000841400204414002010B514220021024823
:1057F000FCF7ECFE10BDC04684140020014B18617C
:105800007047C0468414002010B5054C01000822E2
:105810002000FCF7E1FE0023A360E36010BDC0465A
:1058200084140020F8B5394C1D0023780600DA09ED
:10583000C9098A4210D00020002D00D0F8BD2100F7
:105840003000FFF7D7F82369002B41D02200032155
:10585000300098470120F1E7A0687F2B06D8002888
:1058600038D02A002A49FCF7B7FEA068E289E3880D
:10587000521992B24019E281A060934214D03F2D98
:1058800012D9A589A91A0F1C89B240292ED82378CC
:10589000BFB27F2B2CD80021AA4235D01C4A3B0036
:1058A0003000FFF709FFC9E72369002B05D022006C
:1058B00002213000984700280ED0002161560023B5
:1058C000C943C90FC90100223000FFF7F5FEB5E753
:1058D0000120B3E70020B1E700213000FFF732F9E3
:1058E00030008021FFF72EF90120A7E74027CEE7FF
:1058F0008021AA4208D0064C01003A002000FCF7A3
:105900006BFE80212200CAE70022C8E78414002031
:105910004414002010B50400FFF79EF9002801D1BF
:10592000002010BDFFF7A0F90028F9D1C83044438A
:1059300002480019037901201840F2E77C13002087
:10594000C823584310B5034B1030C01800F018FEA0
:1059500010BDC0467C130020F0B5C824C6464443A1
:105960001E4F1F4B103400B506003C199A4200D957
:105970001C4A92B2200000F085FE8046FFF76CF9C9
:10598000002803D1404604BC9046F0BDFFF76CF9F7
:105990000028F7D1C82575437D19EB78002BF1D08D
:1059A000200000F009FE3F28ECD9E9780020FFF73D
:1059B0005BFE0028E6D0200000F0FEFD3F2808D95D
:1059C000094AF601B218E97840230020FFF774FE77
:1059D000D8E7E9780020FFF75BFED3E77C130020CF
:1059E000FEFF0000FFFF0000F8120020F8B50400E1
:1059F000FFF732F9002801D10020F8BDFFF734F994
:105A00000028F9D1C82565432E00144F2436F61915
:105A1000300000F0B5FD0028EED07D19A9780020F7
:105A2000FFF722FE0028E7D0E401403427000C4CA9
:105A300040223F193900300000F024FEA978041EEE
:105A400008D003003A000020FFF736FE0028D3D02C
:105A50002000D2E70020FFF71BFECDE77C130020DB
:105A6000F812002070B5C82444430C4B2434E418C9
:105A70000B4B05009A4200D90A4A92B2200000F06E
:105A8000BFFE0600200000F07BFD3F2801D830005B
:105A900070BD2800FFF7AAFFF9E7C0467C1300207D
:105AA000FEFF0000FFFF0000C823584310B5034B62
:105AB0002430C01800F080FD10BDC0467C130020CB
:105AC000F0B50025184C83B0C82200212000FCF757
:105AD0007DFD164B21001D70FF236371E1235B02E6
